:020000040800F2
:1000000000180020212A0008552700085D27000855
:1000100000000000000000000000000000000000E0
:10002000000000000000000000000000652700083C
:1000300000000000000000006F270008792700087A
:10004000712A000800000000712A0008712A0008C7
:10005000712A0008712A0008712A0008712A000814
:1000600000000000712A0008712A0008712A0008A7
:10007000712A0008712A0008712A00080000000097
:10008000712A000800000000000000008927000815
:1000900000000000712A0008712A0008712A000877
:1000A00000000000712A000800000000712A00080A
:1000B000712A00080000000000000000000000009D
:1000C00010B5064C2378002B07D1054B002B02D02E
:1000D000044800E000BF0123237010BD5C00002035
:1000E0000000000060600008044B10B5002B03D036
:1000F0000349044800E000BF10BDC04600000000F6
:1001000060000020606000080023C25C0133002A08
:10011000FBD1581E7047000003B4714649084000E7
:100120004900095E49008E4403BC70470022430821
:100130008B4274D303098B425FD3030A8B4244D3AF
:10014000030B8B4228D3030C8B420DD3FF220902F1
:1001500012BA030C8B4202D31212090265D0030BB0
:100160008B4219D300E0090AC30B8B4201D3CB03A6
:10017000C01A5241830B8B4201D38B03C01A5241E8
:10018000430B8B4201D34B03C01A5241030B8B42EA
:1001900001D30B03C01A5241C30A8B4201D3CB02D5
:1001A000C01A5241830A8B4201D38B02C01A5241BA
:1001B000430A8B4201D34B02C01A5241030A8B42BD
:1001C00001D30B02C01A5241CDD2C3098B4201D3D5
:1001D000CB01C01A524183098B4201D38B01C01A53
:1001E000524143098B4201D34B01C01A52410309CA
:1001F0008B4201D30B01C01A5241C3088B4201D379
:10020000CB00C01A524183088B4201D38B00C01A25
:10021000524143088B4201D34B00C01A5241411A4C
:1002200000D20146524110467047FFE701B5002059
:1002300000F0F0F802BDC0460029F7D076E770471D
:1002400003460B437FD4002243088B4274D3030937
:100250008B425FD3030A8B4244D3030B8B4228D3D8
:10026000030C8B420DD3FF22090212BA030C8B42FE
:1002700002D31212090265D0030B8B4219D300E09E
:10028000090AC30B8B4201D3CB03C01A5241830B23
:100290008B4201D38B03C01A5241430B8B4201D3D3
:1002A0004B03C01A5241030B8B4201D30B03C01AFC
:1002B0005241C30A8B4201D3CB02C01A5241830A76
:1002C0008B4201D38B02C01A5241430A8B4201D3A5
:1002D0004B02C01A5241030A8B4201D30B02C01ACF
:1002E0005241CDD2C3098B4201D3CB01C01A524136
:1002F00083098B4201D38B01C01A524143098B42BF
:1003000001D34B01C01A524103098B4201D30B01A7
:10031000C01A5241C3088B4201D3CB00C01A5241CC
:1003200083088B4201D38B00C01A524143088B4291
:1003300001D34B00C01A5241411A00D2014652412A
:10034000104670475DE0CA0F00D04942031000D349
:100350004042534000229C4603098B422DD3030A9E
:100360008B4212D3FC22890112BA030A8B420CD3AE
:10037000890192118B4208D3890192118B4204D3D7
:1003800089013AD0921100E08909C3098B4201D357
:10039000CB01C01A524183098B4201D38B01C01A91
:1003A000524143098B4201D34B01C01A5241030908
:1003B0008B4201D30B01C01A5241C3088B4201D3B7
:1003C000CB00C01A524183088B4201D38B00C01A64
:1003D0005241D9D243088B4201D34B00C01A52413B
:1003E000411A00D20146634652415B10104601D3C8
:1003F0004042002B00D54942704763465B1000D352
:10040000404201B5002000F005F802BD0029F8D0F7
:1004100016E770477047C046F0B585B000AF78600A
:100420000E26BB1900221A700F257C197B68180054
:1004300000F08AFB030023702C003B191B785BB291
:10044000002B3CD17B685A697B685B6820481900A7
:1004500090477B685B78002B0CD17B6801221A7275
:100460003C197B68B9190122002000F0B1F80300A3
:10047000237002E07B6800221A720F257B191B781B
:100480005BB2002B1BD17C197B680E26B9190122A7
:10049000002000F09DF8030023707B191B785BB2ED
:1004A000002B0CD1BB191B78902B04D1BB191A78E7
:1004B0007B681A7003E00F23FB18FD221A700F23CC
:1004C000FB181B785BB21800BD4605B0F0BDC046F6
:1004D00088130000F0B587B000AFB9607A603B6068
:1004E0000F23FB18021C1A701726BC193B68180052
:1004F00000F02AFB03002370BB191B785BB2002BB2
:1005000058D1BB68002B55D07B68012B16D13B68B6
:100510001C693B685D687A68B9680F23FB18187816
:100520002B00A04703001A003B681A773B681B7F2B
:100530005BB2002B02D0BB19FE221A707B68012B24
:100540003DD91623FB1800221A7026E03B681C696F
:100550001623FB181B78BA68D1183B685A680F2518
:100560007B19187813000122A04703001A003B688A
:100570001A777B191A787B1901321A703B681B7F36
:100580005BB2002B03D01723FB18FE221A70162132
:100590007B181A787B1801321A701623FB181B7807
:1005A0007A689A420BD91723FB181B785BB2002B91
:1005B000CCD004E01723FB18FF221A7000E0C046DD
:1005C0001723FB181B785BB21800BD4607B0F0BDBF
:1005D000F0B5A7B000AFB9607A603B600F257B191A
:1005E000021C1A709726BC193B68180000F0ACFA80
:1005F00003002370BB191B785BB2002B4AD1BB6888
:10060000002B47D03B685B78012B06D07B197A1909
:100610001278802149420A431A703B68DC683B68C3
:100620001B7A1A007B68D2183B685D681423F9189E
:100630000F23FB1818782B00A04703001A003B6813
:100640001A773B681B7F5BB2002B1ED19423FB18EB
:1006500000221A8012E094203B181B883A68127A14
:100660009A183B181B88B968CB18142179188A5C32
:100670001A703B181A883B1801321A809423FB1811
:100680001B887A689A42E6D808E09723FB18FE2276
:100690001A7003E09723FB18FF221A709723FB18A8
:1006A0001B785BB21800BD4627B0F0BDF0B585B031
:1006B00000AF02003960FB1D1A700E26BB19002224
:1006C0001A700F257C193B68180000F03DFA0300F2
:1006D00023707B191B785BB2002B08D17C193B6817
:1006E000B91901221920FFF773FF030023700F24AB
:1006F0003B191B785BB2002B2DD10E203B181B78C9
:100700005BB2032293435AB2FB1D1B785BB20321F9
:100710000B405BB213435BB2DAB23B181A703C1960
:100720003B68391801221920FFF7D4FE030023701B
:10073000FB1D1B78012B07D13B685A693B685B683E
:1007400009481900904706E03B685A693B685B68B6
:100750000648190090470F23FB181B785BB218005E
:10076000BD4605B0F0BDC046409C0000102700000B
:10077000F0B587B000AFB9607A600F26BB19021CD4
:100780001A7017257C197B68180000F0DDF903004A
:1007900023702A00BB181B785BB2002B0DD1BB68FD
:1007A000002B0AD0BC187A68B968BB191B781800EE
:1007B00000F050FB0300237003E01723FB18FF2217
:1007C0001A701723FB181B785BB21800BD4607B0E0
:1007D000F0BDF0B587B000AFF8607A600A23FB186F
:1007E0000A1C1A801426BB1900221A801023FB1839
:1007F000180003231A00002104F0B8FF17257C1904
:100800007B68180000F0A0F9030023707B191B78A7
:100810005BB2002B4DD1FB68002B4AD07C197B6862
:100820001022B91803222120FFF7D2FE0300237003
:100830007B191B785BB2002B40D1BB1900221A80B8
:1008400018E014257B191A8813009B009B189B0045
:100850001A00FB6899181723FC187A681023FB18F4
:10086000180000F095F9030023707B191A887B1992
:1008700001321A801423FA180A23FB1812881B88E5
:100880009A4205D21723FB181B785BB2002BD8D0F5
:100890001722BB181B785BB2002B0FD1BC187B68EA
:1008A0001022B91803222120FFF714FE0300237041
:1008B00004E01723FB18FF221A7000E0C04617233C
:1008C000FB181B785BB21800BD4607B0F0BD0000F6
:1008D000F0B587B000AFF8607A600B23FB180A1CF4
:1008E0001A701026BB19180003231A00002104F007
:1008F0003DFF17257C197B68180000F025F90300DF
:1009000023707B191B785BB2002B00D00EE1FB68D3
:10091000002B00D10AE17C197B68B9190322212040
:10092000FFF756FE030023701423FB1800221A80E1
:10093000DBE01423FB181A8813009B009B185B0054
:100940001A00FB689B181B78052B00D9BFE09A00A2
:100950007C4BD3181B689F461423FB181A8813007E
:100960009B009B185B001A00FB689B180233172240
:10097000BC187A681100180000F056FB03002370C1
:10098000ADE014257B191A8813009B009B185B00AF
:100990001A00FB689B1802331726BC197A681100ED
:1009A000180000F0DDFB03002370BB191B785BB25D
:1009B000002B00D090E07B191A8813009B009B1835
:1009C0005B001A00FB689B185A7A1023FB1807215A
:1009D000180000F0B7FF7FE01423FB181A881300FB
:1009E0009B009B185B001A00FB689B1802331722C0
:1009F000BC187A681100180000F016FC0300237080
:100A00006DE01423FB181A8813009B009B185B00F1
:100A10001A00FB689B181722BC18796802229A5AA0
:100A200000231204120C1B0C1B041343180001F0CA
:100A3000A9FA0300237052E01423FB181A8813004C
:100A40009B009B185B001A00FB689B189A78102388
:100A5000FB180B21180000F075FF40E014257B19EE
:100A60001A8813009B009B185B001A00FB689B18F8
:100A700002331726BC197A681100180001F0DBFA5E
:100A800003002370BB191B785BB2002B26D17B19A6
:100A90001A8813009B009B185B001A00FB689B18C8
:100AA000DA7910243B190221180000F04BFF7B1962
:100AB0001A8813009B009B185B001A00FB689B18A8
:100AC0009A793B190321180000F03CFF06E0172338
:100AD000FB18FC221A7002E0C04600E0C046142158
:100AE0007B181A887B1801321A800B23FB181B789D
:100AF0009BB21422BA1812889A4206D21723FB1806
:100B00001B785BB2002B00D113E71722BB181B78B0
:100B10005BB2002B0ED1BC187B681022B9180322DF
:100B20002120FFF7D7FC0300237003E01723FB18F5
:100B3000FF221A701723FB181B785BB21800BD4602
:100B400007B0F0BD8060000880B584B000AF786069
:100B50007B68002B0BD07B68DB68002B07D07B68A1
:100B60001B69002B03D07B685B68002B04D10F232B
:100B7000FB18FF221A7003E00F23FB1800221A70E3
:100B80000F23FB181B785BB21800BD4604B080BD74
:100B9000F0B587B000AFF860B9607A6017217B18B4
:100BA000FC221A7016257B1900221A701526BB1913
:100BB00000221A70BB681B78002B10D1BB6802336F
:100BC0007C187A681100180000F0AAF8030023705E
:100BD0007B1901221A70BB19BA68127A1A70BB68A5
:100BE0001B78012B13D1BB6802331722BC187A681B
:100BF0001100180000F096FB030023701623FB1869
:100C000009221A701523FB18BA68D2791A70BB68CA
:100C10001B78022B13D1BB6802331722BC187A68E9
:100C20001100180000F004FC030023701623FB18C9
:100C300008221A701523FB18BA6892791A70BB68DB
:100C40001B78032B13D1BB6802331722BC187A68B8
:100C50001100180000F03EFC030023701623FB185F
:100C600005221A701523FB18BA68927C1A70BB68AB
:100C70001B78042B13D1BB6802331722BC187A6887
:100C80001100180000F0F6FC030023701623FB1877
:100C900004221A701523FB18BA68927C1A70BB687C
:100CA0001B78052B13D1BB6802331722BC187A6856
:100CB0001100180000F0AEFD030023701623FB188E
:100CC00006221A701523FB18BA68927B1A70BB684B
:100CD0001B78062B0CD11723FB1800221A70162341
:100CE000FB180A221A701523FB18BA6892781A703A
:100CF0001723FB181B785BB2002B09D11523FB18B7
:100D00001A781623FB181978FB68180000F01AFEF1
:100D10001723FB181B785BB21800BD4607B0F0BD67
:100D2000F0B585B000AF786039600C257B19484A72
:100D30001188198092789A700F26BC193B6879192E
:100D400003221920FFF744FC0300237034003B19F1
:100D50001B785BB2002B73D128003B181B785BB269
:100D60007F2213405AB27B685B795BB2DB015BB2D6
:100D700013435BB2DAB23B181A703B181B785BB2B4
:100D8000602293435AB27B681B795BB25B015BB212
:100D900060210B405BB213435BB2DAB23B181A70AE
:100DA0003B185B785BB23F2213405AB27B685B789A
:100DB0005BB29B015BB213435BB2DAB23B185A7071
:100DC0003B185B785BB2302293435AB27B68DB7886
:100DD0005BB21B015BB230210B405BB213435BB2D1
:100DE000DAB23B185A703B185B785BB20F22934320
:100DF0005AB27B681B785BB20F210B405BB2134386
:100E00005BB2DAB23B185A703B189B785BB20C228B
:100E100093435AB27B689B785BB29B005BB20C2118
:100E20000B405BB213435BB2DAB23B189A703C19C9
:100E30003B68391803221920FFF74CFB030023708D
:100E40000F23FB181B785BB21800BD4605B0F0BD40
:100E500078600008B0B58AB000AFB9607A600F243E
:100E60003B19021C1A7010257B19180009231A005F
:100E7000002104F07BFC3B191B78002B0AD12723AF
:100E8000FC187B68791906220420FFF7A1FB0300F8
:100E9000237014E00F23FB181B78012B0BD12723A1
:100EA000FC187B681022B91809220420FFF790FB78
:100EB0000300237003E02723FB18FC221A7027236A
:100EC000FB181B785BB2002B00D0A3E010217B182D
:100ED0001A7824203B181A8023243B197A18527858
:100EE0001A703B191B789BB21B029AB23B181B88E5
:100EF000D3189BB21AB2BB681A80BB6800229A5EF4
:100F000080231B019A420ADBBB6800229B5E9BB2D6
:100F1000444A944663449BB21AB2BB681A801021BB
:100F20007B189A7824203B181A8023243B197A18BE
:100F3000D2781A703B191B789BB21B029BB21AB273
:100F40003B1800215B5E13431AB2BB685A80BB6832
:100F500002229A5E80231B019A420ADBBB680222AE
:100F60009B5E9BB22F4A944663449BB21AB2BB6805
:100F70005A8010217B181A7924203B181A802324C8
:100F80003B197A1852791A703B191B789BB21B02D5
:100F90009BB21AB23B1800215B5E13431AB2BB68C6
:100FA0009A80BB6804229A5E80231B019A420ADB66
:100FB000BB6804229B5E9BB21A4A944663449BB270
:100FC0001AB2BB689A800F23FB181B78002B02D142
:100FD000BB6800229A600F23FB181B78012B19D1E4
:100FE00022203B1810217A1892791A707B18DB792D
:100FF0001A0020243B1912021A807B181B7A1B044A
:10100000FB613B191A88FB69D2183B181B78D21870
:10101000BB689A602723FB181B785BB21800BD469B
:101020000AB0B0BD00F0FFFFF0B585B000AF78604A
:1010300039600F26BC193A6808257B19591C130022
:1010400001222D20FFF7C4FA0300237034003B195E
:101050001B785BB2002B3ED128003B185B785BB25B
:10106000042293435AB27B681B785BB29B005BB24D
:1010700004210B405BB213435BB2DAB23B185A70E7
:101080007B685B88DAB20E257B190F210A401A7043
:101090007B685B881A110D217B181A703B187A182F
:1010A00012781A703B185B785BB20F2213405AB269
:1010B0007B191B785BB21B015BB213435BB2DAB2E4
:1010C0003B185A703C193B68391802222C20FFF754
:1010D00001FA030023700F23FB181B785BB2180082
:1010E000BD4605B0F0BDF0B585B000AF0200396077
:1010F000FB1D1A700F26BC193B680E2579190122B9
:101100002D20FFF765FA0300237034003B191B788C
:101110005BB2002B1CD128003B181B785BB202226B
:1011200093435AB2FB1D1B785BB2DB185BB2022102
:101130000B405BB213435BB2DAB23B181A703C1936
:101140003B68391801222D20FFF7C4F903002370F2
:101150000F23FB181B785BB21800BD4605B0F0BD2D
:10116000B0B584B000AF7860396008243B1918002E
:1011700005231A00002104F0F9FA20003B181B781F
:101180005BB2032293435AB27B681B785BB20321A4
:101190000B405BB213435BB2DAB23B181A703B18D8
:1011A0001B785BB21C2293435AB27B685B785BB2BC
:1011B0009B005BB21C210B405BB213435BB2DAB203
:1011C0003B181A703B181B785BB21F2213405AB2AF
:1011D0007B689B785BB25B015BB213435BB2DAB2B4
:1011E00001007B181A707B68DA787B185A707B686C
:1011F0001A797B189A707B685A797B18DA707B6849
:101200009A797B181A710F257C193B687918052289
:101210002F20FFF75FF9030023707B191B785BB267
:101220001800BD4604B0B0BDF0B585B000AF786021
:1012300039600F257C193B680D26B91901222B2036
:10124000FFF7C6F90300237028003B181B785BB238
:10125000002B5FD1BB191B785BB20F2293435AB2AC
:101260007B681B785BB20F210B405BB213435BB210
:10127000DAB2BB191A707B681B781A000C23134072
:1012800038D005003C183B680C22B91801222A20EE
:10129000FFF79EF90300237028003B181B785BB210
:1012A000002B27D17B685B881B11DAB20C257B19D8
:1012B0001A707B685B88DAB20E243B190F210A4052
:1012C0001A70BB191B785BB20F2213405AB23B193C
:1012D0001B785BB21B015BB213435BB2DAB2BB1982
:1012E0001A703C183B68791901222A20FFF7F2F89E
:1012F000030023700F22BB181B785BB2002B09D1AF
:10130000BC183B680D22B91801222B20FFF7E2F828
:10131000030023700F23FB181B785BB21800BD4637
:1013200005B0F0BDF0B585B000AF786039600C2530
:101330007B1900221A800F26BC193B6879190222FA
:101340005720FFF745F90300237034003B191B7841
:101350005BB2002B64D128003B181B785BB21822CB
:1013600093435AB27B681B785BB2DB005BB21821F7
:101370000B405BB213435BB2DAB23B181A703B18F6
:101380001B785BB2072293435AB27B685B785BB2EF
:1013900007210B405BB213435BB2DAB23B181A7001
:1013A0003B185B785BB2302293435AB27B681B795F
:1013B0005BB21B015BB230210B405BB213435BB2EB
:1013C000DAB23B185A703B185B785BB20C2293433D
:1013D0005AB27B68DB785BB29B005BB20C210B409E
:1013E0005BB213435BB2DAB23B185A703B185B78BE
:1013F0005BB2032293435AB27B689B785BB20321B2
:101400000B405BB213435BB2DAB23B185A703C1923
:101410003B68391802225720FFF75CF8030023705D
:101420000F23FB181B785BB21800BD4605B0F0BD5A
:10143000B0B584B000AF786039600C203B18002252
:101440001A807B681A783B181A703B185B785BB27D
:101450001F2213405AB27B685B785BB25B015BB2C0
:1014600013435BB2DAB23B185A703B185B785BB23D
:10147000102293435AB27B689B785BB21B015BB22C
:1014800010210B405BB213435BB2DAB23B185A70C7
:101490003B185B785BB20F2293435AB27B68DB78D0
:1014A0005BB20F210B405BB213435BB2DAB23B1865
:1014B0005A700F257C193B68391802225520FFF716
:1014C00009F8030023707B191B785BB21800BD4636
:1014D00004B0B0BD90B587B000AF786039600C241F
:1014E0003B1918000B231A00002104F03FF92000DB
:1014F0003B181B785BB21F2213405AB27B681B79E2
:101500005BB25B015BB213435BB2DAB23B181A7099
:101510003B181B785BB2102293435AB27B685B790D
:101520005BB21B015BB210210B405BB213435BB299
:10153000DAB23B181A703B181B785BB20C2293434B
:101540005AB27B681B7A5BB29B005BB20C210B40EA
:101550005BB213435BB2DAB23B181A703B181B78CC
:101560005BB2032293435AB27B685B7A5BB203217E
:101570000B405BB213435BB2DAB23B181A703B18F4
:101580005B785BB2022293435AB27B689B795BB271
:10159000DB185BB202210B405BB213435BB2DAB2E1
:1015A0003B185A703B185B785BB2012293435AB2E6
:1015B0007B68DB795BB201210B405BB213435BB20A
:1015C000DAB201007B185A707B681A787B189A701F
:1015D0007B685B881B0A9BB2DAB27B18DA707B6887
:1015E0005B88DAB27B181A717B681B7A002B2ED1CC
:1015F0007B685B89DAB27B185A717B685B891B0A4E
:101600009BB2DAB27B189A717B689B89DAB27B183D
:10161000DA717B689B891B0A9BB2DAB27B181A725B
:101620007B68DB89DAB27B185A727B68DB891B0A1C
:101630009BB2DAB27B189A721723FC183B687918B0
:101640000B223F20FEF746FF030023700AE017231A
:10165000FC183B680C22B91805223F20FEF73AFF20
:10166000030023701723FB181B785BB21800BD46DC
:1016700007B090BD90B587B000AF786039600C249A
:101680003B1918000B231A00002104F06FF820000A
:101690003B181B785BB21F2213405AB27B681B7940
:1016A0005BB25B015BB213435BB2DAB23B181A70F8
:1016B0003B181B785BB2102293435AB27B685B796C
:1016C0005BB21B015BB210210B405BB213435BB2F8
:1016D000DAB23B181A703B181B785BB20C229343AA
:1016E0005AB27B681B7A5BB29B005BB20C210B4049
:1016F0005BB213435BB2DAB23B181A703B181B782B
:101700005BB2032293435AB27B685B7A5BB20321DC
:101710000B405BB213435BB2DAB23B181A703B1852
:101720005B785BB2022293435AB27B689B795BB2CF
:10173000DB185BB202210B405BB213435BB2DAB23F
:101740003B185A703B185B785BB2012293435AB244
:101750007B68DB795BB201210B405BB213435BB268
:10176000DAB201007B185A707B681A787B189A707D
:101770007B685B881B0A9BB2DAB27B18DA707B68E5
:101780005B88DAB27B181A717B681B7A002B2ED12A
:101790007B685B89DAB27B185A717B685B891B0AAC
:1017A0009BB2DAB27B189A717B689B89DAB27B189C
:1017B000DA717B689B891B0A9BB2DAB27B181A72BA
:1017C0007B68DB89DAB27B185A727B68DB891B0A7B
:1017D0009BB2DAB27B189A721723FC183B6879180F
:1017E0000B224A20FEF776FE030023700AE017233F
:1017F000FC183B680C22B91805224A20FEF76AFE45
:10180000030023701723FB181B785BB21800BD463A
:1018100007B090BD90B587B000AF786039600C24F8
:101820003B1918000A231A00002103F09FFF200033
:101830003B181B785BB21F2213405AB27B681B789F
:101840005BB25B015BB213435BB2DAB23B181A7056
:101850003B181B785BB2102293435AB27B685B78CB
:101860005BB21B015BB210210B405BB213435BB256
:10187000DAB23B181A703B181B785BB20C22934308
:101880005AB27B689B785BB29B005BB20C210B4029
:101890005BB213435BB2DAB201007B181A707B684B
:1018A000DA787B185A707B681A797B189A707B6893
:1018B0005A797B18DA707B689B78002B2ED17B6875
:1018C000DB88DAB27B181A717B68DB881B0A9BB253
:1018D000DAB27B185A717B681B89DAB27B189A716D
:1018E0007B681B891B0A9BB2DAB27B18DA717B68B2
:1018F0005B89DAB27B181A727B685B891B0A9BB220
:10190000DAB27B185A721723FC183B6879180A223E
:101910003520FEF7DFFD030023700AE01723FC18D3
:101920003B680C22B91804223520FEF7D3FD0300D2
:1019300023701723FB181B785BB21800BD4607B055
:1019400090BD000080B582B000AF78600800110043
:10195000FB1C021C1A70BB1C0A1C1A70FB1C1B7897
:101960000B2B00D9F3E29A00C94BD3181B689F4692
:10197000BB1C1B78012B07D17B681B78802252424D
:101980001343DAB27B681A70BB1C1B78022B09D197
:101990007B6801331A787B680133802149420A430E
:1019A000D2B21A70BB1C1B78002B0FD17B681B783E
:1019B0007F221340DAB27B681A707B6801331A7891
:1019C0007B6801337F210A40D2B21A70BB1C1B789E
:1019D000032B00D0BDE27B681B7880225242134368
:1019E000DAB27B681A707B6801331A787B6801333E
:1019F000802149420A43D2B21A70AAE2BB1C1B786A
:101A0000012B06D17B681B7840221343DAB27B6836
:101A10001A70BB1C1B78022B08D17B6801331A7823
:101A20007B68013340210A43D2B21A70BB1C1B7879
:101A3000002B0FD17B681B7840229343DAB27B687E
:101A40001A707B6801331A787B68013340218A431E
:101A5000D2B21A70BB1C1B78032B00D07BE27B68D0
:101A60001B7840221343DAB27B681A707B6801331B
:101A70001A787B68013340210A43D2B21A706AE2B5
:101A8000BB1C1B78012B06D17B681B7820221343DB
:101A9000DAB27B681A70BB1C1B78022B08D17B68FA
:101AA00001331A787B68013320210A43D2B21A70BD
:101AB000BB1C1B78002B0FD17B681B782022934323
:101AC000DAB27B681A707B6801331A787B6801335D
:101AD00020218A43D2B21A70BB1C1B78032B00D082
:101AE0003BE27B681B7820221343DAB27B681A70D2
:101AF0007B6801331A787B68013320210A43D2B214
:101B00001A702AE2BB1C1B78012B06D17B681B785C
:101B100010221343DAB27B681A70BB1C1B78022BAD
:101B200008D17B6801331A787B68013310210A439E
:101B3000D2B21A70BB1C1B78002B0FD17B681B78AC
:101B400010229343DAB27B681A707B6801331A78EB
:101B50007B68013310218A43D2B21A70BB1C1B78F8
:101B6000032B00D0FBE17B681B7810221343DAB211
:101B70007B681A707B6801331A787B680133102107
:101B80000A43D2B21A70EAE1BB1C1B78012B06D1C2
:101B90007B681B7808221343DAB27B681A70BB1C7F
:101BA0001B78022B08D17B6801331A787B680133DC
:101BB00008210A43D2B21A70BB1C1B78002B0FD12C
:101BC0007B681B7808229343DAB27B681A707B68C3
:101BD00001331A787B68013308218A43D2B21A7024
:101BE000BB1C1B78032B00D0BBE17B681B78082251
:101BF0001343DAB27B681A707B6801331A787B680A
:101C0000013308210A43D2B21A70AAE1BB1C1B7827
:101C1000012B06D17B681B7804221343DAB27B6860
:101C20001A70BB1C1B78022B08D17B6801331A7811
:101C30007B68013304210A43D2B21A70BB1C1B78A3
:101C4000002B0FD17B681B7804229343DAB27B68A8
:101C50001A707B6801331A787B68013304218A4348
:101C6000D2B21A70BB1C1B78032B00D07BE17B68BF
:101C70001B7804221343DAB27B681A707B68013345
:101C80001A787B68013304210A43D2B21A706AE1E0
:101C900098600008BB1C1B78012B06D17B681B7861
:101CA00002221343DAB27B681A70BB1C1B78022B2A
:101CB00008D17B6801331A787B68013302210A431B
:101CC000D2B21A70BB1C1B78002B0FD17B681B781B
:101CD00002229343DAB27B681A707B6801331A7868
:101CE0007B68013302218A43D2B21A70BB1C1B7875
:101CF000032B00D039E17B681B7802221343DAB250
:101D00007B681A707B6801331A787B680133022183
:101D10000A43D2B21A7028E1BB1C1B78012B06D1F2
:101D20007B681B7801221343DAB27B681A70BB1CF4
:101D30001B78022B08D17B6801331A787B6801334A
:101D400001210A43D2B21A70BB1C1B78002B0FD1A1
:101D50007B681B7801229343DAB27B681A707B6838
:101D600001331A787B68013301218A43D2B21A7099
:101D7000BB1C1B78032B00D0F9E07B681B78012289
:101D80001343DAB27B681A707B6801331A787B6878
:101D9000013301210A43D2B21A70E8E0BB1C1B7860
:101DA000012B08D17B6802331A787B680233082143
:101DB0000A43D2B21A70BB1C1B78022B09D17B6874
:101DC00002331A787B680233802149420A43D2B237
:101DD0001A70BB1C1B78002B11D17B6802331A7858
:101DE0007B68023308218A43D2B21A707B680233BF
:101DF0001A787B6802337F210A40D2B21A70BB1C6A
:101E00001B78032B00D0B4E07B6802331A787B6820
:101E1000023308210A43D2B21A707B6802331A785F
:101E20007B680233802149420A43D2B21A70A0E093
:101E3000BB1C1B78012B08D17B6802331A787B68A6
:101E4000023304210A43D2B21A70BB1C1B78022B46
:101E500008D17B6802331A787B68023340210A4339
:101E6000D2B21A70BB1C1B78002B11D17B680233D5
:101E70001A787B68023304218A43D2B21A707B68D5
:101E800002331A787B68023340218A43D2B21A7037
:101E9000BB1C1B78032B00D06DE07B6802331A78E3
:101EA0007B68023304210A43D2B21A707B68023382
:101EB0001A787B68023340210A43D2B21A705AE082
:101EC000BB1C1B78012B08D17B6802331A787B6816
:101ED000023301210A43D2B21A70BB1C1B78022BB9
:101EE00008D17B6802331A787B68023310210A43D9
:101EF000D2B21A70BB1C1B78002B11D17B68023345
:101F00001A787B68023301218A43D2B21A707B6847
:101F100002331A787B68023310218A43D2B21A70D6
:101F2000BB1C1B78032B28D17B6802331A787B6893
:101F3000023301210A43D2B21A707B6802331A7845
:101F40007B68023310210A43D2B21A7015E0C046F2
:101F500014E0C04612E0C04610E0C0460EE0C046A5
:101F60000CE0C0460AE0C04608E0C04606E0C046B5
:101F700004E0C04602E0C04600E0C046C046BD46A0
:101F800002B080BDF0B585B000AF3B1D1880396050
:101F90000F26BC193B680E25791901222420FEF773
:101FA00017FB03002370BB191B785BB2002B3AD1DF
:101FB0003B1D1B78012B13D128003B181B785BB20B
:101FC000062293435AB23B1D5B785BB2DB185BB2CF
:101FD00006210B405BB213435BB2DAB23B181A70B6
:101FE0003B1D1B78022B13D10E203B181B785BB2D4
:101FF000602293435AB23B1D5B785BB25B015BB2DC
:1020000060210B405BB213435BB2DAB23B181A702B
:102010000F23FC183B680E22B91801222420FEF77A
:1020200059FA030023700F23FB181B785BB21800CA
:10203000BD4605B0F0BDF0B585B000AF7860396041
:102040000F257C193B681800FEF77EFD0300237006
:102050007B191B785BB2002B5BD17C193B6808268F
:10206000B91903222620FEF7B3FA030023707B1967
:102070001B785BB2002B4CD17B681A780C217B1843
:102080001A707B685B78002B0CD1BB191B785BB294
:102090007A18127852B2D24352B213405BB2DAB21B
:1020A0007B181A707B685B88DAB20C217B185A7037
:1020B0007B685B881B0A9BB2DAB27B189A707B182C
:1020C0009B7807221340DAB27B189A707B185A78F3
:1020D00008203B185B789A4210D17B189A783B18FD
:1020E0009B789A420AD10F23FC183B687918012289
:1020F0002620FEF7EFF9030023700AE00F23FC18F7
:102100003B680C22B91803222620FEF7E3F90300EE
:1021100023700F23FB181B785BB21800BD4605B077
:10212000F0BD80B58AB004AFB9607A603B600F2122
:102130007B18021C1A703B687B617B181B7899B274
:102140007B689BB278690122524202920193BB687C
:10215000009301230A00282101F076F9031E01D122
:10216000002301E002235B421800BD4606B080BD9B
:1021700080B58AB004AFB9607A603B600F217B18EC
:10218000021C1A703B687B617B181B7899B27B68D4
:102190009BB278690122524202920193BB6800937C
:1021A00001230A00282101F021F8031E01D1002398
:1021B00001E002235B421800BD4606B080BD80B539
:1021C00082B000AF786039607B68FA229100180015
:1021D000FDF7ACFF0300180000F0C8FCC046BD4688
:1021E00002B080BD90B58BB000AF14243B1918002D
:1021F00014231A00002103F0B9FA404B5A6B3F4BED
:1022000004210A435A633D4B5B6B042213403B613C
:102210003B693A4B5A6B394B20210A435A63374B7F
:102220005B6B20221340FB60FB68344B5A6B334BD3
:1022300001210A435A63314B5B6B01221340BB609F
:10224000BB682E4B5A6B2D4B02210A435A632B4B12
:102250005B6B022213407B607B68D0235900A02374
:10226000DB050022180000F0FDFE3B1904221A6075
:102270003B1900225A603B1900229A603B19204A00
:102280001900100000F084FD3B191E221A603B1952
:1022900003225A603B1900229A603A19A023DB05F9
:1022A0001100180000F074FD21007B18D0225200AC
:1022B0001A600C003B1901225A603B1900229A60F7
:1022C0003B190022DA603A19A023DB05110018003F
:1022D00000F05EFD3B1940221A603B1900225A6053
:1022E0003B1901229A603A19A023DB05110018005E
:1022F00000F04EFDC046BD460BB090BD0010024040
:102300000014005080B500AF1B4B1C4A1A601A4BDA
:102310001B4A5A60184B00229A60174B0122DA6060
:10232000154B00221A61144B00225A61124B0022F5
:102330009A61114B0022DA610F4B00221A620E4B98
:10234000180000F0ADFE031E01D000F0CDF90A4BDD
:102350000021180001F0A8FC031E01D000F0C4F910
:10236000054B0021180001F0EBFC031E01D000F02A
:10237000BBF9C046BD4680BD780000200054004037
:102380002C09100090B591B000AF78602C23FB1899
:10239000180014231A00002103F0E8F910243B1957
:1023A00018001C231A00002103F0E0F97B681B6869
:1023B000224A93423DD13B1902221A603B19002266
:1023C000DA603B19180002F063F8031E01D000F038
:1023D0008BF91B4B5A6B1A4B02210A435A63184B59
:1023E0005B6B02221340FB60FB682C217B18C02230
:1023F0001A607B1812225A607B1801229A607B189F
:102400000022DA607B1806221A617B180D4A190037
:10241000100000F0BDFC0A4BDA6B094B80218903E8
:102420000A43DA63064BDA6B80239B031340BB60DD
:10243000BB68C046BD4611B090BDC04600540040C8
:10244000001002400004005080B590B000AF7860EA
:102450007B6819000220FEF729F903001A003F21CA
:102460007B181A707B181B78002B01D000F03CF908
:1024700020217B1802221A707B180E229A707B187A
:10248000C82252009A807B1801229A727B1801227E
:102490001A737B1801225A737B1802229A737B18D5
:1024A0000122DA737B1800229A747B180122DA74F5
:1024B0007B1803221A757B1801229A757B18022259
:1024C000DA757A687B1803211800FEF701FA030019
:1024D0001A003F217B181A707B181B78002B01D043
:1024E00000F002F90C217B1800221A707B180622DA
:1024F0009A707B180022DA707B1800221A717B1800
:1025000000225A717A687B1801211800FEF761F9E0
:1025100003001A003F217B181A707B181B78002BD0
:1025200001D000F0E1F87B6819000120FEF7DBFD27
:1025300003001A003F217B181A707B181B78002BB0
:1025400001D000F0D1F8C046BD4610B080BD0000FB
:1025500080B500AF154B01225A70144B144A5A60D3
:10256000124B144ADA60114B134A1A610F4B134A8B
:102570005A6100F07EFA00F025F8FFF733FEFFF70E
:10258000C1FE00F09DF900F04DF9084B1800FDF771
:1025900043FF064B1800FFF757FF0A2000F0E6FA4A
:1025A000074B180002F0B8F8C046FDE7D000002045
:1025B000780000202321000871210008BF210008B5
:1025C000F400002090B58DB000AF14243B19180022
:1025D0001C231A00002103F0C9F83B001800142343
:1025E0001A00002103F0C2F81B4B1A681A4B07218E
:1025F0008A431A603B1902221A603B19802252005A
:10260000DA603B19802292011A613B1940225A611B
:102610003B19180001F0E0FB031E01D000F064F844
:102620003B0007221A603B0000225A603B00002258
:102630009A603B000022DA603B0000221A613B00F6
:102640000021180001F0ACFD031E01D000F04CF891
:10265000C046BD460DB090BD0020024090B591B07F
:1026600000AF78607B681B68184A93422AD1184AE9
:1026700034243B1919000020FEF77AF83B19022296
:102680009B5E144A0C243819282103F039F83B19B1
:102690001800FDF739FD03009AB201235B42391996
:1026A0000D4802F0BDFA0D4B1B6828331A000B4B86
:1026B0001A600A4B1B680A4A934203D9094B180057
:1026C00002F078F8C046BD4611B090BD0020004031
:1026D000D00000207C60000840010020CC000020D9
:1026E0002F750000F400002080B500AF8023590052
:1026F000A023DB050122180000F0B4FCC046FDE772
:1027000080B582B000AF124B1A6C114B01210A4305
:102710001A640F4B1B6C012213407B607B680C4BCF
:10272000DA6B0B4B802149050A43DA63084BDA6BFD
:1027300080235B0513403B603B68082000F03AFAB9
:10274000102000F037FAC046BD4602B080BDC0463A
:102750000010024080B500AFC046FDE780B500AF75
:10276000C046FDE780B500AFC046BD4680BD80B520
:1027700000AFC046BD4680BD80B500AF00F0DAF9BD
:10278000C046BD4680BD000080B500AF034B1800B9
:1027900002F03EF8C046BD4680BDC046F4000020B1
:1027A00080B586B000AF7860144A154BD31A7B61B0
:1027B0007B693B61134B1B68002B02D1114B124A02
:1027C0001A60104B1A687B68D3183A699A4207D28C
:1027D00002F0D4FF03000C221A6001235B4209E0DF
:1027E000084B1B68FB60074B1A687B68D218054BC7
:1027F0001A60FB681800BD4606B080BD00180020B6
:1028000000040000F00000202003002080B500AF8D
:10281000034B802212059A60C046BD4680BDC0466B
:1028200000ED00E080B500AF0F4B104A1A600E4B70
:102830002C22FF325A600C4B00229A600A4B9022E5
:10284000FF32DA60084B00221A61074B00229A61BE
:10285000054B180001F008FF031E01D0FFF744FFED
:10286000C046BD4680BDC046F400002000200040A8
:1028700080B584B000AF78607B681B680E4A9342D5
:1028800015D10E4B1A6C0D4B802109020A431A64B4
:102890000A4B1A6C80231B021340FB60FB6800226A
:1028A0000021132000F042FA132000F054FAC04631
:1028B000BD4604B080BDC04600200040001002406C
:1028C00080B500AF234B244A1A60224BE12252020A
:1028D0005A60204B00229A601E4B0022DA601D4B8A
:1028E00000221A611B4B0C225A611A4B00229A617A
:1028F000184B0022DA61174B00221A62154B002296
:102900005A62144B00229A62124B180002F032F9FC
:10291000031E01D0FFF7E8FE0E4B0021180002F065
:102920000FFE031E01D0FFF7DFFE0A4B0021180047
:1029300002F046FE031E01D0FFF7D6FE054B18003D
:1029400002F0C4FD031E01D0FFF7CEFEC046BD4617
:1029500080BDC046400100200038014090B591B0D4
:1029600000AF78602C23FB18180014231A000021F4
:1029700002F0FCFE10243B1918001C231A00002151
:1029800002F0F4FE7B681B68234A93423FD13B1957
:1029900001221A603B1900229A603B19180001F0CD
:1029A00077FD031E01D0FFF79FFE1C4B1A6C1B4BDB
:1029B0008021C9010A431A64184B1A6C8023DB0179
:1029C0001340FB60FB68154B5A6B144B01210A4303
:1029D0005A63124B5B6B01221340BB60BB682C2116
:1029E0007B18C022D2001A607B1802225A607B1822
:1029F00000229A607B180022DA607B1801221A619B
:102A00007A18A023DB051100180000F0C1F9C046B8
:102A1000BD4611B090BDC0460038014000100240D4
:102A20000D488546FFF7F2FE002103E00B4B5B5893
:102A3000435004310A480B4B42189A42F6D30A4AD3
:102A400002E0002313600432084B9A42F9D302F0EB
:102A50009BFEFFF77DFDFEE7001800208C6100085B
:102A6000000000205C0000205C000020200300200B
:102A7000FEE780B582B000AFFB1D00221A70032074
:102A800000F00EF8031E03D0FB1D01221A7001E0B6
:102A9000FFF736FEFB1D1B781800BD4602B080BD57
:102AA00090B585B000AF78600F23FB1800221A7034
:102AB0001D4B1B78002B2BD01C4B1C681A4B1B7812
:102AC0001900FA239800FDF731FB030019002000DC
:102AD000FDF72CFB0300180000F04DF9031E12D186
:102AE0007B68032B0AD8796801235B420022180017
:102AF00000F01CF90E4B7A681A600DE00F23FB18EA
:102B000001221A7008E00F23FB1801221A7003E05B
:102B10000F23FB1801221A700F23FB181B781800D3
:102B2000BD4605B090BDC046080000200000002052
:102B30000400002080B500AF054B1B781A00054B40
:102B40001B68D218034B1A60C046BD4680BDC04604
:102B500008000020D401002080B500AF024B1B68A4
:102B60001800BD4680BDC046D401002080B584B0A9
:102B700000AF7860FFF7F0FF0300BB607B68FB608D
:102B8000FB68013305D00A4B1B781A00FB689B18C1
:102B9000FB60C046FFF7E0FF0200BB68D31AFA688B
:102BA0009A42F7D8C046C046BD4604B080BDC04674
:102BB0000800002080B582B000AF7860044B19682F
:102BC000034B7A680A431A60C046BD4602B080BD16
:102BD0000000014080B582B000AF0200FB1D1A70FA
:102BE000FB1D1B787F2B09D8FB1D1B781A001F23A8
:102BF0001A40044B012191400A001A60C046BD46AC
:102C000002B080BD00E100E090B583B000AF0200EB
:102C10003960FB1D1A70FB1D1B787F2B28D82F4AAB
:102C2000FB1D1B785BB29B08C0339B009B58FA1DB1
:102C30001278110003220A40D200FF2191400A00BD
:102C4000D2431A4011003B689B01FF221A40FB1D32
:102C50001B78180003230340DB009A401F48FB1D2C
:102C60001B785BB29B080A43C0339B001A5031E0CB
:102C70001B4AFB1D1B7819000F230B40083B9B08C8
:102C800006339B00D31804331B68FA1D1278110019
:102C900003220A40D200FF2191400A00D2431A4089
:102CA00011003B689B01FF221A40FB1D1B78180096
:102CB00003230340DB009A400948FB1D1B781C00DE
:102CC0000F232340083B9B080A4306339B00C3188D
:102CD00004331A60C046BD4603B090BD00E100E079
:102CE00000ED00E080B582B000AF78607B685A1ECE
:102CF00080235B049A4201D3012310E00A4B7A68D7
:102D0000013A5A6001235B4203211800FFF77CFF60
:102D1000054B00229A60044B07221A60002318001A
:102D2000BD4602B080BDC04610E000E080B584B072
:102D300000AFB9607A600F217B18021C1A70BA6864
:102D40007B181B785BB211001800FFF75DFFC046CF
:102D5000BD4604B080BD80B582B000AF0200FB1D4F
:102D60001A70FB1D1B785BB21800FFF733FFC046DB
:102D7000BD4602B080BD80B582B000AF78607B6890
:102D80001800FFF7AFFF03001800BD4602B080BD7A
:102D900080B586B000AF7860396000233B614DE1BB
:102DA0003B681B6801213A6991400A001340FB60AF
:102DB000FB68002B00D13EE13B685B68022B03D02F
:102DC0003B685B68122B25D13B69DA087B680832C7
:102DD0009200D3587B613B69072213409B000F226E
:102DE0009A401300DA437B6913407B613B681B699F
:102DF0000F221A403B6907210B409B009A401300A9
:102E00007A6913437B613B69DA087B680832920078
:102E10007969D1507B681B687B613B695B00032249
:102E20009A401300DA437B6913407B613B685B681F
:102E300003221A403B695B009A4013007A691343EE
:102E40007B617B687A691A603B685B68012B0BD0F9
:102E50003B685B68022B07D03B685B68112B03D093
:102E60003B685B68122B30D17B689B687B613B6958
:102E70005B0003229A401300DA437B6913407B61B5
:102E80003B68DA683B695B009A4013007A69134338
:102E90007B617B687A699A607B685B687B610122F1
:102EA0003B699A401300DA437B6913407B613B68BE
:102EB0005B681B0901221A403B699A4013007A693A
:102EC00013437B617B687A695A603B685B68032BBC
:102ED00017D07B68DB687B613B695B0003229A400B
:102EE0001300DA437B6913407B613B689A683B6956
:102EF0005B009A4013007A6913437B617B687A69AF
:102F0000DA603B685A6880235B05134000D192E089
:102F1000504A3B699B0818339B009B587B613B6977
:102F200003221340DB000F229A401300DA437B692F
:102F300013407B617A68A023DB059A4213D07B683B
:102F4000454A93420DD07B68444A934207D07B6840
:102F5000434A934201D1052306E0062304E00223FD
:102F600002E0012300E000233A6903210A40D20075
:102F700093407A6913437B6136493B699B08183358
:102F80009B007A695A50334A8023D3587B61FB688F
:102F9000DA437B6913407B613B685A6880235B029C
:102FA000134003D07A69FB6813437B61294980226F
:102FB0007B698B50274A8423D3587B61FB68DA43B3
:102FC0007B6913407B613B685A6880239B021340F6
:102FD00003D07A69FB6813437B611E4984227B69B5
:102FE0008B501C4B1B687B61FB68DA437B69134089
:102FF0007B613B685A6880235B03134003D07A6986
:10300000FB6813437B61134B7A691A60114B5B6851
:103010007B61FB68DA437B6913407B613B685A68DC
:1030200080239B03134003D07A69FB6813437B61C1
:10303000084B7A695A603B6901333B613B681A6807
:103040003B69DA40131E00D0AAE6C046C046BD4622
:1030500006B080BD00180240000400500008005077
:103060000014005080B582B000AF786008001100F5
:10307000BB1C021C1A807B1C0A1C1A707B1C1B7850
:10308000002B04D0BB1C1A887B689A6103E0BB1C30
:103090001A887B689A62C046BD4602B080BD0000B7
:1030A00080B582B000AF78607B68002B01D101232E
:1030B0008FE07B6841229B5CDBB2002B07D17B68F1
:1030C0004022002199547B681800FFF75BF97B6868
:1030D0004122242199547B681B681A687B681B680D
:1030E00001218A431A607B685A687B681B683B49E8
:1030F0000A401A617B681B689A687B681B683849BC
:103100000A409A607B68DB68012B08D17B689A686B
:103110007B681B68802109020A439A6007E07B688C
:103120009A687B681B68842109020A439A607B685D
:10313000DB68022B09D17B681B685A687B681B68B7
:10314000802109010A435A6007E07B681B685A68BE
:103150007B681B6823490A405A607B681B685A6871
:103160007B681B6820490A435A607B681B68DA68E1
:103170007B681B681A490A40DA607B681A697B68B9
:103180005B691A4311007B689B691A027B681B68A4
:103190000A43DA607B68D9697B681A6A7B681B68B6
:1031A0000A431A607B681B681A687B681B680121E8
:1031B0000A431A607B6800225A647B6841222021FE
:1031C00099547B6800221A637B684222002199543B
:1031D00000231800BD4602B080BDC046FFFFFFF0CF
:1031E000FF7FFFFFFFF7FFFF0080000290B589B06F
:1031F00002AFF8600C00100019000A23FB18221C13
:103200001A800823FB18021C1A80BB1D0A1C1A8096
:10321000FB6841229B5CDBB2202B00D00CE1BB6A37
:10322000002B04D02C23FB181B88002B05D1FB6836
:10323000802292005A640123FFE0FB6840229B5CDD
:10324000012B01D10223F8E0FB68402201219954AF
:10325000FFF782FC03007B6180231902F8687B6919
:1032600000931923012200F00BFB031E01D0012360
:10327000E3E0FB68412221219954FB68422240216E
:103280009954FB6800225A64FB68BA6A5A62FB6868
:103290002C22BA1812885A85FB6800225A63BB1D7B
:1032A0001C880823FB181A880A23FB181988F86859
:1032B0007B6901933B6B0093230000F0F9F9031E37
:1032C00005D0FB684022002199540123B5E0FB683A
:1032D0005B8D9BB2FF2B11D9FB68FF221A85FB681F
:1032E0001B8DDAB280235C040A23FB181988F86866
:1032F00000230093230000F09DFC12E0FB685B8D2F
:103300009AB2FB681A85FB681B8DDAB280239C0495
:103310000A23FB181988F86800230093230000F0A3
:1033200089FC7A69396BFB68180000F001FB031E09
:1033300001D0012381E0FB685B6A1A78FB681B6897
:103340009A62FB685B6A5A1CFB685A62FB685B8D79
:103350009BB2013B9AB2FB685A85FB681B8D013B0F
:103360009AB2FB681A85FB685B8D9BB2002B3AD042
:10337000FB681B8D002B36D13A6BF8687B69009394
:1033800013000022802100F07BFA031E01D00123EC
:1033900053E0FB685B8D9BB2FF2B11D9FB68FF22CA
:1033A0001A85FB681B8DDAB280235C040A23FB18A4
:1033B0001988F86800230093230000F03BFC12E01A
:1033C000FB685B8D9AB2FB681A85FB681B8DDAB2CD
:1033D00080239C040A23FB181988F86800230093B3
:1033E000230000F027FCFB685B8D9BB2002B98D17B
:1033F0007A69396BFB68180000F0E0FA031E01D00F
:1034000001231AE0FB681B682022DA61FB681B6855
:103410005A68FB681B680B490A405A60FB684122E6
:1034200020219954FB68422200219954FB684022D4
:1034300000219954002300E002231800BD4607B084
:1034400090BDC04600E800FE90B589B002AFF860BC
:103450000C00100019000A23FB18221C1A800823F4
:10346000FB18021C1A80BB1D0A1C1A80FB68412233
:103470009B5CDBB2202B00D010E1BB6A002B04D098
:103480002C23FB181B88002B05D1FB68802292009F
:103490005A64012303E1FB6840229B5C012B01D1AC
:1034A0000223FCE0FB68402201219954FFF754FB02
:1034B00003007B6180231902F8687B69009319235C
:1034C000012200F0DDF9031E01D00123E7E0FB68D3
:1034D000412222219954FB68422240219954FB68E1
:1034E00000225A64FB68BA6A5A62FB682C22BA1836
:1034F00012885A85FB6800225A63BB1D1C8808236A
:10350000FB181A880A23FB181988F8687B6901934D
:103510003B6B0093230000F02FF9031E05D0FB68DE
:103520004022002199540123B9E0FB685B8D9BB2D6
:10353000FF2B11D9FB68FF221A85FB681B8DDAB2BD
:1035400080235C040A23FB181988F868564B009303
:10355000230000F06FFB12E0FB685B8D9AB2FB6802
:103560001A85FB681B8DDAB280239C040A23FB18A2
:103570001988F8684C4B0093230000F05BFB3A6B12
:10358000F8687B69009313000022042100F078F9A9
:10359000031E01D0012382E0FB681B685A6AFB68A6
:1035A0005B6AD2B21A70FB685B6A5A1CFB685A628B
:1035B000FB681B8D013B9AB2FB681A85FB685B8D2B
:1035C0009BB2013B9AB2FB685A85FB685B8D9BB24C
:1035D000002B3AD0FB681B8D002B36D13A6BF86874
:1035E0007B69009313000022802100F049F9031E3B
:1035F00001D0012353E0FB685B8D9BB2FF2B11D9F7
:10360000FB68FF221A85FB681B8DDAB280235C04FD
:103610000A23FB181988F86800230093230000F0A0
:1036200009FB12E0FB685B8D9AB2FB681A85FB68A8
:103630001B8DDAB280239C040A23FB181988F868D2
:1036400000230093230000F0F5FAFB685B8D9BB22A
:10365000002B94D17A69396BFB68180000F0AEF941
:10366000031E01D001231AE0FB681B682022DA61E7
:10367000FB681B685A68FB681B680C490A405A6063
:10368000FB68412220219954FB6842220021995471
:10369000FB68402200219954002300E00223180017
:1036A000BD4607B090BDC0460024008000E800FE83
:1036B000B0B586B002AFF8600C00100019000A2502
:1036C0007B19221C1A800823FB18021C1A80BB1DC0
:1036D0000A1C1A80BB1D1B88DAB280235C047B198C
:1036E0001988F868234B0093230000F0A3FA7A6A44
:1036F000396AFB68180000F01BF9031E01D0012392
:1037000033E0BB1D1B88012B07D10823FB181B8846
:10371000DAB2FB681B689A6219E00823FB181B8861
:103720001B0A9BB2DAB2FB681B689A627A6A396A32
:10373000FB68180000F0FCF8031E01D0012314E020
:103740000823FB181B88DAB2FB681B689A623A6A86
:10375000F8687B6A009313000022802100F090F843
:10376000031E01D0012300E000231800BD4604B071
:10377000B0BDC04600200080B0B586B002AFF86092
:103780000C00100019000A257B19221C1A8008233E
:10379000FB18021C1A80BB1D0A1C1A80BB1D1B884B
:1037A000DAB27B191988F868234B0093002300F0E4
:1037B00041FA7A6A396AFB68180000F0B9F8031E0A
:1037C00001D0012333E0BB1D1B88012B07D1082347
:1037D000FB181B88DAB2FB681B689A6219E00823A1
:1037E000FB181B881B0A9BB2DAB2FB681B689A6243
:1037F0007A6A396AFB68180000F09AF8031E01D053
:10380000012314E00823FB181B88DAB2FB681B684D
:103810009A623A6AF8687B6A00931300002240219A
:1038200000F02EF8031E01D0012300E00023180051
:10383000BD4604B0B0BDC0460020008080B582B057
:1038400000AF78607B681B689B6902221340022BE3
:1038500003D17B681B6800229A627B681B689B69A6
:1038600001221340012B07D07B681B689A697B6893
:103870001B6801210A439A61C046BD4602B080BD63
:1038800080B584B000AFF860B9603B60FB1D1A7072
:103890003AE0BA693968FB68180000F0D3F8031EF3
:1038A00001D0012340E03B6801332DD0FFF754F9EC
:1038B0000200BB69D31A3A689A4202D33B68002BD4
:1038C00022D1FB681B689B69BA681340BA68D31A97
:1038D0005A425341DBB21A00FB1D1B789A4213D1A6
:1038E000FB685B6C20221A43FB685A64FB68412228
:1038F00020219954FB68422200219954FB68402200
:103900000021995401230FE0FB681B689B69BA688A
:103910001340BA68D31A5A425341DBB21A00FB1D56
:103920001B789A42B5D000231800BD4604B080BD74
:1039300080B584B000AFF860B9607A6032E07A6830
:10394000B968FB68180000F07DF8031E01D0012360
:1039500030E0BB68013325D0FFF7FEF802007B683A
:10396000D31ABA689A4202D3BB68002B1AD1FB68FB
:103970001B689B6902221340022B13D0FB685B6C0F
:1039800020221A43FB685A64FB6841222021995483
:10399000FB68422200219954FB684022002199547F
:1039A000012307E0FB681B689B6902221340022B7E
:1039B000C5D100231800BD4604B080BD80B584B0D9
:1039C00000AFF860B9607A602FE07A68B968FB6888
:1039D000180000F037F8031E01D001232DE0FFF797
:1039E000BBF802007B68D31ABA689A4202D3BB685C
:1039F000002B1AD1FB681B689B6920221340202BE7
:103A000013D0FB685B6C20221A43FB685A64FB6886
:103A1000412220219954FB68422200219954FB68DD
:103A2000402200219954012307E0FB681B689B6931
:103A300020221340202BC8D100231800BD4604B01B
:103A400080BD000080B58AB000AFF860B9607A60D0
:103A50002723FB1800221A70FB681B689B69BB6157
:103A600000233B627B68FB61BB691022134000D1DD
:103A700079E0FB681B681022DA6157E02722BB1847
:103A8000BA1812781A70BB6801334FD0FFF764F888
:103A90000200FB69D31ABA689A4202D3BB68002BB2
:103AA00044D1FB681B685A688023DB0113407B61AB
:103AB00013203B18FA684221525C1A70FB681B689D
:103AC0009A6980231B021A4080231B029A4226D146
:103AD0007A698023DB019A4221D03B181B78202B86
:103AE0001DD0FB681B685A68FB681B688021C901F0
:103AF0000A435A60FFF730F80300FB610FE0FFF75D
:103B00002BF80200FB69D31A192B08D93B6A202233
:103B100013433B622723FB1801221A7006E0FB685F
:103B20001B689B6920221340202BE8D1FB681B688F
:103B30009B6920221340202B04D02723FB181B78DD
:103B4000002B9BD02723FB181B78002B03D1FB688D
:103B50001B682022DA613B6A042213433B6227235D
:103B6000FB1801221A70FB681B689B69BB61BA696C
:103B700080235B0013400CD03B6A012213433B625D
:103B8000FB681B6880225200DA612723FB180122A0
:103B90001A70BA698023DB0013400CD03B6A0822FC
:103BA00013433B62FB681B688022D200DA61272343
:103BB000FB1801221A70BA6980239B0013400CD0B5
:103BC0003B6A022213433B62FB681B68802292001F
:103BD000DA612723FB1801221A702723FB181B78B0
:103BE000002B1DD0FB681800FFF728FEFB681B6840
:103BF0005A68FB681B680E490A405A60FB685A6C99
:103C00003B6A1A43FB685A64FB684122202199549D
:103C1000FB68422200219954FB68402200219954FC
:103C20002723FB181B781800BD460AB080BDC0468C
:103C300000E800FE90B587B000AFF8600800110002
:103C40007B600A243B19021C1A8009203B180A1CBD
:103C50001A703B191B889B059A0D3B181B78190499
:103C6000FF231B040B401A437B681A43BB6A1343B0
:103C70005B005B087B61FB681B685B68BA6A510D7F
:103C80008022D2000A4007490A43D2431A40110059
:103C9000FB681B687A690A435A60C046BD4607B094
:103CA00090BDC046FF63FF0380B582B000AF78606F
:103CB00039607B6841229B5CDBB2202B38D17B686A
:103CC00040229B5C012B01D1022332E07B68402221
:103CD000012199547B684122242199547B681B68F7
:103CE0001A687B681B6801218A431A607B681B681D
:103CF0001A687B681B6811490A401A607B681B6858
:103D000019687B681B683A680A431A607B681B68FD
:103D10001A687B681B6801210A431A607B6841228C
:103D2000202199547B68402200219954002300E00F
:103D300002231800BD4602B080BDC046FFEFFFFF62
:103D400080B584B000AF786039607B6841229B5CAD
:103D5000DBB2202B39D17B6840229B5C012B01D147
:103D6000022333E07B684022012199547B68412281
:103D7000242199547B681B681A687B681B680121A1
:103D80008A431A607B681B681B68FB60FB68114AEA
:103D90001340FB603B681B02FA681343FB607B68BF
:103DA0001B68FA681A607B681B681A687B681B6866
:103DB00001210A431A607B684122202199547B68C3
:103DC000402200219954002300E002231800BD4640
:103DD00004B080BDFFF0FFFF80B586B000AF786013
:103DE0007B68002B01D10123D0E17B681B68012295
:103DF000134000D169E0C84B9B68382213407B61B7
:103E00007B69082B05D17B685B68002B5DD10123A2
:103E1000BCE17B685A6880235B029A4207D1BE4BA3
:103E20001A68BD4B802149020A431A6020E07B6872
:103E30005A68A023DB029A420ED1B74B1A68B64BE0
:103E40008021C9020A431A60B34B1A68B24B802121
:103E500049020A431A600BE0AF4B1A68AE4BAF49F8
:103E60000A401A60AC4B1A68AB4BAD490A401A6065
:103E70007B685B68002B14D0FEF76EFE03003B618D
:103E800008E0FEF769FE02003B69D31A642B01D9F2
:103E900003237BE1A04B1A6880239B021340F0D0E0
:103EA00013E0FEF759FE03003B6108E0FEF754FE05
:103EB00002003B69D31A642B01D9032366E1964BB8
:103EC0001A6880239B021340F0D17B681B68022292
:103ED000134000D186E0904B9B68382213407B61F1
:103EE0007B69002B2FD17B68DB68002B01D101237C
:103EF0004CE1894B5B688B4A134019007B685B6916
:103F00001A02854B0A435A607B69002B12D1824BFF
:103F10001B68854A134019007B681A697E4B0A4367
:103F20001A607D4B1B68DB0A072213407F4ADA4088
:103F30007F4B1A607F4B1B681800FEF7B1FD031E14
:103F400050D0012322E17B68DB68002B30D0724B1C
:103F50001B68754A134019007B681A696E4B0A4347
:103F60001A606D4B1A686C4B802149000A431A6035
:103F7000FEF7F2FD03003B6108E0FEF7EDFD0200F5
:103F80003B69D31A022B01D90323FFE0624B1A6865
:103F90008023DB001340F0D05F4B5B68614A134025
:103FA00019007B685B691A025B4B0A435A6019E08F
:103FB000594B1A68584B60490A401A60FEF7CCFD0D
:103FC00003003B6108E0FEF7C7FD02003B69D31A1E
:103FD000022B01D90323D9E04F4B1A688023DB0061
:103FE0001340F0D17B681B680822134042D04A4B33
:103FF0009B6838221340182B05D17B689B69002BE6
:1040000038D10123C2E07B689B69002B19D0424B59
:104010001A6E414B01210A431A66FEF79DFD03000B
:104020003B6108E0FEF798FD02003B69D31A022BC2
:1040300001D90323AAE0384B1B6E02221340F1D0B2
:1040400018E0354B1A6E344B01218A431A66FEF78D
:1040500083FD03003B6108E0FEF77EFD02003B6943
:10406000D31A022B01D9032390E02B4B1B6E0222A3
:104070001340F1D17B681B680422134000D184E017
:104080000F23FB1800221A70234B9B683822134021
:10409000202B06D17B689B68002B00D075E00123A4
:1040A00074E07B689B68012B06D11B4BDA6D1A4BC1
:1040B00001210A43DA651CE07B689B68052B0CD163
:1040C000154BDA6D144B04210A43DA65124BDA6D95
:1040D000114B01210A43DA650BE00F4BDA6D0E4BF1
:1040E00001218A43DA650C4BDA6D0B4B04218A43BC
:1040F000DA657B689B68002B28D0FEF72DFD030056
:104100003B611DE0FEF728FD02003B69D31A0B4A14
:10411000934215D9032339E000100240FFFFFEFF50
:10412000FFFFFBFFFF80FFFFFFC7FFFF006CDC020C
:104130000000002004000020FFFEFFFF88130000A5
:10414000144BDB6D02221340DCD013E0FEF704FDBC
:1041500003003B6109E0FEF7FFFC02003B69D31A54
:104160000D4A934201D9032310E00A4BDB6D022272
:104170001340F0D10F23FB181B78012B05D1054B01
:10418000DA6B044B05490A40DA6300231800BD4688
:1041900006B080BD0010024088130000FFFFFFEF53
:1041A00080B584B000AF786039607B68002B01D1A6
:1041B0000123DFE0714B1B68072213403A689A42E3
:1041C0001ED96E4B1B680722934319006B4B3A684C
:1041D0000A431A60FEF7C0FC0300FB6009E0FEF72B
:1041E000BBFC0200FB68D31A654A934201D9032342
:1041F000C0E0624B1B68072213403A689A42EED136
:104200007B681B680222134017D07B681B6804225E
:10421000134008D05B4B9B685B4A1A40594BB02156
:1042200009010A439A60574B9B68584A134019008A
:104230007B68DA68534B0A439A607B681B680122EB
:1042400013404BD07B685B68012B07D14D4B1A683C
:1042500080239B0213401FD101238BE07B685B68A6
:10426000002B07D1474B1A688023DB00134013D182
:1042700001237FE07B685B68032B06D1414B1B6EFB
:104280000222134008D1012374E03E4BDB6D022271
:10429000134001D101236DE03A4B9B680722934301
:1042A00019007B685A68374B0A439A60FEF754FC42
:1042B0000300FB6009E0FEF74FFC0200FB68D31A25
:1042C0002F4A934201D9032354E02E4B9B68382296
:1042D0001A407B685B68DB009A42ECD1274B1B6875
:1042E000072213403A689A421ED2244B1B680722C9
:1042F00093431900214B3A680A431A60FEF72CFCDD
:104300000300FB6009E0FEF727FC0200FB68D31AFC
:104310001B4A934201D903232CE0184B1B68072248
:1043200013403A689A42EED17B681B68042213401E
:1043300009D0144B9B68164A134019007B681A6910
:10434000104B0A439A6000F02BF801000D4B9B685C
:104350001B0A0F221A400F4B9200D3581F22134002
:104360000A00DA400C4B1A600C4B1B681800FEF771
:1043700097FB03001800BD4604B080BD002002403A
:104380008813000000100240FF84FFFFFFF0FFFFD2
:10439000FF8FFFFFC860000800000020040000201D
:1043A00080B582B000AF1C4B9B68382213400FD100
:1043B000194B1B68DB0A0722134001229A401300A5
:1043C0003B6039681548FBF7B1FE03007B601EE0D7
:1043D000114B9B6838221340082B02D1104B7B6095
:1043E00015E00D4B9B6838221340202B03D180230E
:1043F0001B027B600BE0084B9B6838221340182B94
:1044000003D1FA23DB017B6001E000237B607B6842
:104410001800BD4602B080BD00100240006CDC02F6
:1044200000127A0080B500AFFFF7BAFF0100094B18
:104430009B681B0A0F221A40074B9200D3581F2279
:1044400013400A00DA40054B1A60044B1B68180041
:10445000BD4680BD00100240C8600008000000207A
:1044600080B500AFFFF7DEFF0100074B9B681B0B19
:1044700007221A40054B9200D3581F221340D940FF
:104480000B001800BD4680BD001002400861000806
:1044900080B586B000AF78601323FB1800221A7035
:1044A0001223FB1800221A707B681B6840221340FD
:1044B00000D179E011203B1800221A70634BDA6BAF
:1044C00080235B05134010D1604BDA6B5F4B80217A
:1044D00049050A43DA635D4BDA6B80235B051340C1
:1044E000BB60BB683B1801221A70584BDA6DC023C1
:1044F0009B0013407B617B69002B19D07B689B6913
:104500007A699A4214D0514BDB6D514A13407B615A
:104510004E4BDA6D4D4B802149020A43DA654B4B15
:10452000DA6D4A4B4B490A40DA65484B7A69DA65DD
:104530007B690122134016D0FEF70EFB0300FB60DF
:104540000CE0FEF709FB0200FB68D31A424A9342D3
:1045500004D91323FB1803221A7004E03B4BDB6DD4
:1045600002221340EDD01323FB181B78002B0AD135
:10457000364BDB6D364A134019007B689A69334B22
:104580000A43DA6505E01223FB181322BA181278E1
:104590001A701123FB181B78012B05D12B4BDA6BFA
:1045A0002A4B2E490A40DA637B681B6801221340BC
:1045B00009D0264B5B6D0322934319007B689A68F0
:1045C000224B0A435A657B681B680222134009D0BC
:1045D0001E4B5B6D224A134019007B68DA681B4B47
:1045E0000A435A657B681B682022134008D0174B8A
:1045F0005B6D9B0099087B685A69144B0A435A65A6
:104600007B681B680422134009D0104B5B6D154A70
:10461000134019007B681A690C4B0A435A657B6882
:104620001B688022134009D0084B1B68E02293438B
:1046300019007B685A68054B0A431A601223FB185D
:104640001B781800BD4606B080BDC0460010024071
:10465000FFFCFFFFFFFFFEFF88130000FFFFFFEFDF
:10466000FFCFFFFFFF3FFFFF80B582B000AF786054
:104670007B68002B01D101234AE07B683D229B5CD3
:10468000DBB2002B07D17B683C22002199547B6868
:104690001800FEF7EDF87B683D22022199547B68F3
:1046A0001A687B6804331900100000F0D9F97B68A0
:1046B0004822012199547B683E22012199547B684C
:1046C0003F22012199547B684022012199547B6843
:1046D0004122012199547B684222012199547B682F
:1046E0004322012199547B684422012199547B681B
:1046F0004522012199547B684622012199547B6807
:104700004722012199547B683D22012199540023BD
:104710001800BD4602B080BD80B584B000AF78609F
:104720007B683D229B5CDBB2012B01D0012337E08B
:104730007B683D22022199547B681B68DA687B689C
:104740001B6801210A43DA607B681B68164A9342A2
:1047500004D07B681B68154A934216D17B681B689E
:104760009B68134A1340FB60FB68062B16D0FA685F
:1047700080235B029A4211D07B681B681A687B68B1
:104780001B6801210A431A6008E07B681B681A68ED
:104790007B681B6801210A431A6000E0C0460023C1
:1047A0001800BD4604B080BD002C0140000400404C
:1047B0000700010080B582B000AF78607B681B689D
:1047C000DA687B681B6801218A43DA607B681B68B2
:1047D0001B6A0D4A13400DD17B681B681B6A0B4A8C
:1047E000134007D17B681B681A687B681B6801212E
:1047F0008A431A607B683D220121995400231800E6
:10480000BD4602B080BDC046111100004404000046
:1048100080B584B000AF78607B681B68DB68FB60A4
:104820007B681B681B69BB60BB680222134021D0F8
:10483000FB68022213401DD07B681B680322524292
:104840001A617B6801221A777B681B689B690322C7
:10485000134004D07B68180000F0EAF807E07B689A
:10486000180000F0DDF87B68180000F0E9F87B68BC
:1048700000221A77BB680422134022D0FB6804226E
:1048800013401ED07B681B68052252421A617B6868
:1048900002221A777B681B689A69C0239B00134029
:1048A00004D07B68180000F0C3F807E07B681800AC
:1048B00000F0B6F87B68180000F0C2F87B680022B0
:1048C0001A77BB680822134021D0FB6808221340E6
:1048D0001DD07B681B68092252421A617B68042242
:1048E0001A777B681B68DB690322134004D07B685E
:1048F000180000F09DF807E07B68180000F090F8C1
:104900007B68180000F09CF87B6800221A77BB686F
:104910001022134022D0FB68102213401ED07B6867
:104920001B68112252421A617B6808221A777B6841
:104930001B68DA69C0239B00134004D07B68180011
:1049400000F076F807E07B68180000F069F87B68F3
:10495000180000F075F87B6800221A77BB68012206
:1049600013400CD0FB680122134008D07B681B6801
:10497000022252421A617B681800FDF76FFEBB6885
:104980008022134004D1BA6880239B0113400BD0CE
:10499000FB688022134007D07B681B681E4A1A619F
:1049A0007B68180000F0D6F8BA6880235B001340DB
:1049B0000BD0FB688022134007D07B681B68174A26
:1049C0001A617B68180000F0CDF8BB6840221340E4
:1049D0000CD0FB684022134008D07B681B68412242
:1049E00052421A617B68180000F032F8BB6820223E
:1049F00013400CD0FB682022134008D07B681B6852
:104A0000212252421A617B68180000F09BF8C046D0
:104A1000BD4604B080BDC0467FDFFFFFFFFEFFFF45
:104A200080B582B000AF7860C046BD4602B080BDA0
:104A300080B582B000AF7860C046BD4602B080BD90
:104A400080B582B000AF7860C046BD4602B080BD80
:104A500080B582B000AF7860C046BD4602B080BD70
:104A600080B584B000AF786039607B681B68FB60FC
:104A70007B682E4A934203D07B682D4A934208D12B
:104A8000FB6870229343FB603B685B68FA681343E2
:104A9000FB607B68254A93420FD07B68244A93428F
:104AA0000BD07B68234A934207D07B68224A93420B
:104AB00003D07B68214A934208D1FB68204A134007
:104AC000FB603B68DB68FA681343FB60FB6880228D
:104AD00093431A003B685B691343FB603B689A6829
:104AE0007B68DA623B681A687B689A627B680F4A67
:104AF000934207D07B68104A934203D07B680F4AE9
:104B0000934203D13B681A697B681A637B681B6810
:104B100004221A437B681A607B6801225A617B6811
:104B2000FA681A60C046BD4604B080BD002C014042
:104B300000040040002000400044014000480140C3
:104B4000FFFCFFFF80B582B000AF7860C046BD4675
:104B500002B080BD80B582B000AF7860C046BD466F
:104B600002B080BD80B582B000AF7860C046BD465F
:104B700002B080BD80B582B000AF78607B68002B4A
:104B800001D1012346E07B6888229B58002B07D186
:104B90007B688422002199547B681800FDF7DEFEB3
:104BA0007B688822242199507B681B681A687B687F
:104BB0001B6801218A431A607B689B6A002B03D023
:104BC0007B68180000F04EFA7B68180000F0CCF803
:104BD0000300012B01D101231CE07B681B685A688C
:104BE0007B681B680D490A405A607B681B689A689D
:104BF0007B681B682A218A439A607B681B681A6855
:104C00007B681B6801210A431A607B68180000F06A
:104C1000DDFA03001800BD4602B080BDFFB7FFFFFC
:104C200080B58AB002AFF860B9603B60BB1D1A80E6
:104C3000FB6888229B58202B00D090E0BB68002B9B
:104C400003D0BB1D1B88002B01D1012388E0FB682A
:104C50009A6880235B019A4209D1FB681B69002B8B
:104C600005D1BB680122134001D0012378E0FB6825
:104C7000902200219950FB68882221219950FDF74C
:104C80006BFF03007B61FB68BA1D542112885A52E6
:104C9000FB68BA1D562112885A52FB689A68802315
:104CA0005B019A4208D1FB681B69002B04D10023E9
:104CB000FB61BB68BB6103E0BB68FB610023BB61B8
:104CC00030E07A69F8683B68009313000022802185
:104CD00000F026FB031E05D0FB6888222021995096
:104CE00003233DE0FB69002B0BD1BB691B881A0035
:104CF000FB681B68D205D20D9A62BB690233BB61A7
:104D000007E0FB691A78FB681B689A62FB6901334C
:104D1000FB61FB6856229B5A9BB2013B99B2FB6830
:104D200056229952FB6856229B5A9BB2002BC8D13F
:104D30007A69F8683B68009313000022402100F074
:104D4000EFFA031E05D0FB68882220219950032327
:104D500006E0FB68882220219950002300E002230E
:104D60001800BD4608B080BD80B588B000AF78603F
:104D70001E23FB1800221A707B689A687B681B69E7
:104D80001A437B685B691A437B68DB6913437B6169
:104D90007B681B681B68AB4A134019007B681B6863
:104DA0007A690A431A607B681B685B68A64A1340ED
:104DB00019007B68DA687B681B680A435A607B6865
:104DC0009B697B617B681B6A7A6913437B617B68A3
:104DD0001B689B689D4A134019007B681B687A69B1
:104DE0000A439A607B681B68DB6A0F2293431900B1
:104DF0007B685A6A7B681B680A43DA627B681B68B7
:104E0000934A934227D1934B5B6D03221340032BAC
:104E100017D01BD8022B0AD018D8002B02D0012B98
:104E20000AD013E01F23FB1800221A7021E01F2371
:104E3000FB1802221A701CE01F23FB1804221A70B0
:104E400017E01F23FB1808221A7012E01F23FB181B
:104E500010221A700DE07B681B687F4A934204D1D0
:104E60001F23FB1800221A7003E01F23FB181022D7
:104E70001A707B68DA6980231B029A4200D06FE0C7
:104E80001F23FB181B78082B1FD022DC042B17D004
:104E90001FDC002B02D0022B05D01AE0FFF7E0FA4E
:104EA0000300BB611CE06B4B1B685B0907221340CE
:104EB000013319006948FBF739F90300BB610FE0C2
:104EC000FFF76EFA0300BB610AE080231B02BB619F
:104ED00006E00023BB611E23FB1801221A70C046A6
:104EE000BB69002B00D197E07B685A6A5C4B52008B
:104EF000D35A1900B869FBF719F903005A007B6807
:104F00005B685B08D2187B685B6819001000FBF7D0
:104F10000DF903003B613B690F2B1CD93A698023D3
:104F20005B029A4217D23B699AB20E203B180F21BE
:104F30008A431A803B695B089BB20722134099B2EF
:104F40003B183A1812880A431A807B681B683A1883
:104F50001288DA6060E01E23FB1801221A705BE001
:104F60001F23FB181B78082B1FD022DC042B17D023
:104F70001FDC002B02D0022B05D01AE0FFF770FADD
:104F80000300BB611CE0334B1B685B090722134025
:104F9000013319003148FBF7C9F80300BB610FE08A
:104FA000FFF7FEF90300BB610AE080231B02BB612F
:104FB00006E00023BB611E23FB1801221A70C046C5
:104FC000BB69002B28D07B685A6A254B5200D35A04
:104FD0001900B869FBF7AAF803001A007B685B6840
:104FE0005B08D2187B685B6819001000FBF79EF81D
:104FF00003003B613B690F2B0AD93A6980235B02AE
:105000009A4205D23B699AB27B681B68DA6003E07A
:105010001E23FB1801221A707B686A220121995213
:105020007B686822012199527B6800225A677B685D
:1050300000229A671E23FB181B781800BD4608B093
:1050400080BDC046F369FFCFFFCFFFFFFFF4FF1124
:10505000003801400010024000440040006CDC02B7
:105060002861000880B582B000AF78607B689B6AD9
:10507000082213400BD07B681B685B684A4A1340C8
:1050800019007B689A6B7B681B680A435A607B68CF
:105090009B6A012213400BD07B681B685B68434A04
:1050A000134019007B68DA6A7B681B680A435A6000
:1050B0007B689B6A022213400BD07B681B685B688D
:1050C0003B4A134019007B681A6B7B681B680A43D4
:1050D0005A607B689B6A042213400BD07B681B6874
:1050E0005B68344A134019007B685A6B7B681B6805
:1050F0000A435A607B689B6A102213400BD07B687E
:105100001B689B682C4A134019007B68DA6B7B682C
:105110001B680A439A607B689B6A202213400BD06D
:105120007B681B689B68254A134019007B681A6CD2
:105130007B681B680A439A607B689B6A4022134025
:105140001DD07B681B685B681D4A134019007B6893
:105150005A6C7B681B680A435A607B685A6C8023D0
:105160005B039A420BD17B681B685B68154A13404E
:1051700019007B689A6C7B681B680A435A607B68DD
:105180009B6A802213400BD07B681B685B680E4AC9
:10519000134019007B68DA6C7B681B680A435A600D
:1051A000C046BD4602B080BDFF7FFFFFFFFFFDFF91
:1051B000FFFFFEFFFFFFFBFFFFEFFFFFFFDFFFFF34
:1051C000FFFFEFFFFFFF9FFFFFFFF7FF80B592B0EC
:1051D00002AF78607B68902200219950FDF7BCFCFB
:1051E0000300FB637B681B681B6808221340082BC5
:1051F0002DD1FB6B802291037868474A00920022F0
:1052000000F08EF8031E22D0EFF310837B627B6ADE
:10521000BB630123BB62BB6A83F31088C0467B6813
:105220001B681A687B681B6880218A431A60BB6B05
:10523000FB62FB6A83F31088C0467B6888222021CA
:1052400099507B68842200219954032360E07B6895
:105250001B681B6804221340042B46D1FB6B802281
:10526000D10378682C4A0092002200F059F8031EFE
:105270003BD0EFF31083FB60FB687B6301233B6152
:105280003B6983F31088C0467B681B681A687B689B
:105290001B6822490A401A607B6B7B617B6983F340
:1052A0001088C046EFF31083BB61BB693B630123E9
:1052B000FB61FB6983F31088C0467B681B689A68B2
:1052C0007B681B6801218A439A603B6B3B623B6AA7
:1052D00083F31088C0467B688C22202199507B681C
:1052E000842200219954032312E07B688822202124
:1052F00099507B688C22202199507B680022DA66C5
:105300007B6800221A677B6884220021995400235D
:105310001800BD4610B080BDFFFFFF01DFFEFFFF9C
:1053200080B584B000AFF860B9603B60FB1D1A70B7
:1053300051E0BB6901334ED0FDF70EFC02003B6823
:10534000D31ABA699A4202D3BB69002B01D1032355
:1053500051E0FB681B681B68042213403BD0BB680C
:10536000802B38D0BB68402B35D0FB681B68DB69CD
:1053700008221340082B11D1FB681B6808221A620F
:10538000FB68180000F03CF8FB6890220821995057
:10539000FB6884220021995401232CE0FB681B68E0
:1053A000DA6980231B011A4080231B019A4212D123
:1053B000FB681B68802212011A62FB68180000F06B
:1053C0001FF8FB68902220219950FB68842200215D
:1053D000995403230FE0FB681B68DB69BA6813402C
:1053E000BA68D31A5A425341DBB21A00FB1D1B782C
:1053F0009A429ED000231800BD4604B080BD000034
:1054000080B58EB000AF7860EFF310837B617B696D
:105410007B630123BB61BB6983F31088C0467B6853
:105420001B681A687B681B6826490A401A607B6BF8
:10543000FB61FB6983F31088C046EFF310833B6286
:105440003B6A3B6301237B627B6A83F31088C0461F
:105450007B681B689A687B681B681B490A409A60D6
:105460003B6BBB62BB6A83F31088C0467B68DB6E14
:10547000012B18D1EFF31083BB60BB68FB620123E3
:10548000FB60FB6883F31088C0467B681B681A6862
:105490007B681B6810218A431A60FB6A3B613B6989
:1054A00083F31088C0467B688C22202199507B684A
:1054B0000022DA667B6800225A67C046BD460EB0FD
:1054C00080BDC046DFFEFFFFFEFFFFEF80B584B06A
:1054D00000AF78607B6884229B5C012B01D10223A2
:1054E00027E07B688422012199547B68882224214B
:1054F00099507B681B681B68FB607B681B681A6897
:105500007B681B6801218A431A60FB680B4A1340C1
:10551000FB607B6800225A667B681B68FA681A6029
:105520007B688822202199507B688422002199542D
:1055300000231800BD4604B080BDC046FFFFFFDF5A
:1055400080B584B000AF786039607B6884229B5C52
:10555000012B01D102232EE07B6884220121995482
:105560007B688822242199507B681B681B68FB603C
:105570007B681B681A687B681B6801218A431A6074
:105580007B681B689B68DB00D9087B681B683A68EE
:105590000A439A607B68180000F054F87B681B6827
:1055A000FA681A607B688822202199507B688422DF
:1055B0000021995400231800BD4604B080BD0000AE
:1055C00080B584B000AF786039607B6884229B5CD2
:1055D000012B01D102232FE07B6884220121995401
:1055E0007B688822242199507B681B681B68FB60BC
:1055F0007B681B681A687B681B6801218A431A60F4
:105600007B681B689B680E4A134019007B681B6807
:105610003A680A439A607B68180000F013F87B68C8
:105620001B68FA681A607B688822202199507B6881
:1056300084220021995400231800BD4604B080BD87
:10564000FFFFFFF1F0B585B000AF78607B685B6E5F
:10565000002B08D17B686A22012199527B6868225D
:105660000121995243E00F26BB1908221A700E201F
:105670003B1808221A707B681B689B685B0EDAB2C5
:105680000D243B1907210A401A707B681B689B6830
:105690005B0FDAB20C257B1907210A401A703B1800
:1056A0001B787A19127814498A5C5A4310007B19C6
:1056B0001B78124AD35C1900FAF7C2FD030099B2B5
:1056C0007B686A229952BB191B783A1912780A49E9
:1056D0008A5C5A4310003B191B78084AD35C1900B6
:1056E000FAF7AEFD030099B27B6868229952C04672
:1056F000BD4605B0F0BDC0464061000848610008E5
:105700000CB430B5184B0C001D689DB0002908DAA8
:105710008B2301202B6040421DB030BC08BC02B07E
:10572000184782236A469B009382002302901B93B2
:105730000690994200D04B1E0493079301236A46BA
:105740005B42D382280021AB209A02A9019300F08A
:105750009DF9431C01DA8B232B60002CDCD0002246
:10576000029B1A70D8E7C0460C0000200300821884
:10577000934200D1704719700133F9E7014B186863
:105780007047C0460C00002070B500260C4C0D4D33
:10579000641BA410A64209D1002600F061FC0A4C4B
:1057A0000A4D641BA410A64205D170BDB300EB588E
:1057B00098470136EEE7B300EB5898470136F2E719
:1057C0008461000884610008886100088461000821
:1057D0007047704770B505000C1E10D0043C23685C
:1057E000002B00DAE418280000F0E0F81D4A1368E6
:1057F000002B05D163601460280000F0DFF870BD55
:10580000A34208D9206821188B42F3D119685B683C
:1058100009182160EEE71A005B68002B01D0A34253
:10582000F9D911685018A0420BD1206809185018F6
:1058300011608342E0D118685B68411811605360C1
:10584000DAE7A04202D90C232B60D5E720682118A3
:105850008B4203D119685B6809182160636054604A
:10586000CAE7C0461C03002070B50F4E0D0031681A
:105870000400002902D100F095FB306029002000CF
:1058800000F090FB431C03D101256D42280070BD40
:105890000323C51C9D43A842F8D0291A200000F01C
:1058A00081FB0130F2D1EFE718030020F7B50322A6
:1058B000CB1C9343083305001F000C2B34D20C275C
:1058C000B94233D8280000F071F8374E33681C0015
:1058D000002C2FD139002800FFF7C6FF0400431C1D
:1058E0005FD134680094009B002B4AD1002C52D029
:1058F00023682800E3180099019300F053FB019BF3
:10590000834248D123682800FF1A3900FFF7ACFF13
:10591000013040D02368DB19236033685A68002ABD
:1059200033D1009B336019E0002BC9DA0C232B60C4
:105930000020FEBD2168C91B20D40B290AD9E21919
:105940002760A34204D1326063681160536005E0B0
:105950005A60F9E76268A3420ED13260280000F075
:105960002DF8200007220B30231D9043C21A9842C5
:10597000DFD01B1AA350DCE75A60EFE7230064680E
:10598000A6E7009C63680093ADE71A005B68A3423A
:10599000FBD10023DAE70C2328002B6000F00EF87F
:1059A000C6E70760DAE7C0461C03002010B50248CE
:1059B000FFF70EFF10BDC0461403002010B50248CB
:1059C000FFF707FF10BDC04614030020F0B58E6836
:1059D00085B01F000C000B6802900392BE4230D8C5
:1059E0000C21625E9021C9000A4228D0032021695F
:1059F0005B1A0193636943430198DD0FED187B1C2B
:105A00001B186D10AB4200D91D00520528D5290086
:105A10000298FFF74BFF061E2CD0019A216900F077
:105A2000DEFAA289184B1A4080231343A381019BFD
:105A30002661F61826603E006561ED1AA560BE423B
:105A400000D93E0032000399206800F099FA002046
:105A5000A3689B1BA36023689B19236005B0F0BD5E
:105A60002A00029800F0C4FA061EE0D121690298CB
:105A7000FFF7B0FE0C230120029A40421360A28976
:105A800034331343A381E9E77FFBFFFFF0B5A1B0F7
:105A900003901D008B890F0016001B0611D50B69A2
:105AA000002B0ED14021FFF701FF3860386100283C
:105AB00005D10C23039A136001204042CFE040231C
:105AC0007B61002308AC6361203363761033A376D7
:105AD000079535002B78002B01D0252B48D1AB1B27
