:020000040800F2
:1000000000180020C10B0008B5090008B709000856
:1000100000000000000000000000000000000000E0
:10002000000000000000000000000000B909000806
:100030000000000000000000BB090008BD09000826
:10004000110C000800000000110C0008110C000841
:10005000110C0008110C0008110C0008110C00080C
:1000600000000000110C0008110C0008110C000821
:10007000110C0008110C0008110C00080000000011
:10008000110C00080000000000000000C509000875
:1000900000000000D5090008110C0008110C000830
:1000A00000000000110C000800000000110C000806
:1000B000110C00080000000000000000000000001B
:1000C00010B5064C2378002B07D1054B002B02D02E
:1000D000044800E000BF0123237010BD2C00002065
:1000E00000000000C4270008044B10B5002B03D00B
:1000F0000349044800E000BF10BDC04600000000F6
:1001000030000020C4270008002243088B4274D32B
:1001100003098B425FD3030A8B4244D3030B8B4208
:1001200028D3030C8B420DD3FF22090212BA030C11
:100130008B4202D31212090265D0030B8B4219D3F2
:1001400000E0090AC30B8B4201D3CB03C01A524112
:10015000830B8B4201D38B03C01A5241430B8B425A
:1001600001D34B03C01A5241030B8B4201D30B0343
:10017000C01A5241C30A8B4201D3CB02C01A52416A
:10018000830A8B4201D38B02C01A5241430A8B422D
:1001900001D34B02C01A5241030A8B4201D30B0216
:1001A000C01A5241CDD2C3098B4201D3CB01C01A30
:1001B000524183098B4201D38B01C01A524143093A
:1001C0008B4201D34B01C01A524103098B4201D328
:1001D0000B01C01A5241C3088B4201D3CB00C01A95
:1001E000524183088B4201D38B00C01A524143080D
:1001F0008B4201D34B00C01A5241411A00D2014632
:10020000524110467047FFE701B5002000F0F0F8BA
:1002100002BDC0460029F7D076E7704703460B437E
:100220007FD4002243088B4274D303098B425FD3EF
:10023000030A8B4244D3030B8B4228D3030C8B421B
:100240000DD3FF22090212BA030C8B4202D3121201
:10025000090265D0030B8B4219D300E0090AC30BD6
:100260008B4201D3CB03C01A5241830B8B4201D383
:100270008B03C01A5241430B8B4201D34B03C01A6C
:100280005241030B8B4201D30B03C01A5241C30AE4
:100290008B4201D3CB02C01A5241830A8B4201D355
:1002A0008B02C01A5241430A8B4201D34B02C01A3F
:1002B0005241030A8B4201D30B02C01A5241CDD2E4
:1002C000C3098B4201D3CB01C01A524183098B422F
:1002D00001D38B01C01A524143098B4201D34B0118
:1002E000C01A524103098B4201D30B01C01A52417B
:1002F000C3088B4201D3CB00C01A524183088B4202
:1003000001D38B00C01A524143088B4201D34B00EA
:10031000C01A5241411A00D201465241104670475C
:100320005DE0CA0F00D04942031000D34042534061
:1003300000229C4603098B422DD3030A8B4212D321
:10034000FC22890112BA030A8B420CD38901921153
:100350008B4208D3890192118B4204D389013AD090
:10036000921100E08909C3098B4201D3CB01C01A65
:10037000524183098B4201D38B01C01A5241430978
:100380008B4201D34B01C01A524103098B4201D366
:100390000B01C01A5241C3088B4201D3CB00C01AD3
:1003A000524183088B4201D38B00C01A5241D9D2EB
:1003B00043088B4201D34B00C01A5241411A00D26C
:1003C0000146634652415B10104601D34042002B68
:1003D00000D54942704763465B1000D3404201B5E7
:1003E000002000F005F802BD0029F8D016E770479C
:1003F0007047C04600280AD0C368002B0AD00369A2
:10040000002B0AD0406843425841404270470120C7
:100410004042FBE701204042F8E701204042F5E777
:10042000F8B5CE46474680B580460F0091461E007F
:100430001800FFF7DFFF002824D1002F25D04B46FE
:10044000012B13D026D90025002173687918424664
:100450005019C0B234690122A0473077002817D163
:100460000135EDB229004D45EFD313E073683469CF
:10047000012239004046A047307700280AD00220E8
:10048000404207E00120404204E00120404201E0F8
:1004900002204042C0BCB946B046F8BDF0B5C646E1
:1004A00000B5A0B00400884617001D001800FFF733
:1004B000A1FF002824D14346002B24D06B78012BC8
:1004C00001D080231C436B682A7AD219EE686946F2
:1004D0002000B0472877002818D1002F0CD0002426
:1004E00000232E7A22006A44965D4246D654013497
:1004F000A4B22300BC42F4D320B080BCB846F0BD07
:1005000001204042F8E701204042F5E70220404246
:10051000F2E7000010B582B004006B460022DA71E9
:10052000FFF768FF002823D1616863691348984783
:100530006378002B11D00023237223000122694627
:1005400007310020FFF7AAFF002811D16B460733BF
:100550001B78902B0ED123700AE001332372230005
:100560000122694607310020FFF798FF0028E4D0F8
:1005700002B010BD03204042FAE7C04688130000D5
:1005800070B582B005000E006B460022DA710800DB
:10059000FFF730FF041E02D0200002B070BD330010
:1005A0000122694607311920FFF778FF041EF3D1B5
:1005B0006B46DB79032293432A4013436A46D37187
:1005C00033000122694607311920FFF729FF040093
:1005D000012D04D07168736903489847DCE771689E
:1005E000736902489847D7E710270000409C000035
:1005F00010B584B00400180001235B42029392B24C
:100600000192009102332200282100F069FF431E6D
:10061000984140420123984304B010BD10B584B006
:100620000400180001235B42029392B201920091F0
:1006300002332200282100F05DFE431E9841404213
:100640000123984304B010BD10B5FA218900FFF7CB
:100650005BFD00F025FB10BDF0B58BB0142200212E
:1006600005A802F083F8264B5A6B042422435A63F0
:100670005A6B22400192019A596B2022114359630F
:10068000596B0A400292029A5A6B012632435A630E
:100690005A6B32400392039A596B022211435963F9
:1006A0005B6B1A400492049BD0277F00A025ED05C8
:1006B00000223900280000F045FC0594002406942F
:1006C000079405A90F4800F067FB1F2305931C3B07
:1006D0000693079405A9280000F05EFB059706968F
:1006E0000794089405A9280000F056FB40230593C1
:1006F0000694079605A9280000F04EFB0BB0F0BD4C
:10070000001002400014005010B51448144B036050
:10071000144B4360002383600122C2600361436184
:100720008361C361036200F077FD00280CD10B48A0
:10073000002100F0CFFF002809D10848002100F077
:10074000F5FF002806D110BD00F0B8F8EFE700F083
:10075000B5F8F2E700F0B2F8F5E7C046480000202F
:10076000005400400C0B100010B58EB00400142291
:10077000002109A801F0FAFF1C22002102A801F0C3
:10078000F5FF184B22689A4201D00EB010BD02232B
:10079000029302A801F0F8FA00281FD1124C626BF4
:1007A00002231A436263626B13400093009BC023D1
:1007B0000993AE3B0A9300230B930C9306330D93DE
:1007C00009A90A4800F0E8FAE36B80229203134378
:1007D000E363E36B13400193019BD6E700F06EF8EF
:1007E000DCE7C04600540040001002400004005006
:1007F00070B586B00C22002103A801F0B7FF0326D4
:100800000296254C0194A025ED0501A9280000F0D1
:10081000C3FA01A9214800F0BFFA01A9204800F05D
:10082000BBFA01A91F4800F0B7FA202301930296F2
:100830000023039301A9280000F0AEFA00F0E8FFBE
:100840002100002000F09CFF2100002000F0BCFFF0
:100850002100012000F094FF2100012000F0B4FFEE
:100860002100022000F08CFF2100022000F0ACFFEC
:100870002100052000F084FF2100052000F0A4FFE6
:1008800000F0D0FF084B094A9A6100F01BFA00F013
:10089000D3FF06B070BDC046FFFF0000000400504B
:1008A0000008005000140050007000402F000100AC
:1008B00010B501000020FFF763FE10BD10B58021C8
:1008C000A02001224900C00500F03CFBFEE700002B
:1008D00000B58DB01C22002105A801F047FF1422AD
:1008E0000021684601F042FF124A136807218B433A
:1008F000136002230593FE33089380239B01099321
:1009000040230A9305A800F0A9FF00280ED1072371
:1009100000930023019302930393049300216846FC
:1009200001F03AF9002803D10DB000BDFFF7C6FF72
:10093000FFF7C4FF0020024010B500F093F9FFF765
:10094000C7FFFFF789FE00F0C1F800F053F800F090
:100950006BF8FFF7D9FE074C2000FFF7DBFD200006
:10096000FFF7A6FF0A2000F09BF900F0ABF9FFF7B4
:100970003FFFFEE70000002000B583B00C4B196C70
:10098000012211431964196C0A400092009ADA6B33
:10099000802149050A43DA63DB6B0B400193019B1D
:1009A000082000F097F9102000F094F903B000BD82
:1009B00000100240FEE7FEE77047704710B500F0F8
:1009C0005DF910BD10B5024801F082FA10BDC046B5
:1009D000E800002010B5024801F07AFA10BDC046C8
:1009E0009C000020024B802212059A607047C0468E
:1009F00000ED00E010B50A480A4B03602C23FF33DA
:100A00004360002383606322C2600361836101F05D
:100A10007BFB002800D110BDFFF750FFFBE7C0466D
:100A2000E80000200020004010B50A480A4B03608F
:100A30002C23FF334360002383600922C2600361DB
:100A40004361836101F060FB002800D110BDFFF716
:100A500035FFFBE79C0000200044014000B583B057
:100A60000368174A934204D0164A934214D003B045
:100A700000BD154B1A6C802109020A431A641B6CD5
:100A80000B400093009B00220021132000F02AF964
:100A9000132000F059F9EAE70B4B1A6C8021890208
:100AA0000A431A641B6C0B400193019B0022012135
:100AB000152000F017F9152000F046F9D7E7C046D9
:100AC00000200040004401400010024010B51948C9
:100AD000194B0360E1235B02436000238360C36022
:100AE00003610C2242618361C361036243628362DA
:100AF00001F070FD002811D10E48002101F0E8FD41
:100B000000280ED10B48002101F008FE00280BD16F
:100B1000084801F0BDFD002809D110BDFFF7CEFE49
:100B2000EAE7FFF7CBFEEDE7FFF7C8FEF0E7FFF7D8
:100B3000C5FEF2E7340100200038014010B58EB048
:100B400004001422002109A801F010FE1C2200213B
:100B500002A801F00BFE184B22689A4201D00EB099
:100B600010BD0123029302A801F00EF9002820D144
:100B7000124B1A6C8021C9010A431A641A6C0A408C
:100B80000092009A596B0122114359635B6B134029
:100B90000193019BC023DB00099302230A930023E6
:100BA0000B930C930D92A02009A9C00500F0F4F856
:100BB000D5E7FFF783FEDBE7003801400010024075
:100BC0000D488546FFF70EFF002103E00B4B5B58F5
:100BD000435004310A480B4B42189A42F6D30A4A52
:100BE00002E0002313600432084B9A42F9D301F06B
:100BF000C5FDFFF7A1FEFEE7001800206C280008E5
:100C0000000000202C0000202C000020CC0100203F
:100C1000FEE7000070B504000F4B19780120002991
:100C200000D170BD0D4DFA208000FFF76DFA010074
:100C30002868FFF769FA00F093F803000120002B01
:100C4000EFD1032CEDD800222100404200F04AF8F9
:100C5000034B1C600020E4E724000020200000205B
:100C60002800002010B50320FFF7D4FF041E02D097
:100C70000124200010BDFFF77FFEFAE7034A116848
:100C8000034B1B785B1813607047C046C8010020F7
:100C900024000020014B18687047C046C80100209E
:100CA00070B50400FFF7F6FF0500631C02D0044B8B
:100CB0001B78E418FFF7EEFF401BA042FAD370BD8B
:100CC00024000020024A136802218B4313607047FE
:100CD00010E000E0024A1368034313607047C04607
:100CE0000000014070B5002814DB8408A400144BF8
:100CF0009C466444C026B600A55903220240D20097
:100D0000FF2318009040854389010B4093402B43FB
:100D1000A35170BD0F230340083B9B089B00094A69
:100D200094466344DC6903221040C000FC32150085
:100D30008540AC4389010A4082402243DA61E8E7FA
:100D400000E100E000ED00E0002805DB1F2202408A
:100D500001239340014A13607047C04600E100E060
:100D6000013880235B0498420FD2094A5060094839
:100D7000036A1B021B0AC02109060B4303620023FE
:100D8000936007331360002070470120FCE7C046E2
:100D900010E000E000ED00E0F0B5DE4657464E46BC
:100DA0004546E0B583B00A68002A00D1BAE00023C6
:100DB0000124A0460F34A3460D3CA1465D4E40E001
:100DC000DD08AD0045192A6A944607221A409200B0
:100DD00092460F225746BA4067469743BC460A6977
:100DE0000F273A405746BA4067463A432A6234E0F2
:100DF00000226746BA402A4322668022B258019CEC
:100E0000E4434D68ED0300D580E022408025725117
:100E10008422B2584D68AD037BD4224084257251A0
:100E200032684D68ED0277D42240326072684D68B6
:100E3000AD0274D42240726001330A681400DC40B1
:100E400070D044469C401700274001972242F3D0BF
:100E50004A685D46AA43022AB2D0026892465D0003
:100E60004A46AA40D743BC4657469743BA464A68C3
:100E70004F463A40AA4057463A4302604A685F46A6
:100E8000BA43013A012A10D8826867461740CA68F7
:100E9000AA403A4382604268A24314004A68120999
:100EA00047463A409A40224342604A68032AC3D0E8
:100EB000C468624614408A68AA402243C2604A68F5
:100EC000802464052242B7D09C08A400194A9446A5
:100ED0006444256E4A461A40D20094460F22674663
:100EE000BA409543A022D205904281D0124A904246
:100EF00008D0124A904207D0114A8218571EBA41B0
:100F0000053276E7012274E7022272E7019D2A4347
:100F10007CE7019D2A4381E7019D2A4385E7019CE7
:100F2000224388E703B0F0BCBB46B246A946A046C0
:100F3000F0BDC046001802400004005000080050F8
:100F400000ECFFAF002A01D0816170478162FCE7AD
:100F5000026893699B0701D50023936203689A692D
:100F6000D20703D49A6901210A439A6170470000AD
:100F700030B5006844681204039D2B431A43890569
:100F8000890D0A43520052086B0D8021C9000B40A5
:100F900002490B439C432243426030BDFF63FF0381
:100FA000F0B5D6464F464646C0B504000D00904603
:100FB00001688B69102216001E4000201A4244D09E
:100FC0001023CB61002399460026202721688B69D6
:100FD0001F4231D1002E33D16B1CF8D0FFF75AFEDF
:100FE0004346C01AA84201D8002DEFD122685068AC
:100FF0004223E35CDBB29169090403D5400401D4C8
:10100000202B10D120239A4623689B6952461A420E
:10101000DCD1FFF73FFE4346C01A1928F4D920233C
:1010200099460126D2E751688023DB010B435360C8
:10103000FFF730FE8046E5E7002E01D12023CB618B
:1010400004264B4633431E00012022689369D905CC
:1010500004D501210E43FF31D16101205A0526D567
:101060000822164322688021C900D1619B0505D55D
:1010700002231E43236880229200DA612000FFF7DA
:1010800067FF226853680C490B405360636C33431D
:10109000636441232022E25400232232A354023A03
:1010A000A3540120E0BCBA46B146A846F0BD9B055A
:1010B000DED40028F6D0E1E700E800FEF8B5040031
:1010C0000D001600022723689B691F4220D13200C1
:1010D00029002000FFF764FF00281BD16B1CF2D011
:1010E000FFF7D8FD801BA84201D8002DEBD1236863
:1010F0009B699B07E7D4636C2022134363644123FD
:10110000E25400232232A354023AA354012000E007
:101110000020F8BD0120FCE7F0B5D646474680B573
:1011200083B007000D00160098460A9B9A4601926C
:101130003B689C692C40641B63425C41B44228D1EB
:10114000524641463800FFF72BFF002827D143467F
:101150000133EDD0FFF79EFD5346C01A404502D83B
:101160004346002BE4D13B689B692B405B1B5A42F2
:101170005341019A9342DBD17B6C202213437B6461
:101180004123FA5400232232BB54023ABB540120BB
:1011900000E0002003B0C0BCBA46B046F0BD01205C
:1011A000F8E7F0B5C64600B505000E001700036865
:1011B0009B699B0628D42023984609E02B689B69ED
:1011C00042461A4213D02B689B6942461A421ED1EE
:1011D0003A0031002800FFF7E3FE041E16D1FFF7A6
:1011E00059FDC01BB042E9D8002EECD1E6E76B6C8C
:1011F000202213436B644123EA5400232232AB5470
:10120000023AAB54012402E0002400E00124200053
:1012100080BCB846F0BD000010B5041E60D041236C
:10122000C35C002B48D041232422E2542268136877
:1012300001218B431360226863682A490B401361C4
:101240002268936828490B409360E368012B39D0EA
:101250002268A16884231B020B439360E368022B7E
:1012600037D02268536821490B4053602268516887
:101270001F4B0B4353602268D3681B490B40D3605C
:101280002168236962691343A26912021343CB6088
:101290002268E369216A0B43136022681368012105
:1012A0000B4313600023636441221F31A154236365
:1012B0000132A354002010BD40330022C254FFF776
:1012C00053FAB0E72268A16880231B020B439360A6
:1012D000C4E72268516880231B010B435360C5E7B4
:1012E0000120E8E7FFFFFFF0FF7FFFFFFFF7FFFFB1
:1012F00000800002F0B587B00400039105920493CA
:101300000CAB20CB1E884123C35C202B00D0D8E03F
:10131000002D54D0002E52D04023C35C012B00D1AD
:10132000D2E040230122C254FFF7B4FC0700802121
:1013300000901923012209022000FFF7EDFE0300AF
:101340000120002B00D0BDE041332122E2540133C3
:101350001F32E254002363646562668563638033F1
:10136000049DEAB25C4900915B0403992000FFF7F9
:10137000FFFD3A000E992000FFF7A0FE002832D1B1
:10138000012D21D123686A46167D9E6200970E9B2F
:10139000002280212000FFF7BFFE002823D1638DAB
:1013A0009BB2FF2B24D9FF2323857F3B0022009291
:1013B0005B04FF3203992000FFF7DAFD35E080235C
:1013C0009B00636401207DE02368059D2A0A9A62E0
:1013D0003A000E992000FFF771FE002803D1236820
:1013E000EEB29E62D2E740230022E254012069E07F
:1013F000628D92B222858023D2B2002100919B049B
:1014000003992000FFF7B4FD0FE0628D92B22285B0
:101410008023D2B2002100919B0403992000FFF7A2
:10142000A7FD638D9BB2002B34D03A000E992000AB
:10143000FFF744FE002849D12368626A12789A6255
:10144000636A01336362638D013B9BB26385238DC5
:10145000013B9BB22385628D92B2002AE1D0002B22
:10146000DFD100970E9B002280212000FFF754FE61
:1014700000282DD1638D9BB2FF2BC6D9FF23238576
:101480007F3B002200925B04FF3203992000FFF7AC
:101490006FFDC6E73A000E992000FFF782FE002894
:1014A00018D123682022DA6121684B680B4D2B404C
:1014B0004B604123E25400232232A354023AA35446
:1014C00000E0022007B0F0BD0220FBE70120F9E7B1
:1014D0000120F7E70120F5E70020008000E800FE8A
:1014E000F0B587B004000391059204930CAB20CBB8
:1014F0001E884123C35C202B00D0D9E0002D53D09F
:10150000002E51D04023C35C012B00D1D3E04023F7
:101510000122C254FFF7BEFB07008021009019236F
:10152000012209022000FFF7F7FD03000120002B34
:1015300000D0BEE041332222E25401331E32E25495
:1015400000236364656266856363049DEAB25E4B53
:101550000093002303992000FFF70AFD3A000E993B
:101560002000FFF7ABFD002832D1012D21D12368E7
:101570006A46167D9E6200970E9B00224021200045
:10158000FFF7CAFD002823D1638D9BB2FF2B24D91E
:10159000FF2323857F3B4D4A00925B04FF22039982
:1015A0002000FFF7E5FC35E080239B006364012009
:1015B0007FE02368059D2A0A9A623A000E9920006E
:1015C000FFF77CFD002803D12368EEB29E62D2E7CC
:1015D00040230022E25401206BE0628D92B222850A
:1015E0008023D2B2394900919B0403992000FFF770
:1015F000BFFC0FE0628D92B222858023D2B200211F
:1016000000919B0403992000FFF7B2FC638D9BB20D
:10161000002B36D000970E9B002204212000FFF7FC
:101620007BFD002849D123685A6A636A1A70636A8D
:1016300001336362238D013B9BB22385628D013AA6
:1016400092B26285628D92B2002ADFD0002BDDD18A
:1016500000970E9B002280212000FFF75DFD0028EF
:101660002DD1638D9BB2FF2BC4D9FF2323857F3BF4
:10167000002200925B04FF3203992000FFF778FC00
:10168000C4E73A000E992000FFF78BFD002818D11F
:1016900023682022DA6121684B680D4D2B404B6096
:1016A0004123E25400232232A354023AA35400E01F
:1016B000022007B0F0BD0220FBE70120F9E701207E
:1016C000F7E70120F5E7C0460020008000240080F5
:1016D00000E800FEF0B54123C35C202B20D120336D
:1016E000C35C012B1ED04024012202554125242336
:1016F00043550668336893433360066833680A4F7E
:101700003B403360066833680B43336001680B6805
:1017100013430B6020234355002303550020F0BDE5
:101720000220FCE70220FAE7FFEFFFFFF0B54123BC
:10173000C35C202B1ED12033C35C012B1CD0402462
:1017400001220255412524234355066833689343FB
:10175000336006683368094F3B4009021943316022
:1017600001680B6813430B60202343550023035586
:101770000020F0BD0220FCE70220FAE7FFF0FFFFA7
:10178000022818D007D800280FD00E4A936A8B433E
:10179000936200200EE0052805D10A4A936C8B4322
:1017A0009364002006E0012004E0064A136A8B439C
:1017B000136200207047034A136B8B4313630020AE
:1017C000F8E7C04600700040022818D007D800286B
:1017D0000FD00E4AD36A8B43D36200200EE0052857
:1017E00005D10A4AD36C8B43D364002006E0012064
:1017F00004E0064A536A8B43536200207047034A51
:10180000536B8B4353630020F8E7C04600700040E1
:10181000034A91688023DB000B4393607047C04606
:1018200000700040024A936802490B409360704781
:1018300000700040FFFBFFFF064A136807218B433F
:1018400003390B431360044A13690B43136130BF20
:101850007047C0460070004000ED00E0F8B5041E7F
:1018600000D148E10368DB072ED5A74B9A683823DF
:101870001340082B24D043688022520293426ED03A
:10188000A022D202934271D09F4B1A689F490A400E
:101890001A601A689E490A401A606368002B71D06A
:1018A000FFF7F8F90500984F8026B6023B683342EF
:1018B0000AD1FFF7EFF9401B6428F7D903201BE199
:1018C0004368002B00D118E123689B0725D58E4B78
:1018D0009B6838221A4265D1E3680120002B00D1B1
:1018E0000AE1894B5968626912028A4801400A4339
:1018F0005A601A6888490A4021690A431A601B68BD
:1019000086499B045B0F864ADA400A60854B18685B
:10191000FFF780F9002800D0F1E023681B0700D40E
:1019200081E0794B9A6838231340182B77D0A3694C
:10193000002B00D1A2E0744A136E01210B43136601
:10194000FFF7A8F90500704F02263B6E1E426AD1D0
:10195000FFF7A0F9401B0228F7D90320CCE06A4A20
:10196000116880235B020B43136096E7664B19688E
:101970008022D2020A431A601968802252020A4366
:101980001A608AE7FFF786F905005F4F8026B602E6
:101990003B68334298D0FFF77DF9401B6428F7D9A4
:1019A0000320A9E0E368002B24D0574A13685A4962
:1019B0000B4021690B431360116880235B000B43CC
:1019C0001360FFF767F905004F4F8026F6003B686C
:1019D000334206D1FFF75EF9401B0228F7D90320F6
:1019E0008AE049494A6863691B024A480240134336
:1019F0004B6092E7444A13684B490B401360FFF772
:101A000049F90500404F8026F6003B68334284D0F8
:101A1000FFF740F9401B0228F7D903206CE0A369C7
:101A2000002B00D16DE0236800205B0764D5364BA6
:101A30009A6838231340202B34D0A368012B36D06A
:101A4000052B3AD0304BDA6D01218A43DA65DA6D25
:101A500003318A43DA65A368002B3AD0FFF71AF9FD
:101A60000400294E0225314FF36D1D422FD1FFF79F
:101A700011F9001BB842F7D903203DE0224A136E4A
:101A800001218B431366FFF705F905001E4F02265F
:101A90003B6E1E42C7D0FFF7FDF8401B0228F7D966
:101AA000032029E0A06843425841C0B224E0164A0E
:101AB000D36D01210B43D365CDE7134BDA6D0421C0
:101AC0000A43DA65DA6D03390A43DA65C3E70020B1
:101AD00012E0FFF7DFF804000B4E0225134FF36D01
:101AE0001D4206D0FFF7D6F8001BB842F7D90320F5
:101AF00002E0002000E00120F8BD0120FCE7012009
:101B0000FAE70120F8E7C04600100240FFFFFEFFA1
:101B1000FFFFFBFFFF80FFFFFFC7FFFF200000204C
:101B2000006CDC0228000020FFFEFFFF881300008D
:101B3000154B9B6838221A4206D1134B1B689B0435
:101B40005B0F1248D84070470F4B9A6838231340F8
:101B5000082B14D00C4B9A6838231340202B10D03C
:101B6000094B9B68382018401838431E9841404262
:101B7000074B1840FA23DB019C466044E3E7054825
:101B8000E1E780200002DEE700100240006CDC028A
:101B90000083FFFF00127A00F8B5CE46474680B5B5
:101BA00004000D00002800D1AFE05A4B1A6807234B
:101BB00013408B4221D323689A0710D55B0707D5C2
:101BC00055498A68554B1A40B0231B0113438B605B
:101BD000514A936852490B40E1680B439360236874
:101BE000DB0752D56268012A21D0002A3FD14A4B37
:101BF0001B685B051FD4012069E0464A1368072172
:101C00008B432B431360FFF745F80600414B984682
:101C10000727444B994643461B683B40AB42CAD01A
:101C2000FFF738F8801B4845F5D903204FE03A4BC1
:101C30001B689B036BD538498B680720834313438C
:101C40008B60FFF727F80600334B98463827354B53
:101C5000994643469A683A406368DB009A4214D03A
:101C6000FFF718F8801B4845F3D903202FE0032A1B
:101C700005D0294BDB6D9B07DDD4012027E0264BE7
:101C80001B6E9B07D7D4012021E0224B1A68072343
:101C90001340AB421FD823685B0706D51E4A9368E2
:101CA00021490B4021690B439360FFF741FF1A4B19
:101CB0009B681E491E4A1B051B0F9B009B581F2239
:101CC0001340D84008601B4B1868FEF7A3FFC0BC48
:101CD000B946B046F8BD0F4A136807218B432B4322
:101CE0001360FEF7D7FF06000A4B984607270D4BF7
:101CF000994643461B683B40AB42CCD0FEF7CAFF37
:101D0000801B4845F5D90320E1E70120DFE70120EA
:101D1000DDE7C0460020024000100240FF84FFFFC4
:101D2000FFF0FFFF88130000FF8FFFFF200000205F
:101D3000FC2700082800002010B5FFF7F9FE064B2D
:101D40009B68064A1B051B0F9B009B581F221340D4
:101D5000D840034B186010BD00100240FC2700085B
:101D60002000002010B5FFF7E7FF054B9B68054AF0
:101D70005B045B0F9B009B581F221340D84010BD93
:101D800000100240DC270008F0B5CE46474680B57B
:101D900083B00400036800205B0647D5424BDB6B31
:101DA0000025DB000AD4404BDA6B802149050A4349
:101DB000DA63DB6B0B400193019B01353A4BDA6D23
:101DC000C0239B00110019401A4225D0A3698B4201
:101DD00022D0354BDA6D35491140DE6D802040024E
:101DE0003043D865D86D324E3040D865D965D207BA
:101DF00012D5FEF74FFF06002B4B984602272D4BBE
:101E000099464346DB6D1F4206D1FEF743FF801B18
:101E10004845F6D9032007E0234AD36D23490B40F8
:101E2000A1690B43D3650020012D36D02368DB0761
:101E300006D51D4A536D03218B43A1680B4353659F
:101E400023689B0706D5184A536D1B490B40E16870
:101E50000B43536523689B0606D5134A536D9B00BD
:101E60009B0861690B43536523685B0706D50E4ADF
:101E7000536D12490B4021690B43536523681B06C0
:101E800006D5094A1368E0218B4361680B43136050
:101E900003B0C0BCB946B046F0BD034AD36B084995
:101EA0000B40D363C2E7C04600100240FFFCFFFFB7
:101EB000FFFFFEFF88130000FFCFFFFFFF3FFFFF84
:101EC000FFFFFFEF70477047704770477047000093
:101ED00070B504000368DE681D69AA070ED5B20755
:101EE0000CD5032252421A610123037703689B69D0
:101EF0009B0753D0FFF7E8FF002323776B0712D52A
:101F0000730710D52368052252421A6102232377F2
:101F100023689A69C0239B001A4245D02000FFF72E
:101F2000D3FF002323772B0710D533070ED5236863
:101F3000092252421A61042323772368DB699B0735
:101F400039D02000FFF7C0FF00232377EB0612D51E
:101F5000F30610D52368112252421A610823237711
:101F60002368DA69C0239B001A422BD02000FFF7B8
:101F7000ABFF00232377EB0701D5F30729D4822396
:101F80009B011D423CD033062BD46B0601D5730652
:101F90003BD4AD0601D5B6063FD470BDFFF793FF25
:101FA0002000FFF792FFA7E72000FFF78CFF20003B
:101FB000FFF78BFFB5E72000FFF785FF2000FFF755
:101FC00084FFC1E72000FFF77EFF2000FFF77DFFC1
:101FD000CFE72368022252421A612000FFF772FF06
:101FE000CDE72368114A1A61200000F0BEF8EB0526
:101FF000CBD523680E4A1A61200000F0B7F8C4E779
:10200000EB05C2D53306C0D5F3E72368412252421F
:102010001A612000FFF75AFFBBE7236821225242D2
:102020001A61200000F0A0F8B7E7C0467FDFFFFF8D
:10203000FFFEFFFF03682E4A904214D02D4A9042C3
:1020400011D02D4A904238D02C4A904242D02C4A8E
:10205000904225D0802293434A6913438A68C26222
:102060000A68826214E0702293434A681343254A47
:102070001340CA681343802293434A6913438A6812
:10208000C2620A6882621A4A904201D10A690263F6
:10209000026804210A430260012242610360704722
:1020A000184A1340CA681343802293434A69134372
:1020B0008A68C2620A688262E8E7124A1340CA6804
:1020C0001343802293434A6913438A68C2620A68B1
:1020D0008262DDE70B4A1340CA68134380229343B0
:1020E0004A6913438A68C2620A688262CEE7C046C0
:1020F000002C01400004004000200040004401404A
:1021000000480140FFFCFFFF70B5041E2AD03D23AC
:10211000C35C002B20D03D2502236355210001C95B
:10212000FFF788FF01234822A3540A3AA35401323F
:10213000A3540132A3540132A3540132A3540132F7
:10214000A3540132A3540132A3540132A3540132E7
:10215000A3546355002070BD3C330022C254FEF7E7
:102160007DFCD8E70120F6E7704770477047000014
:1021700030B5EFF31084012282F3108801680B68F8
:10218000124D2B400B6084F31088EFF3108182F323
:102190001088026893680E4C2340936081F3108886
:1021A000C36E012B06D08C232022C2500023C366AD
:1021B000436730BDEFF3108183F310880268136822
:1021C0001024A343136081F31088ECE7DFFEFFFFC8
:1021D000FEFFFFEF70B5040001680A6883680069BC
:1021E000034360690343E06903435C4802401343CF
:1021F0000B60226853685A490B40E1680B435360F7
:10220000A36921688A68206A034356480240134341
:102210008B602268D36A0F218B43616A0B43D362C0
:102220002368514A934217D0504A944663445A1E39
:1022300093411B0180221202E169914200D182E0A8
:102240000120022B43D901236A22A352023AA3524E
:1022500000236367A36770BD454B5A6D032313408A
:10226000022B5DD055D8002B08D080231B02E269D9
:102270009A4264D0FFF75CFC03002BE00023D9E70F
:102280003B4B19680906490F01313A48FDF73CFFFD
:1022900003006568384A616A4900895A1800FDF7E9
:1022A00033FF40006B08C0182900FDF72DFF030025
:1022B00001001039314A01209142C4D8304A1A40F5
:1022C00021681B075B0F1343CB600020BBE7FFF7C0
:1022D00049FD03000020002BB5D06568264A616ADD
:1022E0004900895A1800FDF70FFF6B08C018290034
:1022F000FDF70AFF030001001039204A0120914236
:10230000A1D822681B041B0CD36000209BE701208E
:1023100099E7E369802212029342BAD01300DCE706
:1023200080231B02E2699A42AAD0114B1968090660
:10233000490F01310F48FDF7E7FE0300CDE7FFF736
:10234000F7FB030004E0002BE1D1FFF70BFD0300D6
:102350000020002B00D176E79BE7C046F369FFCF52
:10236000FFCFFFFFFFF4FF110038014000BCFFBFAB
:1023700000100240006CDC023C280008EFFF000067
:10238000F0FF0000836A1B0706D5026853682C49DA
:102390000B40816B0B435360836ADB0706D50268F1
:1023A000536828490B40C16A0B435360836A9B07FB
:1023B00006D50268536824490B40016B0B435360F8
:1023C000836A5B0706D50268536820490B40416B5E
:1023D0000B435360836ADB0606D5026893681C4989
:1023E0000B40C16B0B439360836A9B0606D5026862
:1023F000936818490B40016C0B439360836A5B063A
:102400000BD50268536814490B40416C0B43536071
:1024100080235B03426C9A420AD0836A1B0606D56E
:10242000026853680D490B40C16C0B435360704701
:10243000026853680A490B40816C0B435360ECE718
:10244000FF7FFFFFFFFFFDFFFFFFFEFFFFFFFBFF23
:10245000FFEFFFFFFFDFFFFFFFFFEFFFFFFFF7FFD4
:10246000FFFF9FFFF8B5CE46474680B580460D007A
:1024700016009946089F43461B68DC692C40641B84
:1024800062425441B44236D17A1CF6D0FEF702FCC7
:102490004B46C01AB84233D8002F33D043461A688F
:1024A00013685B07E7D52B00403B40218B43E2D00C
:1024B000D3691B0711D4D3691B05DCD580231B010D
:1024C00013624046FFF754FE902320224146CA5033
:1024D0000C3B0022CA5403200EE00824146240463C
:1024E000FFF746FE90234246D4500C3B0022414663
:1024F000CA54012000E00020C0BCB946B046F8BD77
:102500000320F9E70320F7E730B583B004009023F8
:102510000022C250FEF7BEFB050023681B681B07A4
:1025200011D423681B685B0729D420238822A35079
:102530000432A3500023E366236700208423002293
:10254000E25403B030BD8021204B009303000022F1
:1025500089032000FFF786FF0028E2D0EFF3108107
:10256000012383F31088226813688020834313605B
:1025700081F3108888232022E2507D38DEE7802115
:10258000124B00932B000022C9032000FFF76AFFC3
:102590000028CAD0EFF31080012282F3108821684E
:1025A0000B680B4D2B400B6080F31088EFF310800D
:1025B00082F3108821688B6893438B6080F31088C6
:1025C0008C231F32E2500320B8E7C046FFFFFF0113
:1025D000DFFEFFFF10B5041E30D08823C358002B48
:1025E00022D088232422E2502268136801218B43E1
:1025F0001360A36A002B1DD12000FFF7EBFD01281B
:1026000011D0226853680E490B40536022689368CA
:102610002A218B4393602268136829390B43136086
:102620002000FFF771FF10BD84330022C254FEF773
:1026300085FAD6E72000FFF7A5FEDDE70120F2E7E7
:10264000FFB7FFFFF8B50400436E002B06D16A33D5
:102650000122C25201206823E052F8BD03689D6840
:102660009B685B0F084FF85CC000084EF15CFDF7FB
:10267000D5FD6A23E0522B015B0FF85CC000F15CD2
:10268000FDF7CCFD80B2E6E75C280008542800087E
:1026900070B58423C35C012B15D084240126065514
:1026A000882524234351026813681168B1431160DF
:1026B000064A13400022426601680B602023435102
:1026C0000255002070BD0220FCE7C046FFFFFFDF7F
:1026D000F8B504000A008423C35C012B1BD08425B9
:1026E0000120605588262423A35123681F68196898
:1026F0008143196020688368DB00D9081143816039
:102700002000FFF79FFF23681F602023A3510023B1
:1027100063550020F8BD0220FCE70000F8B5040076
:102720000B008422825C012A1BD084250120605585
:1027300088262422A25122681768116881431160FB
:102740002268916808480140194391602000FFF712
:1027500079FF23681F602023A351002363550020C5
:10276000F8BD0220FCE7C046FFFFFFF1030082181E
:10277000934200D1704719700133F9E770B5002614
:102780000C4C0D4D641BA410A64209D1002600F08C
:1027900019F80A4C0A4D641BA410A64205D170BD5D
:1027A000B300EB5898470136EEE7B300EB58984773
:1027B0000136F2E764280008642800086828000849
:1027C00064280008F8B5C046F8BC08BC9E467047AF
:0C27D000F8B5C046F8BC08BC9E46704737
:1027DC0000000000000000000000000000000000ED
:1027EC0001000000020000000300000004000000D3
:1027FC0000000000000000000000000000000000CD
:10280C0000000000000000000000000000000000BC
:10281C0001000000020000000300000004000000A2
:10282C00060000000700000008000000090000007E
:10283C00010002000400060008000A000C00100051
:10284C00200040008000000108040204080101017E
:08285C00010101030701000066
:04286400E90000087F
:04286800C1000008A3
:10286C00000100004800002000000000F1050008F5
:10287C001D060008490600080000000000000000CA
:0C288C00001BB700010000000400000069
:0400000508000BC123
:00000001FF
