:020000040800F2
:10000000001800201D280008C9250008CB2500087D
:1000100000000000000000000000000000000000E0
:10002000000000000000000000000000CD250008D6
:100030000000000000000000CF250008D1250008C6
:100040006D280008000000006D2800086D280008D9
:100050006D2800086D2800086D2800086D2800082C
:10006000000000006D2800086D2800086D280008B9
:100070006D2800086D2800086D28000800000000A9
:100080006D2800080000000000000000D9250008CD
:1000900000000000E92500086D2800086D28000810
:1000A000000000006D280008000000006D28000816
:1000B0006D280008000000000000000000000000A3
:1000C00010B5064C2378002B07D1054B002B02D02E
:1000D000044800E000BF0123237010BD7C00002015
:1000E00000000000B84D0008044B10B5002B03D0F1
:1000F0000349044800E000BF10BDC04600000000F6
:1001000080000020B84D00080023C25C0133002AA3
:10011000FBD1581E7047000003B4714649084000E7
:100120004900095E49008E4403BC70470022430821
:100130008B4274D303098B425FD3030A8B4244D3AF
:10014000030B8B4228D3030C8B420DD3FF220902F1
:1001500012BA030C8B4202D31212090265D0030BB0
:100160008B4219D300E0090AC30B8B4201D3CB03A6
:10017000C01A5241830B8B4201D38B03C01A5241E8
:10018000430B8B4201D34B03C01A5241030B8B42EA
:1001900001D30B03C01A5241C30A8B4201D3CB02D5
:1001A000C01A5241830A8B4201D38B02C01A5241BA
:1001B000430A8B4201D34B02C01A5241030A8B42BD
:1001C00001D30B02C01A5241CDD2C3098B4201D3D5
:1001D000CB01C01A524183098B4201D38B01C01A53
:1001E000524143098B4201D34B01C01A52410309CA
:1001F0008B4201D30B01C01A5241C3088B4201D379
:10020000CB00C01A524183088B4201D38B00C01A25
:10021000524143088B4201D34B00C01A5241411A4C
:1002200000D20146524110467047FFE701B5002059
:1002300000F0F0F802BDC0460029F7D076E770471D
:1002400003460B437FD4002243088B4274D3030937
:100250008B425FD3030A8B4244D3030B8B4228D3D8
:10026000030C8B420DD3FF22090212BA030C8B42FE
:1002700002D31212090265D0030B8B4219D300E09E
:10028000090AC30B8B4201D3CB03C01A5241830B23
:100290008B4201D38B03C01A5241430B8B4201D3D3
:1002A0004B03C01A5241030B8B4201D30B03C01AFC
:1002B0005241C30A8B4201D3CB02C01A5241830A76
:1002C0008B4201D38B02C01A5241430A8B4201D3A5
:1002D0004B02C01A5241030A8B4201D30B02C01ACF
:1002E0005241CDD2C3098B4201D3CB01C01A524136
:1002F00083098B4201D38B01C01A524143098B42BF
:1003000001D34B01C01A524103098B4201D30B01A7
:10031000C01A5241C3088B4201D3CB00C01A5241CC
:1003200083088B4201D38B00C01A524143088B4291
:1003300001D34B00C01A5241411A00D2014652412A
:10034000104670475DE0CA0F00D04942031000D349
:100350004042534000229C4603098B422DD3030A9E
:100360008B4212D3FC22890112BA030A8B420CD3AE
:10037000890192118B4208D3890192118B4204D3D7
:1003800089013AD0921100E08909C3098B4201D357
:10039000CB01C01A524183098B4201D38B01C01A91
:1003A000524143098B4201D34B01C01A5241030908
:1003B0008B4201D30B01C01A5241C3088B4201D3B7
:1003C000CB00C01A524183088B4201D38B00C01A64
:1003D0005241D9D243088B4201D34B00C01A52413B
:1003E000411A00D20146634652415B10104601D3C8
:1003F0004042002B00D54942704763465B1000D352
:10040000404201B5002000F005F802BD0029F8D0F7
:1004100016E770477047C046844608006146FFE70C
:100420001FB500F0ABFB002801D40021C8421FBD5E
:1004300010B500F033FB4042013010BD10B500F0A4
:100440009DFB002801DB002010BD012010BDC0462F
:1004500010B500F093FB002801DD002010BD012045
:1004600010BDC04610B500F041FB002801DC0020A3
:1004700010BD012010BDC04610B500F037FB0028AC
:1004800001DA002010BD012010BDC046F8B54B02B6
:100490005A0A94464A00C90FCE4647468946450047
:1004A00046022D0E120E80B59909770AC40FB609BF
:1004B000AB1A4C4520D0002B0CDD002A34D100298A
:1004C0002AD05A1E012B00D18FE0FF2B00D1CDE0A6
:1004D00013002FE0002B60D0531B002D00D0EEE066
:1004E000002E00D13EE15C1E012B00D16BE1FF2B01
:1004F00000D1B9E02300E7E0002B00DCA4E0002AF3
:1005000069D0FF2D00D1B1E08022D20411431B2B12
:1005100000DCE9E02B000536F708FF2B00D1A5E051
:100520007A02520AD8B230E0FF2D00D19EE080223C
:10053000D204114301201B2B08DC08002022D840E4
:10054000D31A99400B005A1E93411843361A73016F
:1005500000D471E0B601B709380000F00BFE3B0093
:100560000538834085424DDDB44E2D1A1E405A0792
:1005700068D00F221340042B64D00436730161D578
:10058000681CFE2D54D1FF200022C0051043E40753
:100590002043C0BCB946B046F8BDFE229046681C58
:1005A0000200404610426BD1002D00D0DDE0002E4D
:1005B00000D102E10029B3D08022771AD204174279
:1005C00000D136E14C468E1B61D00120164230D15D
:1005D0000023F708A4E700299ED05A1E012B00D162
:1005E000CAE0FF2B42D0130091E7711A4B0100D4EF
:1005F000D1E08F01BF09380000F0BCFD3B00053899
:10060000834001252022401B0130121A1E00934016
:10061000C6405A1E93411E4339D0730700D11BE1D7
:100620000F2300253340042BA7D1012072017CD574
:10063000C0B2B201520AA8E7730703D00F233340B8
:10064000042B9AD12B0067E7002B23D0531B002DDE
:100650007BD1002E00D186E05D1E012B00D18BE006
:10066000FF2B02D02B0075E04C466746002F00D1CF
:1006700089E78022D2033A435202FF20520A84E7DC
:10068000771A7B016BD4002F00D065E7002400208F
:1006900000227AE7FE226B1C1A4249D1002D00D0BD
:1006A0009FE0002E00D1BAE0002900D1CFE07218FF
:1006B000530100D4CDE092010120520A65E7FF2AE0
:1006C000D2D08020C004064301201B2B08DC300060
:1006D0002024D840E31A9E4033005C1EA3411843F7
:1006E0004C4615000E1A32E708002022D840D31AD3
:1006F00099400B005A1E93410343F61873019BD592
:100700000135FF2D00D13EE701234D4972083340EA
:100710000A401A431600530704D00F231340042B3A
:1007200000D02AE7730100D52AE72B00F708F7E687
:10073000FF2B00D127E7711849084A072FD00F2255
:100740000A40042A2BD00E1DE6E6FF2A8DD0802019
:10075000C00406431B2B24DD13004E1DDCE64C4673
:100760008F1BF9E64C460E00D6E6002E49D1002933
:1007700068D067464C467CE77018430174D5304911
:1007800040080140430709D00F230340042B05D044
:1007900002230E1DC0E60123CF08C1E60223CF08C5
:1007A000BEE620253000D840EB1A9E4033005D1E87
:1007B000AB41034315005E18A0E7002900D165E7AF
:1007C0004C466746ACE68F1B7B012ED5BF01BF09A7
:1007D000380000F0CFFC3B00053883404C46013523
:1007E00010E7002E00D140E7002900D141E7802327
:1007F000DB039F4200D23CE79C4500D339E76746C4
:1008000037E7002900D134E78023DB039F4200D281
:100810002FE79C4500D32CE74C46674629E7002983
:1008200000D134E70023CF087AE64C460123FF08C5
:1008300076E6002F00D129E7FF0871E6FFFFFFFBF6
:10084000FFFFFF7D80220024FF20D2039DE60023CE
:1008500066E60023D70863E60120720100D5E7E6CB
:1008600031000023CF085BE60123C70858E6C046E5
:10087000F0B546464F46D6464502C0B5C30F4700C1
:1008800098460E1C6D0A3F0E5BD0FF2F21D08023AF
:10089000ED00DB041D43002399469A467F3F740216
:1008A0007300640A1B0EF60F002B20D0FF2B43D0E1
:1008B00080220020E400D20414437F3B4246FF1A0A
:1008C0004B4672400F2B00D99DE071499B00CB58DD
:1008D0009F46002D5AD108239946063B74029A463A
:1008E0007300FF27640A1B0EF60F002BDED1002CCD
:1008F0003BD1012342464946724019430E2918D87C
:100900006448890041588F465346022B00D1B8E015
:10091000032B6ED042462C00012B40D10020002436
:10092000C0052043D2071043E0BCBA46B146A846F2
:10093000F0BDFF200024F3E7002C20D10223FF3F6D
:10094000D8E7002D05D104239946033B00279A469A
:10095000A5E7280000F00EFC7627431F9D400023EA
:100960007F4299469A463F1A99E7200000F002FC20
:10097000431F9C4076235B421B1A00209EE7032303
:100980004A461A4391460320FC3397E70C239946C5
:10099000093BFF279A4682E703282CD03200380013
:1009A0007F30002847DD630704D00F232340042B4A
:1009B00000D00434230103D53800374B80301C406D
:1009C000FE28B6DCA401640AC0B2A9E78024002294
:1009D000FF20E403A4E78023DB031D4201D01C4277
:1009E0000BD08024E4032C4364024246FF20640AB7
:1009F00096E746462C008023DB031C43640232004A
:100A0000FF20640A8CE76D01600185422DD21B2313
:100A10000024013F0126290064006D00002901DB4C
:100A2000854201D32D1A3443013B002BF3D16B1EB9
:100A30009D412C43B3E701231B1A1B2B00DD6DE7FF
:100A400021009E37D940BC400B00611E8C412343DE
:100A5000590704D00F211940042900D0043359014B
:100A600013D49B0100205C0A5AE71A2301242D1A93
:100A7000D0E7981E43425841404232000024C0B2A1
:100A80004EE74246FF2000244AE70120002447E7C2
:100A9000D44D0008144E0008FFFFFFF770B5420068
:100AA0004E024C0045026D0A120EC30F760A240E48
:100AB000C90FFF2A10D0FF2C0CD00120A2420AD16E
:100AC000B54208D18B420FD0002A04D12800431E22
:100AD000984100E0012070BD0120FF2CFBD135437F
:100AE000F9D14B401800F6E70020F4E730B542009A
:100AF00044024D02C30F4800640A120E6D0A000E34
:100B0000C90FFF2A18D0FF280AD0002A1ED10028BA
:100B10000AD1002D29D0002C2DD14800013830BD3C
:100B2000002D25D1002A01D1002CF6D08B4219D0FE
:100B300001205B421843F2E7002C19D1FF28F7D1BE
:100B4000002D15D100208B42F2D1E8E70028EFD02C
:100B50008B42EDD18242EBDC04DBAC42E8D80020D2
:100B6000AC42DCD258000138D9E7002CD7D0DFE7FF
:100B700002204042D3E78B42DAD1EEE730B54200A3
:100B800044024D02C30F4800640A120E6D0A000EA3
:100B9000C90FFF2A17D0FF280AD0002A1BD100282E
:100BA0000AD1002D1DD0002C2DD14800013811E0B4
:100BB000002D0ED1002A01D1002CF6D08B420CD191
:100BC0005800013806E0002C03D1FF2805D1002D84
:100BD00015D0022030BD002806D101205B42184309
:100BE000F8E7002CF6D0F8E78B42F6D18242F4DC2D
:100BF000E6DBAC42F1D80020AC42EBD2E0E70020CB
:100C00008B42EAD1E6E78B42E7D1F2E7F8B54746F7
:100C1000CE46430280B55F0A9B0945004A009C46C8
:100C20004B02C40FCE0F2D0E580A120E9909FF2A3F
:100C30006BD001235E40AB1AB4424BD0002B00DCDA
:100C4000FFE0002A00D188E0FF2D00D1EFE08022F4
:100C5000D204114301201B2B08DC08002022D840BD
:100C6000D31A99400B005A1E9341184363461B1A2E
:100C70009C4663465B0100D4CDE063469F01BF09FB
:100C8000380000F077FA3B0005388340854200DCED
:100C9000A2E0B74A2D1A1A4094465A0700D1C3E081
:100CA0000F221340042B00D1BEE004239846C44415
:100CB00063465B0100D4B7E0681CFE2D00D0A5E0C0
:100CC000FF200022C0051043E4072043C0BCB94602
:100CD000B046F8BD002B00DCEBE1002A46D0FF2D2A
:100CE00000D1A4E08022D20411431B2B00DCFBE0E6
:100CF000052398462B00C4446246D708FF2B00D139
:100D000095E07A02520AD8B2DCE72B00FF3B994605
:100D1000002918D101235E40B44200D1CAE04B46FD
:100D2000002B2DD0002D00D03CE1FF236446002C89
:100D300000D15FE15D1E012B00D174E13400FF2B77
:100D400074D02B0003E1B44200D19CE0002B17D0FB
:100D5000002DEAD0070034006CE00029CCD05A1EE8
:100D6000012B2BD0FF2B62D0130073E70029C3D0D7
:100D70005A1E012B00D11EE1FF2B58D01300B4E7FF
:100D8000FE226B1C1A420DD1002D60D06346002B51
:100D900000D020E1002900D028E180220024FF209B
:100DA000D2038FE763465F1A7B0100D5FEE0002F78
:100DB00000D065E700240020002283E76346591A2B
:100DC0004B0100D419E18F01BF09380000F0D2F9BE
:100DD0003B000538834001252022401B0130121AB8
:100DE00019009340C1405A1E934119438C460B1E73
:100DF000E1D05B0700D152E10F2300250B40042B0B
:100E000000D052E701204A0100D492E0C0B263460C
:100E10009A01520A56E763465B0705D00F236246E4
:100E20001340042B00D040E72B0065E70700002F9C
:100E300000D145E78022D2033A435202FF20520AF2
:100E400040E7002B79D1FE226B1C1A42AAD16346DF
:100E5000002B00D1F5E0002900D1D1E05F1A8023FA
:100E6000DB041F4200D10EE1624601248A1A944637
:100E700000203440002A00D124E701201A42C6D1C4
:100E80000023D7083DE7002B17D0002D00D0AFE09E
:100E9000FF236546002D00D1ADE05E1E012B00D181
:100EA00089E0FF2BC2D01B2E00DCABE04B1D9C4623
:100EB000130021E74B46002B70D1FE226B1C1A4217
:100EC0005ED1002D00D0C3E06346002B00D1D0E0FE
:100ED000002900D194E00A006244530100D4D8E014
:100EE00092010120520AEDE608002022D840D31AD0
:100EF00099400B005A1E934103439C4463465B0197
:100F000089D50135FF2D00D1DAE662460123194962
:100F1000134052080A401A43130094465B0704D05A
:100F20000F231340042B00D0BFE663465B0100D5BE
:100F3000C2E66346DF082B00E3E6531B002D00D119
:100F4000F4E680206446C0040443A4463400012033
:100F50001B2B09DC20256046D840EB1A65469D40D6
:100F60002B005D1EAB4118430B1A9C46150080E612
:100F7000FFFFFFFBFFFFFF7DFE226B1C1342A3D090
:100F8000FF2B00D19CE6614449084A0749D00F2253
:100F90000A40042A45D00A1D9446ADE6002D00D132
:100FA00076E78DE63400FF2000228BE663460124BD
:100FB000CF1A344064E661444B016DD5480844497A
:100FC000014043072CD00F230340042B28D00B1DD6
:100FD0009C46022390E6002900D12BE78023DB0307
:100FE0009F4200D226E7984200D323E701243440F1
:100FF00007001FE734008C467EE60123CF0880E619
:1010000000237EE620206546801B8540634628003D
:10101000F340451EA84103439C4615008C446DE7F0
:101020000223CF086DE60F1B7B0128D5BF01BF0946
:10103000380000F09FF83B0005388340340001255C
:10104000CAE6002900D1B5E601240700344058E67D
:101050006346002B00D1E9E6002900D1EAE68023AF
:10106000DB039F4200D2E5E6984200D3E2E60700A8
:10107000E0E6002900D19EE60023CF0841E63400D7
:101080000123FF083DE6002F00D193E60023FF086F
:1010900037E60023D70834E60123CF0831E6802263
:1010A0000B00D20401201340114200D0AEE6CF085D
:1010B00027E6002B00D15FE7561B002D01D133003E
:1010C000E7E680236046DB0418438446EBE6C0462F
:1010D000FFFFFF7D70B5002812D0C317C5185D4013
:1010E000C40F280000F046F89E231B1A962B0FDC35
:1010F000082838D0083885406D026D0AD8B202E061
:10110000002400200025C0052843E407204370BDCB
:10111000992B14DC421F95402A00154911405507B0
:101120001CD00F252A40042A18D00431CA084901CE
:1011300015D59F235202181A550AC0B2E3E70522BB
:101140002900121AD14002001B3295402A00551E78
:10115000AA410A43064911405507E2D1CA08520282
:10116000550AD8B2CFE76D026D0A8E30CBE7C04684
:10117000FFFFFFFB1C2101231B04984201D3000C3D
:1011800010391B0A984201D3000A08391B099842FA
:1011900001D30009043902A2105C40187047C04610
:1011A0000403020201010101000000000000000030
:1011B00000280DD0C368002B0DD00369002B0DD083
:1011C0004368002B01D00020704701204042FBE71C
:1011D00001204042F8E701204042F5E7012040426B
:1011E000F2E7000010B50B2912D88900B94B5B5803
:1011F0009F46012A0DD0022A11D0002A06D101787B
:101200007F231940017041780B404370032A0CD0B2
:1012100010BD017880235B420B430370EBE74178FC
:1012200080235B420B434370E7E7027880235B42F5
:101230001A430270427813434370E9E7012A14D03D
:10124000022A17D0002A06D1037840218B4303706D
:1012500043788B434370032ADAD103784022134347
:101260000370437813434370D2E7037840210B4364
:101270000370E5E7437840210B434370E2E7012A1E
:1012800014D0022A17D0002A06D1037820218B43DC
:10129000037043788B434370032AB9D1037820222B
:1012A00013430370437813434370B1E7037820215D
:1012B0000B430370E5E7437820210B434370E2E7DB
:1012C000012A14D0022A17D0002A06D1037810214F
:1012D0008B43037043788B434370032A98D1037880
:1012E00010221343037043781343437090E703784D
:1012F00010210B430370E5E7437810210B43437043
:10130000E2E7012A15D0022A18D0002A06D1037874
:1013100008218B43037043788B434370032A00D02A
:1013200076E703780822134303704378134343702E
:101330006EE7037808210B430370E4E74378082144
:101340000B434370E1E7012A15D0022A18D0002A86
:1013500006D1037804218B43037043788B43437099
:10136000032A00D054E70378042213430370437820
:10137000134343704CE7037804210B430370E4E705
:10138000437804210B434370E1E7012A15D0022A78
:1013900018D0002A06D1037802218B4303704378CA
:1013A0008B434370032A00D032E7037802221343B1
:1013B00003704378134343702AE7037802210B43F9
:1013C0000370E4E7437802210B434370E1E7012A0D
:1013D00015D0022A18D0002A06D1037801218B43A8
:1013E000037043788B434370032A00D010E70378DF
:1013F00001221343037043781343437008E70378D3
:1014000001210B430370E4E7437801210B43437050
:10141000E1E7012A17D0022A1AD0002A07D18178E1
:1014200008230C009C43847077230B408370032AAD
:1014300000D0EDE6827808231343837078235B4263
:1014400013438370E4E6837808210B438370E2E75B
:10145000817880235B420B438370DEE7012A16D03C
:10146000022A19D0002A07D1837804211C008C435A
:10147000847044218B438370032A00D0C8E68378AC
:1014800004221A438270442213438370C0E6837897
:1014900004210B438370E3E7837840210B4383707F
:1014A000E0E7012A18D0022A1BD0002A07D183784E
:1014B00001211C008C43847011218B438370032A0B
:1014C00000D0A5E6837801221A43827011221343CB
:1014D00083709DE6504E0008837801210B43837092
:1014E000E1E7837810210B438370DEE7F0B5D64641
:1014F0004F464646C0B50500894690461E00180076
:10150000FFF756FE071E2BD14B46002B30D043462B
:10151000012B04D04346012B24D900240CE034696C
:101520007368424649462800A04730770028F1D02A
:10153000023FEFE70134E4B22100444512D2002F0C
:1015400010D133699A467368494401222800D04774
:1015500030770135EDB20028ECD002277F42E9E771
:1015600001277F423800E0BCBA46B146A846F0BD2C
:1015700001277F42F6E730B583B00B0001A90022B6
:101580000A8002780A7042785201D2B24A70857895
:101590002D0110242C4022434A70C4780F20204093
:1015A00002434A7002225520FFF7A0FF03B030BD6E
:1015B00070B584B005000E0001AC0B2200212000A4
:1015C00002F080FF2A795201D2B2227069790901B2
:1015D00010230B401A432270297A88000C23034001
:1015E0001A432270687A032303401A432270AA79AF
:1015F0005200022313406370E87901220240134332
:1016000063702B78A3706B881A0AE270237100292B
:1016100016D16B89AA7A210062711B0AA371AB896A
:101620002A7BE2711B0A2372EB89AA7B62721B0A76
:10163000A37233000B223F20FFF758FF04B070BDA8
:101640003300052201A93F20FFF750FFF6E770B5F0
:1016500084B005000E0001AC0B220021200002F036
:1016600031FF2A795201D2B222706979090110231F
:101670000B401A432270297A88000C2303401A4336
:101680002270687A032303401A432270AA79520019
:10169000022313406370E879012202401343637010
:1016A0002B78A3706B881A0AE2702371002916D177
:1016B0006B89AA7A210062711B0AA371AB892A7B0C
:1016C000E2711B0A2372EB89AA7B62721B0AA37266
:1016D00033000B224A20FFF709FF04B070BD33002E
:1016E000052201A94A20FFF701FFF6E770B584B093
:1016F00004000E0001AD0A220021280002F0E2FEE3
:1017000022785201D2B22A706178090110230B406D
:101710001A432A70A17888000C2303401A432A70C8
:10172000E3786B702379AB706379EB70002916D185
:10173000E388A27929002A711B0A6B712389227A16
:10174000AA711B0AEB716389A27A2A721B0A6B7257
:1017500033000A223520FFF7C9FE04B070BD330004
:10176000042201A93520FFF7C1FEF6E730B583B0AA
:1017700004000D0005220021684602F0A3FE237834
:1017800003221A406B461A70617889001C230B40B3
:101790001A436B461A70A3785B011A436B461A70A2
:1017A000E3786A465370237993706379D370A37991
:1017B00013712B00052269462F20FFF797FE03B017
:1017C00030BDF0B5CE46474680B5A1B0040088468E
:1017D00017001E001800FFF7EBFC8146002829D1F6
:1017E0004346002B2AD07378012B03D080235B4221
:1017F0001C43E4B2F568327A7368D2196946200056
:10180000A8473077002801D100240BE002235B4277
:10181000994609E0357A65196B465B5D424613557A
:101820000134A4B2BC42F5D3484621B0C0BCB9468D
:10183000B046F0BD01235B429946F5E701235B42C8
:101840009946F1E730B583B005006B460022DA71A6
:10185000FFF7AEFC041E0AD16B696968144898470B
:101860006B78002B06D000232B72002C0DD02000AB
:1018700003B030BD01332B722B00012269460731C2
:101880000020FFF79EFF0400EFE72B0001226946CE
:1018900007310020FFF795FF041EE8D16B460733A0
:1018A0001B78902B01D12B70E1E703246442DEE723
:1018B0008813000070B584B005000C0016000922E2
:1018C000002101A802F0FEFD002D3FD0012D50D1D6
:1018D0003300092201A90420FFF773FF002833D148
:1018E00001AA1378527812029B189AB21BB2238075
:1018F000802109018B4203DB1F4B9C4662442280FE
:1019000001AB9A78DB781B0213431BB26380802201
:101910001201934204DB9BB2174A944663446380EE
:1019200001AB1A795B791B0213431BB2A38080229F
:101930001201934204DB9BB20F4A94466344A38096
:10194000002D0AD10023A36004B070BD330006222D
:1019500001A90420FFF735FFC0E7012DF4D101A94B
:101960008A79CB791B02097A09045B18D318A36022
:10197000EAE704204042E7E700F0FFFF30B583B01C
:1019800004000D00224B1A8869468A809B788B716F
:101990002B00032201A91920FFF713FF002801D013
:1019A00003B030BD01A9087862797F230340D201DA
:1019B0001343DBB20B7020794001602202406020AB
:1019C000834313430B70487863783F2202409B01A6
:1019D0001A43D2B24A70E07800013023034030202D
:1019E00082431A434A7020780F239A4303401A43D4
:1019F0004A708B78A07880000C2202400C20834330
:101A000013438B702B0003220D30FFF76FFDC7E7E8
:101A1000D04D000830B583B005000C0001A90023AB
:101A20000B80230002225720FFF7CBFE002801D0B5
:101A300003B030BD01A90B782878C00018220240FD
:101A40001820834313430B706878072293430240A6
:101A500013430B704A78287900013023034030206B
:101A600082431A434A70E87880000C2303400C201C
:101A700082431A434A70A87803239A4303401A43C7
:101A80004A70230002225720FFF730FDD0E7F0B55F
:101A900083B001900C0016000B78002B18D00022A8
:101AA000002104256D422378012B19D02378022BC5
:101AB0001ED02378032B23D02778042F28D0237817
:101AC000052B2DD02378062B32D0002D36D132E0D5
:101AD000881C1100FFF752FF0500227A0121E2E77E
:101AE000A01C3100FFF796FF0500E2790921DDE730
:101AF000A01C3100FFF73FFD0500A2790821D8E7BF
:101B0000A01C3100FFF754FD0500A27C0521D3E79E
:101B1000A01C3100FFF79BFD0500A27C3900CEE739
:101B2000A01C3100FFF7E2FD0500A27B0621C9E7FA
:101B3000A2780A2100250198FFF754FB280003B082
:101B4000F0BD30B583B005000C000B0001226946E2
:101B500005312D20FFF735FE002801D003B030BD40
:101B600001A94B7828788000042202400420834396
:101B700013434B70688802110A700F221340000152
:101B800003434B7023000D3A2C20FFF7AFFCE5E731
:101B900070B582B004000D000B00012269460731C8
:101BA0002B20FFF70EFE00280DD16B46D91DDB79E7
:101BB00026780F229343324013430B700C23334299
:101BC00003D100281DD002B070BD2B000122694650
:101BD00006312A30FFF7F5FD0028F4D16288131191
:101BE000694606310B706B46D81DDC790F23234004
:101BF0001201134303702B0001222A20FFF776FC09
:101C0000DFE72B000122694607312B30FFF76EFC1E
:101C1000D9E730B585B001AB18800C000B0001226C
:101C20000F2169442420FFF7CCFD00280CD101AB23
:101C30001B78012B0AD0022B15D0230001220F2183
:101C400069442420FFF752FC05B030BD0F306844D2
:101C5000027801A94D786D00062129400625AA4386
:101C60000A430270E7E70F206844037801AA51781D
:101C7000490160220A4060218B4313430370DCE773
:101C800030B583B004000D000800FFF791FA00287A
:101C900001D003B030BD2B00032269462630FFF788
:101CA00090FD0028F5D1237801AA13706278002AEC
:101CB00006D16A461278DB435BB2134001AA137067
:101CC0006388A07801A948701B0A8B700722134013
:101CD0008B706A465278904203D16A46927893425A
:101CE00006D02B00032201A92620FFF7FFFBD0E737
:101CF0002B0001222620FFF7F9FBCAE770B582B05E
:101D000005000E006B460022DA710800FFF750FA5A
:101D1000041E02D0200002B070BD330001226946CB
:101D200007311920FFF74DFD041EF3D16B46DA7918
:101D300003232B4003218A4313436A46D3713300A4
:101D40000122694607311920FFF7D0FB0400012D5D
:101D500004D07369716804489847DBE77369716858
:101D600002489847D6E7C04610270000409C000074
:101D700070B506000D0014001000FFF719FA0028D6
:101D800007D1002D08D0220029003000FFF792FD76
:101D900070BD01204042FBE701204042F8E7F0B56A
:101DA00083B006000F0015000322002101A802F0F5
:101DB00089FB2800FFF7FCF9002824D1002E25D04C
:101DC0002B00032201A92130FFF7FBFC002801D0E2
:101DD00003B0F0BD0024BC420CD200280AD1A100FF
:101DE0000919890071182A0001A8FFF750FE013473
:101DF000A4B2F0E70028EBD12B00032201A9213087
:101E0000FFF774FBE4E701204042E1E70120404294
:101E1000DEE70000F0B5CE46474680B583B0060049
:101E20000F0090460322002101A802F04BFB404620
:101E3000FFF7BEF9002800D06DE0002E00D16DE064
:101E40004346032201A92130FFF7BBFC0500002413
:101E500007E0484602304146FFF773FE05000134B3
:101E6000A4B2A74247D9002D45D1A3001B195B009E
:101E7000F2189146F35C052B3AD89B00294AD358B7
:101E80009F464B46981C4146FFF770FC051EE6D165
:101E90004B465A7A072101A8FFF7A4F9DFE7484625
:101EA00002304146FFF774FE0500D8E74B465888DC
:101EB0004146FFF7AEFE0500D1E74B469A780B216D
:101EC00001A8FFF78FF9CAE74B46981C4146FFF778
:101ED000D7FE051EC3D14B46DA79022101A8FFF7D0
:101EE00081F94B469A79032101A8FFF77BF9B6E700
:101EF00004256D42B3E7002D05D0280003B0C0BC17
:101F0000B946B046F0BD4346032201A92120FFF7A0
:101F1000EDFA0500F1E701256D42EEE701256D427E
:101F2000EBE7C046804E000830B583B005000C00DA
:101F30000B000122694607312D20FFF742FC0028E3
:101F400001D003B030BD6B46DB796D0002222A4020
:101F500002218B4313436A46D37123000122694651
:101F600007312D30FFF7C2FAEBE710B584B004005B
:101F7000180001235B42029392B201920091023356
:101F80002200282101F020F9002801D104B010BD61
:101F900002204042FAE710B584B004001800012383
:101FA0005B42029392B201920091023322002821F7
:101FB00001F03AF8002801D104B010BD02204042DF
:101FC000FAE710B5FA218900FEF7B0F800F09AFCA4
:101FD00010BD0000F0B58BB01422002105A802F05E
:101FE00071FA224B5A6B042422435A635A6B2240E3
:101FF0000192019A596B202211435963596B0A408F
:102000000292029A5A6B01252A435A635A6B2A405C
:102010000392039A596B0222114359635B6B1A4076
:102020000492049BD0277F00A026F60500223900E9
:10203000300000F0B9FD059400240694079405A92A
:102040000B4800F0D9FC059706950794089405A95C
:10205000300000F0D1FC402305930694079505A9B4
:10206000300000F0C9FC0BB0F0BDC04600100240CB
:102070000014005010B51448144B0360144B436017
:10208000002383600122C260036143618361C361F5
:10209000036200F05BFF00280CD10B48002101F027
:1020A00067F9002809D10848002101F08DF90028BE
:1020B00006D110BD00F0D0F9EFE700F0CDF9F2E75E
:1020C00000F0CAF9F5E7C04698000020005400402F
:1020D000412D400010B58EB004001422002109A843
:1020E00002F0F0F91C22002102A802F0EBF92268AC
:1020F000174B9A4201D00EB010BD0223029302A8E2
:1021000001F008FC002820D1124C626B02231A4314
:102110006263626B13400093009BC0230993AE3B44
:102120000A93113B0B9300230C9306330D9309A9DB
:10213000094800F061FCE36B802292031343E363E0
:10214000E36B13400193019BD5E700F085F9DBE7D2
:10215000005400400010024000040050F0B58FB061
:10216000050001000220FFF7C9FD06AC1E22002178
:10217000200002F0A7F9022323700E22A270144A55
:10218000A2800126A67223736373A3730522E273F0
:10219000E67403272775A675E3752A00032120003E
:1021A000FFF738FE01AC14220021200002F08AF96A
:1021B0000B23A370267167712A0001212000FFF70D
:1021C000EEFD29000120FFF7AFFE0FB0F0BDC046C5
:1021D000204E0000F8B507000E000024002507E09F
:1021E000A300D959281CFEF751F9051C0134E4B2AB
:1021F000B442F5D33000FEF76DFF011C281CFEF73A
:1022000037FBF8BD10B584B004000B00084A10215C
:10221000684602F021F96846FDF776FF012382B295
:102220005B426946200001F060FF04B010BDC0466B
:10223000984E0008F0B585B00368734A934205D004
:10224000724A934200D1C4E005B0F0BD704A01A9C2
:102250000020FFF78DFD0028F6D16E4B1C78092C6D
:1022600057D901AB0220185E6B4A15786C1CE4B29A
:1022700014706A4EAD00FEF72DFF7051092C02D983
:10228000654B00221A7065480A21FFF7A3FF041C62
:1022900063490A88531C9BB20B80624992005050DC
:1022A00096225200934202D35D4B00221A805E4B6D
:1022B0001B8896225200934202D25B4A013313805C
:1022C0005A4B1868211CFEF7CDF8002801D0574B57
:1022D0001C60574B1868211CFEF7B0F8002801D08D
:1022E000534B1C60524B1868504B1968FEF78EFC1C
:1022F000504B1B78002B22D0012BA5D14A4B1A88BA
:1023000096235B009A429FD1464B1E68371C0124DE
:102310002BE001AB0220185E3F4A1678751CEDB227
:1023200015703E4FB600FEF7D5FEB851092D02D903
:10233000394B00221A70374B01341C7084E73E4938
:10234000FEF79AF8002800D17EE73A4B01221A7076
:102350003A4B00241C803A4801F076FB304B1C803D
:10236000314B1C8070E70134A4B296235B009C4281
:1023700011D22C4BA200D558291C301CFEF772F844
:10238000002800D02E1C291C381CFEF757F8002806
:10239000E9D02F1CE7E7311C381CFEF737FC294930
:1023A000FEF756F8002800D14EE7224B00241C709F
:1023B000234801F07DFB214B198889B22248FFF7A1
:1023C00021FF1A4B00221A60194B1A60124B1C7025
:1023D0003AE71A4A138801339BB213801B4A1388C9
:1023E00001339BB21380FA22D200934200D22BE732
:1023F000164B00221A80164B01321A700F4B1B88A5
:102400009BB2144A13801FE70020004000440140A3
:1024100000000020EF000020B4050020B8050020D7
:10242000020100200401002000010020FC00002027
:10243000F8000020EE00002000004843F4000020D7
:10244000E40500200000F0427C060020EC000020A3
:10245000F2000020F000002010B58021A020012211
:102460004900C00500F0A0FBFEE7000000B58DB0FC
:102470001C22002105A802F025F81422002168463C
:1024800002F020F8124A136807218B4313600223DD
:102490000593FE33089380235B01099340230A933D
:1024A00005A800F0BBFF00280ED1072300930023EE
:1024B00001930293039304930021684601F03CF9D1
:1024C000002803D10DB000BDFFF7C6FFFFF7C4FF22
:1024D0000020024010B500F0F7F9FFF7C7FFFFF743
:1024E00079FDFFF7C7FD00F01FF900F0B1F800F02B
:1024F000C7F81C4C2000FFF7A5F92000FFF72EFEBF
:10250000A02001222021C00500F04EFB96204000B3
:1025100000F0F8F914486F21FFF774FE134801F03A
:1025200093FA002304E0124A9900002088500133F6
:10253000092BF8DD0F4B00221A600F4B1A600F4B6E
:1025400000221A700E4B1A700E4B1B78002BFBD01A
:102550000C4B00221A700C4B198889B20248FFF705
:1025600051FEF1E7000000207C060020300600202C
:10257000B8050020FC000020F8000020B405002071
:10258000EE000020F2000020F000002000B583B033
:102590000C4B196C012211431964196C0A4000920A
:1025A000009ADA6B802149050A43DA63DB6B0B4042
:1025B0000193019B082000F0B7F9102000F0B4F956
:1025C00003B000BD00100240FEE7FEE77047704711
:1025D00010B500F085F910BD10B5024801F088FA79
:1025E00010BDC0463006002010B5024801F080FA48
:1025F00010BDC046E405002010B503000C4A0D498B
:10260000521A0D490968002907D00B490868C318F8
:10261000934206D8084A136010BD0749074808606E
:10262000F3E701F057FF0C23036001204042F3E77A
:102630000018002000040000E005002060080020D1
:10264000024B802212059A607047C04600ED00E000
:1026500010B50948094B036077234360002383606A
:102660007C22C2600361836101F038FB002800D145
:1026700010BDFFF7F1FEFBE7300600200020004010
:1026800010B50A480A4B03600A4B4360002383607D
:102690000922C26003614361836101F01FFB0028CE
:1026A00000D110BDFFF7D8FEFBE7C046E4050020CF
:1026B00000440140AF04000000B583B00368174A2E
:1026C000934204D0164A934214D003B000BD154B78
:1026D0001A6C802109020A431A641B6C0B40009398
:1026E000009B00220021132000F072F9132000F05B
:1026F00073F9EAE70B4B1A6C802189020A431A64CA
:102700001B6C0B400193019B00220121152000F05E
:102710005FF9152000F060F9D7E7C04600200040BF
:10272000004401400010024010B51948194B0360E5
:10273000E1235B02436000238360C36003610C22DA
:1027400042618361C36103624362836201F0B6FD4B
:10275000002811D10E48002101F030FE00280ED1D2
:102760000B48002101F050FE00280BD1084801F071
:1027700005FE002809D110BDFFF76EFEEAE7FFF75E
:102780006BFEEDE7FFF768FEF0E7FFF765FEF2E7A7
:102790007C0600200038014010B58EB004001422E1
:1027A000002109A801F08EFE1C22002102A801F0E0
:1027B00089FE2268174B9A4201D00EB010BD01234A
:1027C000029302A801F0A6F8002820D1124B1A6C3F
:1027D0008021C9010A431A641A6C0A400092009AC7
:1027E000596B0122114359635B6B13400193019BA9
:1027F000C023DB00099302230A9300230B930C935D
:102800000D92A02009A9C00500F0F6F8D5E7FFF762
:1028100023FEDBE700380140001002400D488546EA
:10282000FFF70EFF002103E00B4B5B5843500431D0
:102830000A480B4B42189A42F6D30A4A02E0002398
:1028400013600432084B9A42F9D301F049FEFFF7B6
:1028500041FEFEE700180020604F00080000002045
:102860007C0000207C0000205C080020FEE70000C7
:1028700010B50400114B1978002901D1012010BDB9
:10288000FA208000FDF752FC01000D4B1868FDF79F
:102890004DFC00F0ADF800280DD1032C01D901202A
:1028A000EDE7013000222100404200F091F8054B95
:1028B0001C600020E3E70120E1E7C046240000207F
:1028C000200000202800002010B50320FFF7D0FFD3
:1028D000041E02D00124200010BDFFF757FEFAE7C6
:1028E000034B1B78034A11685B1813607047C0469E
:1028F0002400002010070020014B18687047C046D4
:102900001007002070B50400FFF7F6FF0500631CF8
:1029100002D0044B1B78E418FFF7EEFF401BA042E7
:10292000FAD370BD24000020024A136803431360E9
:102930007047C0460000014070B5002811DB8308D5
:10294000134DC0339B005C5903221040C000FC3281
:1029500016008640B44389010A40824022435A51FE
:1029600070BD0F230340083B9B0806339B00094AB8
:10297000944663445C6803221040C000FC3215009A
:102980008540AC4389010A40824022435A60E7E710
:1029900000E100E000ED00E0013880235B04984294
:1029A0000FD2094A50600948036A1B021B0AC02162
:1029B00009060B4303620023936007331360002072
:1029C00070470120FCE7C04610E000E000ED00E0A9
:1029D00010B5FFF7B1FF10BD002805DB1F22024034
:1029E00001239340014A13607047C04600E100E0B4
:1029F00010B5FFF7D1FF10BDF0B5D6464F4646469D
:102A0000C0B500233BE0052500E00025A5402C00D3
:102A10003C43614D1832920054518022AF584A46CF
:102A2000D2433D004C46A5434C68E40302D53D002B
:102A30004C462543584C8027E551842567593D0075
:102A400015404C68A40302D53D004C462543524C2A
:102A50008427E55127683D0015404C68E40202D503
:102A60003D004C4625434C4C256065682A404C6827
:102A7000A40201D54A462A43474C626001330C68E0
:102A80002200DA4000D181E001229A40260016405F
:102A9000B1461442F2D04C68022C01D0122C18D14D
:102AA000DD080835AD002C58A44607271F40BF009D
:102AB0000F24A2462600BE40B04666464446A643C2
:102AC000B4460C69564626403400BC406646344342
:102AD0002C500468A4465D000324A2462700AF40A2
:102AE000B846FF4366464446A643B4464C6856463D
:102AF00026403400AC406646344304604C68661E91
:102B0000012E03D9112C01D0122C12D184683C4023
:102B1000A446CC68AC406646344384604468944321
:102B20004A68120994460122664632409A4022437E
:102B300042604A68032A05D0C4683C408A68AA40BB
:102B40002243C2604A68D20098D59A08140018340B
:102B5000A400114D675903241C40E4000F25A54033
:102B6000AF43A025ED05A84200D14EE70B4DA8428A
:102B700008D00B4DA84207D00A4DA84200D142E729
:102B8000062543E7012541E702253FE7E0BCBA46B9
:102B9000B146A846F0BDC0460018024000040050EF
:102BA0000008005000140050002A01D081617047D5
:102BB0008162FCE7026893699B0701D50023936259
:102BC00003689A69D20703D49A6901210A439A617A
:102BD0007047000010B58905890D1204114319438F
:102BE000029B194349004908046862685B0D802014
:102BF000C0000340034803439A4313000B43636040
:102C000010BDC046FF63FF03F0B5C64600B5040023
:102C10000D00170001688B69102216001E401A4231
:102C200000D175E01023CB61002398460026206870
:102C300083699B0631D4002E2FD16B1CF7D0FFF790
:102C40005BFEC01BA84201D8002DF0D121684B6863
:102C50008022D20113404222A25CD2B288690004D1
:102C600003D5002B01D1202A0ED123689B699B0636
:102C7000DDD4FFF741FEC01B1928F6D920234246B8
:102C80001A4390460126D2E74A688023DB011343AA
:102C90004B60FFF731FE0700E7E7002E01D120234C
:102CA000C3610426434633431E000125226893690D
:102CB000D90504D501210E43FF31D16101255A0503
:102CC00006D50822164322688021C900D16101255A
:102CD0009B051FD502231E43236880229200DA61E0
:102CE00001252000FFF766FF226853680B490B405F
:102CF0005360636C3343636441232022E254002316
:102D00002232A354023AA354280080BCB846F0BD36
:102D10000025CBE7002DF7D0E3E7C04600E800FE32
:102D200070B504000D00160023689B699B0720D432
:102D3000320029002000FFF767FF00281BD16B1C21
:102D4000F2D0FFF7D9FD801BA84201D8002DEBD1AE
:102D500023689B699B07E7D4636C20221343636459
:102D60004123E25400232232A354023AA354012007
:102D700000E0002070BD0120FCE7F0B5D6464F46CC
:102D800080B583B007000D00160099460A9B9A464D
:102D90003B689C692C40641B63425C410196B442D1
:102DA00028D1524649463800FFF72EFF002827D188
:102DB0004B460133ECD0FFF79FFD5346C01A484500
:102DC00002D84B46002BE3D13B689B692B405B1B31
:102DD0005A425341019A9342DAD17B6C2022134329
:102DE0007B644123FA5400232232BB54023ABB5481
:102DF000012000E0002003B0C0BCBA46B146F0BDDF
:102E00000120F8E770B582B0040015001E00802391
:102E1000F2B2194800905B042000FFF7DBFE079A2E
:102E200006992000FFF77CFF00281ED1012E0ED14D
:102E30002368EDB29D62079B0093069B00228021D0
:102E40002000FFF79AFF002813D102B070BD23685D
:102E50002A0A9A62079A06992000FFF761FF002864
:102E600005D12368EDB29D62E5E70120EDE7012081
:102E7000EBE70120E9E7C0460020008070B582B092
:102E8000040015001E00DAB2184B00930023FFF770
:102E9000A1FE079A06992000FFF742FF00281ED1E5
:102EA000012E0ED12368EDB29D62079B0093069B15
:102EB000002240212000FFF760FF002813D102B05C
:102EC00070BD23682A0A9A62079A06992000FFF7C4
:102ED00027FF002805D12368EDB29D62E5E70120B8
:102EE000EDE70120EBE70120E9E7C0460020008084
:102EF00070B504000D00160003E023689B699B0673
:102F000012D523689B699B061BD432002900200040
:102F1000FFF77AFE002816D1FFF7EEFC801BA842CF
:102F2000EBD8002DEDD1E8E7636C202213436364F6
:102F30004123E25400232232A354023AA354012035
:102F400000E0002070BD0120FCE7000010B5041E69
:102F500060D04123C35C002B48D041232422E2549B
:102F60002268136801218B431360636822682A4931
:102F70000B4013612268936828490B409360E36813
:102F8000012B39D0A168226884231B020B43936074
:102F9000E368022B37D02268536821490B40536005
:102FA000226851681F4B0B4353602268D3681B494A
:102FB0000B40D360236962691343A269120221683E
:102FC0001343CB60E369216A22680B4313602268D4
:102FD000136801210B4313600023636441221F31F6
:102FE000A15423630132A354002010BD40330022BA
:102FF000C254FFF76FF8B0E7A168226880231B0274
:103000000B439360C4E72268516880231B010B4384
:103010005360C5E70120E8E7FFFFFFF0FF7FFFFFF8
:10302000FFF7FFFF00800002F0B587B004000391B6
:10303000049205930CAB20CB1F884123C35C202B4B
:1030400000D0B3E0002D18D0002F16D04023C35C71
:10305000012B00D1ADE040230122C254FFF74CFC0C
:103060000600802100901923012209022000FFF7A9
:1030700084FE002806D0012099E080239B00636431
:10308000012094E041232122E25401331F32E25413
:103090000023636465626785636301960E9B0093FA
:1030A000059B049A03992000FFF7ACFE00280FD17E
:1030B000638D9BB2FF2B10D9FF2323857F3B00221A
:1030C00000925B04FF3203992000FFF783FD21E0AB
:1030D00040230022E254012069E0628D92B22285F1
:1030E0008023D2B2002100919B0403992000FFF7B6
:1030F00071FD0FE0628D92B222858023D2B2002151
:1031000000919B0403992000FFF764FD638D9BB23F
:10311000002B34D032000E992000FFF701FE00286A
:1031200049D1626A236812789A62636A01336362E2
:10313000638D013B9BB26385238D013B9BB223854D
:10314000628D92B2002AE1D0002BDFD100960E9B57
:10315000002280212000FFF710FE00282DD1638D72
:103160009BB2FF2BC6D9FF2323857F3B0022009211
:103170005B04FF3203992000FFF72CFDC6E7320005
:103180000E992000FFF7B4FE002818D123682022F2
:10319000DA6121684B680B4D2B404B604123E254B0
:1031A00000232232A354023AA35400E0022007B0C5
:1031B000F0BD0220FBE70120F9E70120F7E701203D
:1031C000F5E7C04600E800FEF0B587B004000391C3
:1031D000049205930CAB20CB1F884123C35C202BAA
:1031E00000D0B5E0002D18D0002F16D04023C35CCE
:1031F000012B00D1AFE040230122C254FFF77CFB3A
:103200000600802100901923012209022000FFF707
:10321000B4FD002806D001209BE080239B0063645E
:10322000012096E041232222E25401331E32E2546F
:103230000023636465626785636301960E9B009358
:10324000059B049A03992000FFF718FE00280FD170
:10325000638D9BB2FF2B10D9FF2323857F3B424A0E
:1032600000925B04FF2203992000FFF7B3FC21E0EA
:1032700040230022E25401206BE0628D92B222854D
:103280008023D2B2384900919B0403992000FFF7B4
:10329000A1FC0FE0628D92B222858023D2B2002180
:1032A00000919B0403992000FFF794FC638D9BB26F
:1032B000002B36D000960E9B002204212000FFF741
:1032C0005CFD002849D123685A6A636A1A70636AF0
:1032D00001336362238D013B9BB22385628D013AEA
:1032E00092B26285628D92B2002ADFD0002BDDD1CE
:1032F00000960E9B002280212000FFF73EFD002853
:103300002DD1638D9BB2FF2BC4D9FF2323857F3B37
:10331000002200925B04FF3203992000FFF75AFC61
:10332000C4E732000E992000FFF7E2FD002818D113
:1033300023682022DA6121684B680C4D2B404B60DA
:103340004123E25400232232A354023AA35400E062
:10335000022007B0F0BD0220FBE70120F9E70120C1
:10336000F7E70120F5E7C0460024008000E800FEF2
:10337000F0B54123C35C202B20D12033C35C012B4B
:103380001ED04024012202554125242343550668BE
:10339000336893433360066833680A4F3B403360B9
:1033A000066833680B43336001680B6813430B6096
:1033B00020234355002303550020F0BD0220FCE7E5
:1033C0000220FAE7FFEFFFFFF0B54123C35C202B9B
:1033D0001ED12033C35C012B1CD040240122025596
:1033E00041252423435506683368934333600668B8
:1033F0003368094F3B4009021943316001680B688B
:1034000013430B6020234355002303550020F0BDD8
:103410000220FCE70220FAE7FFF0FFFF70B5041E70
:1034200000D139E10368DB072CD5A14B9A6838231A
:103430001340082B22D043688022520293422ED0A0
:10344000A022D202934231D0994B1A6899490A407E
:103450001A601A6898490A401A606368002B31D0D4
:10346000FFF74AFA0500924B1B689B030AD4FFF74B
:1034700043FA401B6428F6D903200EE14368002B71
:1034800000D10BE123689B0747D5894B9B68382205
:103490001A4261D1E368002B22D10120FDE0844A69
:1034A000116880235B020B431360D6E7804B1968D9
:1034B0008022D2020A431A601968802252020A430B
:1034C0001A60CAE7FFF718FA0500794B1B689B03DF
:1034D000D8D5FFF711FA401B6428F6D90320DCE0A9
:1034E000734B5A6875490A40616909020A435A6078
:1034F0001A6873490A4021690A431A601B68DB0A8B
:1035000007221A406F4BD3406F4A13606F4B186805
:10351000FFF7AEF9002800D0C2E023681B0757D59B
:10352000634B9A6838231340182B4ED0A369002BA5
:1035300077D05F4A136E01210B431366FFF7DCF966
:1035400005005B4B1B6E9B0742D4FFF7D5F9401B70
:103550000228F6D90320A0E0E368002B22D0544AC9
:10356000136857490B4021690B431360116880238E
:103570005B000B431360FFF7BFF905004C4B1B6862
:103580005B0506D4FFF7B8F9401B0228F6D90320E3
:1035900083E047494B68494A13406269120213436A
:1035A0004B60BAE7424A136849490B401360FFF782
:1035B000A3F905003E4B1B685B05AED5FFF79CF9F0
:1035C000401B0228F6D9032067E0A369002B69D0CD
:1035D00023685B0768D5364B9A6838231340202B45
:1035E00032D0A368012B34D0052B38D0304BDA6DA4
:1035F00001218A43DA65DA6D03318A43DA65A3680B
:10360000002B38D0FFF778F90400294BDB6D9B07BE
:103610002FD4FFF771F9001B2E4B9842F5D90320E8
:103620003BE0234A136E01218B431366FFF764F9D5
:1036300005001F4B1B6E9B07CAD5FFF75DF9401BAA
:103640000228F6D9032028E0A368002B2ED0002002
:1036500023E0174AD36D01210B43D365CFE7144B09
:10366000DA6D04210A43DA65DA6D03390A43DA6553
:10367000C5E7002011E0FFF73FF904000C4BDB6DBC
:103680009B0707D5FFF738F9001B124B9842F5D975
:10369000032002E0002000E0012070BD0120FCE7D3
:1036A0000120FAE70120F8E70020F6E70120F4E71F
:1036B00000100240FFFFFEFFFFFFFBFFFF80FFFF48
:1036C000FFC7FFFF006CDC02200000202800002064
:1036D000FFFEFFFF88130000144B9B6838221A423C
:1036E00007D1124B1A68D20A072313401048D8405A
:1036F00070470E4B9A6838231340082B10D00B4BA1
:103700009A6838231340202B0CD0084B9A68382332
:103710001340182B01D00020EAE7FA20C001E7E7A8
:103720000448E5E780200002E2E7C04600100240BE
:10373000006CDC0200127A0070B504000D00002855
:1037400000D1A4E0544B1A68072313408B4221D3C5
:1037500023689A0710D55B0707D550498A68504BF4
:103760001A40B0231B0113438B604C4A93684D49A8
:103770000B40E1680B4393602368DB074CD563681B
:10378000012B1ED0002B39D1444A126852051CD49B
:10379000012064E0404A136807218B432B431360E8
:1037A000FFF7AAF806003C4B1A6807231340AB4208
:1037B000CED0FFF7A1F8801B3B4A9042F3D90320FB
:1037C0004DE0364A1268920363D534498A6807206F
:1037D000824313438B60FFF78FF806002F4B9B68E3
:1037E00038221A406368DB009A4215D0FFF784F84C
:1037F000801B2D4B9842F1D9032030E0032B05D0DC
:10380000264AD26D9207E0D4012028E0234A126EA6
:103810009207DAD4012022E01F4B1A6807231340D5
:10382000AB421DD823685B0706D51C4A93681F4925
:103830000B4021690B439360FFF74EFF174B9A68CB
:10384000120A0F2313401A4A9B009A581F23134051
:10385000D840184B1860184B1868FFF709F870BD6E
:103860000D4A136807218B432B431360FFF744F87D
:103870000600094B1A6807231340AB42D2D0FFF76A
:103880003BF8801B084B9842F3D90320E7E701205F
:10389000E5E70120E3E7C0460020024000100240B7
:1038A000FF84FFFFFFF0FFFF88130000FF8FFFFF83
:1038B000BC4E0008200000202800002010B5FFF7B3
:1038C0000BFF074B9A68120A0F231340054A9B000F
:1038D0009A581F231340D840034B186010BDC046B0
:1038E00000100240BC4E00082000002010B5FFF779
:1038F000E5FF064B9A68120B07231340044A9B000E
:103900009A581F231340D84010BDC04600100240F3
:103910009C4E000870B582B0040003685B0650D569
:10392000424BDB6BDB0035D4404BDA6B8021490521
:103930000A43DA63DB6B0B400193019B01253B4B90
:10394000D96DC02292000B001340114235D0A269FC
:103950009A420DD0354AD36D35490B40D06D802148
:1039600049020143D165D16D32480140D165D3652B
:10397000DB0711D42D4AD36D2D490B40A1690B43B0
:10398000D3650020012D1DD1284AD36B2A490B4055
:10399000D36317E00025D2E7FEF7AEFF0600234B06
:1039A000DB6D9B0707D4FEF7A7FF801B234B9842D4
:1039B000F5D9032002E0002000E000200028E1D13A
:1039C000D8E700202368DB0706D5184A536D03218A
:1039D0008B43A1680B43536523689B0706D5134AA5
:1039E000536D17490B40E1680B43536523689B06F1
:1039F00006D50E4A536D9B009B0861690B435365C6
:103A000023685B0706D5094A536D0E490B402169AF
:103A10000B43536523681B0606D5044A1368E0214F
:103A20008B4361680B43136002B070BD001002400D
:103A3000FFFCFFFFFFFFFEFFFFFFFFEF881300000B
:103A4000FFCFFFFFFF3FFFFF3D23C35C012B22D1D0
:103A50003C330222C2540268D36801210B43D36075
:103A60000368104A934208D00F4A934205D01A685F
:103A700001210A431A6000200EE09A680B490A40AF
:103A8000062A0AD007398A4209D01A6801210A4356
:103A90001A60002000E0012070470020FCE70020B1
:103AA000FAE7C046002C0140000400400700010076
:103AB0000268D36801218B43D3600368196A084AFE
:103AC000114207D1196A074A114203D11A6801212C
:103AD0008A431A603D230122C25400207047C04629
:103AE0001111000044040000704770477047704790
:103AF00070B505000368DE681C69A2070ED5B20721
:103B00000CD5032252421A610123037703689B6993
:103B10009B0757D0FFF7E9FF00232B77630712D5E8
:103B2000730710D52B68052252421A6102232B77A6
:103B30002B689A69C0239B001A4249D02800FFF7DE
:103B4000D4FF00232B77230710D533070ED52B681E
:103B5000092252421A6104232B772B68DB699B07E9
:103B60003DD02800FFF7C1FF00232B77E30612D5D5
:103B7000F30610D52B68112252421A6108232B77C5
:103B80002B68DA69C0239B001A422FD02800FFF768
:103B9000ACFF00232B77E30701D5F3072DD4822355
:103BA0009B011C4201D033062FD4E30501D5330617
:103BB00032D4630601D5730635D4A40601D5B60602
:103BC00039D470BDFFF790FF2800FFF78FFFA3E700
:103BD0002800FFF789FF2800FFF788FFB1E72800DA
:103BE000FFF782FF2800FFF781FFBDE72800FFF7FE
:103BF0007BFF2800FFF77AFFCBE72B6802225242B7
:103C00001A612800FEF716FBC9E72B680E4A1A61F5
:103C1000280000F094F8C8E72B680C4A1A612800C5
:103C200000F08EF8C5E72B68412252421A61280045
:103C3000FFF75DFFC1E72B68212252421A6128007D
:103C400000F07CF8BDE7C0467FDFFFFFFFFEFFFF0F
:103C500003681C4A904202D01B4A904203D1702252
:103C600093434A681343174A90420BD0164A904236
:103C700008D0164A904205D0154A904202D0154A03
:103C8000904203D1144A1340CA68134380229343DD
:103C90004A6913438A68C2620A688262094A90428A
:103CA00005D00B4A904202D00A4A904201D10A69DB
:103CB0000263026804210A43026001224261036038
:103CC0007047C046002C0140000400400020004026
:103CD0000044014000480140FFFCFFFF70B5041E96
:103CE0002AD03D23C35C002B20D03D250223635501
:103CF000210001C9FFF7ACFF01234822A3540A3A6F
:103D0000A3540132A3540132A3540132A35401320B
:103D1000A3540132A3540132A3540132A3540132FB
:103D2000A3540132A3546355002070BD3C330022DC
:103D3000C254FEF7C1FCD8E70120F6E77047704790
:103D40007047000030B5EFF31084012282F3108831
:103D500001680B68124D2B400B6084F31088EFF361
:103D6000108182F31088026893680E4C23409360A0
:103D700081F31088C36E012B06D08C232022C25001
:103D80000023C366436730BDEFF3108183F31088CF
:103D9000026813681024A343136081F31088ECE7D2
:103DA000DFFEFFFFFEFFFFEF10B50400836802692E
:103DB000134342691343C269134301680A686248A6
:103DC000024013430B602268536860490B40E1686E
:103DD0000B435360A369226A1A4321688B685C48CD
:103DE000034013438B602268D36A0F218B43616ABF
:103DF0000B43D3622368574A934230D0564A9342CA
:103E00003ED01023E06980221202904242D0042B5F
:103E100000D189E07BD8002B00D17FE0022B74D148
:103E20004E4B1B685B090721194001314C48FCF7D8
:103E30007DF9626A4B4B5200D15AFCF777F9616801
:103E40004B08C018FCF772F90200103A464B9A4230
:103E50006FD823680004000CD86000206AE03F4B54
:103E60005A6D03231340022B0CD005D8002B0BD026
:103E7000012B0BD10333C5E7032B09D10533C1E770
:103E80000023BFE70223BDE70023BBE71023B9E708
:103E90001023B7E7042B35D02AD8002B2CD0022BC7
:103EA00024D12E4B1B685B090721194001312C4896
:103EB000FCF73CF9626A2B4B5200D15AFCF736F9F9
:103EC000400061684B08C018FCF730F90200103A56
:103ED000254B9A422BD882B20F239A434008083BC5
:103EE000034013432268D360002023E0012021E037
:103EF000082BDFD001201DE0FFF7F8FC0028D9D106
:103F0000002017E0FFF7E8FBF8E7012012E0082B9C
:103F100002D1802000028CE701200BE0FFF7E6FCD5
:103F2000002886D1002005E0FFF7D6FBF8E7012046
:103F300000E0012001236A22A352023AA352002387
:103F40006367A36710BDC046F369FFCFFFCFFFFFD4
:103F5000FFF4FF110038014000440040001002400F
:103F6000006CDC02FC4E0008EFFF0000836A1B07B8
:103F700006D5026853682C490B40816B0B43536094
:103F8000836ADB0706D50268536828490B40C16A7B
:103F90000B435360836A9B0706D502685368244924
:103FA0000B40016B0B435360836A5B0706D50268C5
:103FB000536820490B40416B0B435360836ADB0617
:103FC00006D5026893681C490B40C16B0B43936094
:103FD000836A9B0606D50268936818490B40016CFA
:103FE0000B439360836A5B060BD5026853681449E0
:103FF0000B40416C0B435360426C80235B039A423D
:104000000AD0836A1B0606D5026853680D490B4027
:10401000C16C0B4353607047026853680A490B40F8
:10402000816C0B435360ECE7FF7FFFFFFFFFFDFF59
:10403000FFFFFEFFFFFFFBFFFFEFFFFFFFDFFFFFC5
:10404000FFFFEFFFFFFFF7FFFFFF9FFFF8B5CE4633
:10405000474680B506000D0017009946089B984614
:104060003368DC692C40641B63425C41BC4233D141
:1040700043460133F4D0FEF73FFC4B46C01A40459F
:104080002FD84346002B2ED0326813685B07E7D544
:10409000802DE5D0402DE3D0D3691B0710D4D36920
:1040A0001B05DDD580231B0113623000FFF74AFE9C
:1040B00090232022F2500C3B0022F25403200CE00B
:1040C000082414623000FFF73DFE9023F4500C3BAF
:1040D0000022F254012000E00020C0BCB946B046E6
:1040E000F8BD0320F9E70320F7E7F0B5C64600B5B1
:1040F00082B004000D0090461E008823C358202B78
:1041000066D1002969D0002A69D0826880235B01CA
:104110009A4204D10369002B01D1CB0761D49023CB
:104120000022E250083B2132E250FEF7E5FB070097
:1041300054234246E2520233E252A26880235B01DA
:104140009A4202D00023984618E02369002B2AD017
:104150000023984612E088232022E250032038E012
:1041600043461B882268DB05DB0D936202239C46D5
:10417000E0445623E25A013A92B2E2525623E35AFD
:104180009BB2002B12D000963B0000228021200021
:10419000FFF75CFF0028DED1002DE1D02A782368EC
:1041A0009A620135E5E7A8460025E7E700963B005F
:1041B000002240212000FFF749FF002803D1882377
:1041C0002022E25005E088232022E250032000E074
:1041D000022002B080BCB846F0BD0120F9E7012002
:1041E000F7E70120F5E7000030B583B00400902325
:1041F0000022C250FEF780FB050023681B681B07E6
:1042000010D423681B685B072BD420238822A3507B
:104210000432A3500023E3662367083AA354002026
:1042200003B030BD8021234B00930300002289039B
:104230002000FFF70BFF0028E3D0EFF310810123EC
:1042400083F310882268136880208343136081F30E
:10425000108888232022E250043B0022E2547D385B
:10426000DEE78021134B00932B000022C9032000BE
:10427000FFF7ECFE0028C8D0EFF31080012282F394
:10428000108821680B680C4D2B400B6080F3108860
:10429000EFF3108082F3108821688B6893438B6062
:1042A00080F310888C231F32E250083B0022E25436
:1042B0000320B5E7FFFFFF01DFFEFFFF10B5041E7F
:1042C00030D08823C358002B22D088232422E250E8
:1042D0002268136801218B431360A36A002B1DD150
:1042E0002000FFF761FD012811D0226853680E49B4
:1042F0000B405360226893682A218B4393602268A5
:10430000136829390B4313602000FFF76DFF10BDC0
:1043100084330022C254FEF73FFAD6E72000FFF7AD
:1043200025FEDDE70120F2E7FFB7FFFFF8B5040047
:10433000436E002B05D101336A228352023A835225
:10434000F8BD026895686D0E07231D409268520FF4
:104350001340084FF85CC000074EF15CFBF770FF9C
:104360006A23E052785DC000715DFBF769FF682346
:10437000E052E5E71C4F0008144F000870B5842395
:10438000C35C012B15D084240126065588252423DF
:104390004351026813681168B1431160064A134023
:1043A0000022426601680B60202343510255002021
:1043B00070BD0220FCE7C046FFFFFFDFF8B5040038
:1043C0000A008423C35C012B1BD084250120605587
:1043D00088262423A35123681F6819688143196024
:1043E00020688368DB00D908114381602000FFF753
:1043F0009DFF23681F602023A351002363550020E5
:10440000F8BD0220FCE70000F8B504000B00842290
:10441000825C012A1BD08425012060558826242235
:10442000A25122681768116881431160226891685F
:1044300008480140194391602000FFF777FF236887
:104440001F602023A351002363550020F8BD0220E4
:10445000FCE7C046FFFFFFF10CB430B5184B0C0071
:104460001D689DB0002908DA8B2301202B60404293
:104470001DB030BC08BC02B0184782236A469B00BE
:104480009382002302901B930690994200D04B1E0A
:104490000493079301236A465B42D382280021AB31
:1044A000209A02A9019300F09DF9431C01DA8B23A5
:1044B0002B60002CDCD00022029B1A70D8E7C0468B
:1044C0002C00002003008218934200D1704719701D
:1044D0000133F9E7014B18687047C0462C000020F3
:1044E00070B500260C4C0D4D641BA410A64209D1DA
:1044F000002600F061FC0A4C0A4D641BA410A64281
:1045000005D170BDB300EB5898470136EEE7B30014
:10451000EB5898470136F2E7584F0008584F00080B
:104520005C4F0008584F00087047704770B5050091
:104530000C1E10D0043C2368002B00DAE41828007D
:1045400000F0E0F81D4A1368002B05D16360146089
:10455000280000F0DFF870BDA34208D920682118B8
:104560008B42F3D119685B6809182160EEE71A00E5
:104570005B68002B01D0A342F9D911685018A04202
:104580000BD120680918501811608342E0D11868D7
:104590005B68411811605360DAE7A04202D90C232E
:1045A0002B60D5E7206821188B4203D119685B681E
:1045B0000918216063605460CAE7C04658080020AB
:1045C00070B50F4E0D0031680400002902D100F0D3
:1045D00095FB30602900200000F090FB431C03D1C4
:1045E00001256D42280070BD0323C51C9D43A842D0
:1045F000F8D0291A200000F081FB0130F2D1EFE75A
:1046000054080020F7B50322CB1C93430833050060
:104610001F000C2B34D20C27B94233D8280000F0ED
:1046200071F8374E33681C00002C2FD13900280058
:10463000FFF7C6FF0400431C5FD134680094009B61
:10464000002B4AD1002C52D023682800E31800998F
:10465000019300F053FB019B834248D1236828005B
:10466000FF1A3900FFF7ACFF013040D02368DB1997
:10467000236033685A68002A33D1009B336019E005
:10468000002BC9DA0C232B600020FEBD2168C91B5A
:1046900020D40B290AD9E2192760A34204D1326041
:1046A00063681160536005E05A60F9E76268A342ED
:1046B0000ED13260280000F02DF8200007220B30C8
:1046C000231D9043C21A9842DFD01B1AA350DCE787
:1046D0005A60EFE723006468A6E7009C63680093D4
:1046E000ADE71A005B68A342FBD10023DAE70C2395
:1046F00028002B6000F00EF8C6E70760DAE7C04636
:104700005808002010B50248FFF70EFF10BDC04644
:104710005008002010B50248FFF707FF10BDC04643
:1047200050080020F0B58E6885B01F000C000B68A3
:1047300002900392BE4230D80C21625E9021C900E3
:104740000A4228D0032021695B1A0193636943431D
:104750000198DD0FED187B1C1B186D10AB4200D9C2
:104760001D00520528D529000298FFF74BFF061EB1
:104770002CD0019A216900F0DEFAA289184B1A4068
:1047800080231343A381019B2661F61826603E0017
:104790006561ED1AA560BE4200D93E003200039962
:1047A000206800F099FA0020A3689B1BA36023688F
:1047B0009B19236005B0F0BD2A00029800F0C4FAEE
:1047C000061EE0D121690298FFF7B0FE0C230120FC
:1047D000029A40421360A28934331343A381E9E76C
:1047E0007FFBFFFFF0B5A1B003901D008B890F0088
:1047F00016001B0611D50B69002B0ED14021FFF7C7
:1048000001FF38603861002805D10C23039A13603A
:1048100001204042CFE040237B61002308AC63616C
:10482000203363761033A376079535002B78002B61
:1048300001D0252B48D1AB1B0593B5420BD03200DC
:1048400039000398FFF76EFF013000D1AEE06369D5
:10485000059A9B1863612B78002B00D1A6E00122FA
:1048600000235242626004A9543252186E1C236025
:10487000E360A3601370A365544B052218003178E0
:10488000059300F04DFA751C00281FD12268D3064D
:1048900004D5532304A95B1820211970130704D5EC
:1048A000532304A95B182B21197033782A2B16D0B7
:1048B000350000210A20E3682A786E1C303A092A64
:1048C00050D9002911D117E00135AFE7059B2268C7
:1048D000C01A0123834013432E002360CCE7079BBB
:1048E000191D1B680791002B01DB0B9304E05B4251
:1048F000E3600223134323602B782E2B0CD16B78BB
:104900002A2B34D1079B02351A1D1B680792002BF6
:1049100001DA01235B4209932D4E032230002978EE
:1049200000F0FEF9002806D04023801B8340226857
:104930000135134323602978062226486E1C217610
:1049400000F0EEF9002838D0234B002B22D10722AB
:10495000079B07339343083307936369049A9B18B3
:10496000636162E74343350001219B18A4E70023FC
:104970000A201900013563602A786E1C303A092A32
:1049800003D9002BC8D00991C6E741433500012364
:104990008918F1E707AA009221003A000F4B03980B
:1049A00000E000BF0490049B0133D6D1BB890D9871
:1049B0005B0600D52CE721B0F0BD07AA00922100CC
:1049C0003A00064B039800F07BF8EBE7244F000811
:1049D0002A4F00082E4F000800000000254700085D
:1049E000F7B5160001938A680B690C00009093429A
:1049F00000DA13002200336043321278002A01D01B
:104A00000133336023689B0602D533680233336079
:104A10002268062315001D401A4227D02300433385
:104A20001B785A1E93412268920630D422000199C5
:104A30000098089D4332A847013025D006222368FC
:104A400000251340042B05D13368E568ED1AEB43CC
:104A5000DB171D40A3682269934201DD9B1AED1804
:104A60000026B54220D1002010E00135E36832680D
:104A70009B1AAB42D2DD2200012301990098089FC6
:104A80001932B8470130F0D101204042FEBD30203C
:104A9000E1184331087021005A1C45310978A218E9
:104AA000433202331170C1E72200012301990098BB
:104AB000089F1A32B8470130E6D00136D1E700002E
:104AC000F0B58BB006920A0043320793059003922B
:104AD0000A7E0C00109B782A09D8622A0BD8002A7B
:104AE00000D1BAE07A490491582A00D18EE025001D
:104AF00042352A7022E0100063381528F7D8FBF7FA
:104B00000BFB16001F00F6FFF6FFF6FFF6FF1F0077
:104B1000F6FFF6FFF6FFF6FF9F0036007E00F6FF79
:104B2000F6FFB000F6FF3600F6FFF6FF8200250024
:104B30001A684235111D196013682B7001239EE01D
:104B400018680968021D0D060BD506681A60002E4C
:104B500003DA2D23039A764213705D4B0A270493E0
:104B600018E006681A604906F1D536B2EFE7086822
:104B7000196840C9050602D4400600D5B6B21960CE
:104B8000534B0A2704936F2A00D1023F23000022CF
:104B900043331A706368A360002B06DB042122688C
:104BA000039D8A43226033430CD0039D30003900BB
:104BB000FBF742FB049B013D5B5C2B70330006005E
:104BC0009F42F3D9082F09D12368DB0706D5626815
:104BD00023699A4202DC3023013D2B70039B5B1B4F
:104BE0002361079B210000930598069B09AAFFF704
:104BF000F7FE013048D1012040420BB0F0BD202229
:104C000009680A4322607822324904912100453123
:104C10000A701968226840C9100602D4500600D5EF
:104C2000B6B21960D30702D5202313432360002EA8
:104C300001D01027AAE72022236893432360F8E7D6
:104C40001A680D68101D4969186013682E0601D591
:104C5000196002E06D06FBD519800023039D2361D6
:104C6000BFE71A68111D19601568002128006268E5
:104C700000F056F8002801D0401B60606368236193
:104C80000023039A1370ACE72A002369069905985C
:104C9000079DA8470130AED023689B0715D4099B18
:104CA000E0689842A9DA1800A7E7220001230699D4
:104CB0000598079E1932B04701309CD00135E36852
:104CC000099A9B1AAB42F0DCE9E70025F7E7C046FA
:104CD000354F0008464F000810B5884202D98B189E
:104CE000984208D300239A4207D0CC5CC4540133C5
:104CF000F9E78B5C8354013AFBD210BD002370B5F9
:104D0000064D040008002B60FDF776FC431C03D120
:104D10002B68002B00D0236070BDC0464C080020DB
:104D2000C9B28218904201D10020704703788B42AB
:104D3000FBD00130F6E7002310B59A4200D110BD38
:104D4000CC5CC4540133F8E7F7B506000C0015003D
:104D5000002905D11100FFF755FC04002000FEBD1D
:104D6000002A03D1FFF7E2FB2C00F7E700F01CF864
:104D70000700854202D84308AB42EFD32900300038
:104D8000FFF740FC0190002801D1019CE6E72A00D2
:104D9000BD4200D93A0021000198FFF7CCFF210065
:104DA0003000FFF7C3FBF0E70B1F1B68181F002B39
:104DB00001DA0B58C0187047F8B5C046F8BC08BCFB
:104DC0009E467047F8B5C046F8BC08BC9E46704782
:104DD0000000E000060A0008320900081C0900086B
:104DE000980900081C090008CC0900081C090008E3
:104DF000980900083209000832090008CC090008A7
:104E000098090008080900080809000808090008AE
:104E1000D609000832090008320900081C090008F8
:104E2000720A00081C090008CC0900081C090008C7
:104E3000720A00083209000832090008CC0900088B
:104E4000720A000808090008080900080809000893
:104E500010120008F21100083C1200087E1200082F
:104E600002130008461300088A130008CE13000836
:104E7000121400085C140008A2140008C0120008F4
:104E8000521E0008821E00089E1E0008AC1E00086C
:104E9000BA1E0008C81E000825750A0000000000A0
:104EA0000000000000000000000000000100000001
:104EB00002000000030000000400000000000000E9
:104EC00000000000000000000000000000000000E2
:104ED00000000000000000000000000001000000D1
:104EE00002000000030000000400000006000000B3
:104EF0000700000008000000090000000100020097
:104F00000400060008000A000C0010002000400009
:104F100080000001080402040801010101010103ED
:104F200007010000232D302B2000686C4C006566C3
:104F300067454647003031323334353637383941EA
:104F40004243444546003031323334353637383900
:084F5000616263646566000004
:044F5800E900000864
:044F5C00C100000888
:104F60000001000098000020000000006B1F0008F6
:104F7000971F0008C31F0008000000000000000089
:104F8000001BB700010000000400000030000020FA
:104F900000000000140700207C070020E407002028
:104FA0000000000000000000000000000000000001
:104FB00000000000000000000000000000000000F1
:104FC00000000000000000000000000000000000E1
:0C4FD000000000000000000000000000D5
:040000050800281DAA
:00000001FF
