:020000040800F2
:100000000018002065210008111F0008131F0008B8
:1000100000000000000000000000000000000000E0
:10002000000000000000000000000000151F000894
:100030000000000000000000171F0008191F000842
:10004000B521000800000000B5210008B521000816
:10005000B5210008B5210008B5210008B521000828
:1000600000000000B5210008B5210008B5210008F6
:10007000B5210008B5210008B521000800000000E6
:10008000B52100080000000000000000211F00084A
:1000900000000000311F0008B5210008B52100084C
:1000A00000000000B521000800000000B521000894
:1000B000B521000800000000000000000000000062
:1000C00010B5064C2378002B07D1054B002B02D02E
:1000D000044800E000BF0123237010BD7C00002015
:1000E0000000000038480008044B10B5002B03D076
:1000F0000349044800E000BF10BDC04600000000F6
:1001000080000020384800080023C25C0133002A28
:10011000FBD1581E7047000003B4714649084000E7
:100120004900095E49008E4403BC70470022430821
:100130008B4274D303098B425FD3030A8B4244D3AF
:10014000030B8B4228D3030C8B420DD3FF220902F1
:1001500012BA030C8B4202D31212090265D0030BB0
:100160008B4219D300E0090AC30B8B4201D3CB03A6
:10017000C01A5241830B8B4201D38B03C01A5241E8
:10018000430B8B4201D34B03C01A5241030B8B42EA
:1001900001D30B03C01A5241C30A8B4201D3CB02D5
:1001A000C01A5241830A8B4201D38B02C01A5241BA
:1001B000430A8B4201D34B02C01A5241030A8B42BD
:1001C00001D30B02C01A5241CDD2C3098B4201D3D5
:1001D000CB01C01A524183098B4201D38B01C01A53
:1001E000524143098B4201D34B01C01A52410309CA
:1001F0008B4201D30B01C01A5241C3088B4201D379
:10020000CB00C01A524183088B4201D38B00C01A25
:10021000524143088B4201D34B00C01A5241411A4C
:1002200000D20146524110467047FFE701B5002059
:1002300000F0F0F802BDC0460029F7D076E770471D
:1002400003460B437FD4002243088B4274D3030937
:100250008B425FD3030A8B4244D3030B8B4228D3D8
:10026000030C8B420DD3FF22090212BA030C8B42FE
:1002700002D31212090265D0030B8B4219D300E09E
:10028000090AC30B8B4201D3CB03C01A5241830B23
:100290008B4201D38B03C01A5241430B8B4201D3D3
:1002A0004B03C01A5241030B8B4201D30B03C01AFC
:1002B0005241C30A8B4201D3CB02C01A5241830A76
:1002C0008B4201D38B02C01A5241430A8B4201D3A5
:1002D0004B02C01A5241030A8B4201D30B02C01ACF
:1002E0005241CDD2C3098B4201D3CB01C01A524136
:1002F00083098B4201D38B01C01A524143098B42BF
:1003000001D34B01C01A524103098B4201D30B01A7
:10031000C01A5241C3088B4201D3CB00C01A5241CC
:1003200083088B4201D38B00C01A524143088B4291
:1003300001D34B00C01A5241411A00D2014652412A
:10034000104670475DE0CA0F00D04942031000D349
:100350004042534000229C4603098B422DD3030A9E
:100360008B4212D3FC22890112BA030A8B420CD3AE
:10037000890192118B4208D3890192118B4204D3D7
:1003800089013AD0921100E08909C3098B4201D357
:10039000CB01C01A524183098B4201D38B01C01A91
:1003A000524143098B4201D34B01C01A5241030908
:1003B0008B4201D30B01C01A5241C3088B4201D3B7
:1003C000CB00C01A524183088B4201D38B00C01A64
:1003D0005241D9D243088B4201D34B00C01A52413B
:1003E000411A00D20146634652415B10104601D3C8
:1003F0004042002B00D54942704763465B1000D352
:10040000404201B5002000F005F802BD0029F8D0F7
:1004100016E770477047C046844608006146FFE70C
:100420001FB500F0A3F8002801D40021C8421FBD69
:1004300010B500F02BF84042013010BD10B500F0AF
:1004400095F8002801DB002010BD012010BDC0463A
:1004500010B500F08BF8002801DD002010BD012050
:1004600010BDC04610B500F039F8002801DC0020AE
:1004700010BD012010BDC04610B500F02FF80028B7
:1004800001DA002010BD012010BDC04670B5420049
:100490004E024C0045026D0A120EC30F760A240E5E
:1004A000C90FFF2A10D0FF2C0CD00120A2420AD184
:1004B000B54208D18B420FD0002A04D12800431E38
:1004C000984100E0012070BD0120FF2CFBD1354395
:1004D000F9D14B401800F6E70020F4E730B54200B0
:1004E00044024D02C30F4800640A120E6D0A000E4A
:1004F000C90FFF2A18D0FF280AD0002A1ED10028D1
:100500000AD1002D29D0002C2DD14800013830BD52
:10051000002D25D1002A01D1002CF6D08B4219D014
:1005200001205B421843F2E7002C19D1FF28F7D1D4
:10053000002D15D100208B42F2D1E8E70028EFD042
:100540008B42EDD18242EBDC04DBAC42E8D80020E8
:10055000AC42DCD258000138D9E7002CD7D0DFE715
:1005600002204042D3E78B42DAD1EEE730B54200B9
:1005700044024D02C30F4800640A120E6D0A000EB9
:10058000C90FFF2A17D0FF280AD0002A1BD1002844
:100590000AD1002D1DD0002C2DD14800013811E0CA
:1005A000002D0ED1002A01D1002CF6D08B420CD1A7
:1005B0005800013806E0002C03D1FF2805D1002D9A
:1005C00015D0022030BD002806D101205B4218431F
:1005D000F8E7002CF6D0F8E78B42F6D18242F4DC43
:1005E000E6DBAC42F1D80020AC42EBD2E0E70020E1
:1005F0008B42EAD1E6E78B42E7D1F2E7F8B547460E
:10060000CE46430280B55F0A9B0945004A009C46DE
:100610004B02C40FCE0F2D0E580A120E9909FF2A55
:100620006BD001235E40AB1AB4424BD0002B00DCF0
:10063000FFE0002A00D188E0FF2D00D1EFE080220A
:10064000D204114301201B2B08DC08002022D840D3
:10065000D31A99400B005A1E9341184363461B1A44
:100660009C4663465B0100D4CDE063469F01BF0911
:10067000380000F077FA3B0005388340854200DC03
:10068000A2E0B74A2D1A1A4094465A0700D1C3E097
:100690000F221340042B00D1BEE004239846C4442B
:1006A00063465B0100D4B7E0681CFE2D00D0A5E0D6
:1006B000FF200022C0051043E4072043C0BCB94618
:1006C000B046F8BD002B00DCEBE1002A46D0FF2D40
:1006D00000D1A4E08022D20411431B2B00DCFBE0FC
:1006E000052398462B00C4446246D708FF2B00D14F
:1006F00095E07A02520AD8B2DCE72B00FF3B99461C
:10070000002918D101235E40B44200D1CAE04B4613
:10071000002B2DD0002D00D03CE1FF236446002C9F
:1007200000D15FE15D1E012B00D174E13400FF2B8D
:1007300074D02B0003E1B44200D19CE0002B17D011
:10074000002DEAD0070034006CE00029CCD05A1EFE
:10075000012B2BD0FF2B62D0130073E70029C3D0ED
:100760005A1E012B00D11EE1FF2B58D01300B4E715
:10077000FE226B1C1A420DD1002D60D06346002B67
:1007800000D020E1002900D028E180220024FF20B1
:10079000D2038FE763465F1A7B0100D5FEE0002F8E
:1007A00000D065E700240020002283E76346591A41
:1007B0004B0100D419E18F01BF09380000F0D2F9D4
:1007C0003B000538834001252022401B0130121ACE
:1007D00019009340C1405A1E934119438C460B1E89
:1007E000E1D05B0700D152E10F2300250B40042B21
:1007F00000D052E701204A0100D492E0C0B2634623
:100800009A01520A56E763465B0705D00F236246FA
:100810001340042B00D040E72B0065E70700002FB2
:1008200000D145E78022D2033A435202FF20520A08
:1008300040E7002B79D1FE226B1C1A42AAD16346F5
:10084000002B00D1F5E0002900D1D1E05F1A802310
:10085000DB041F4200D10EE1624601248A1A94464D
:1008600000203440002A00D124E701201A42C6D1DA
:100870000023D7083DE7002B17D0002D00D0AFE0B4
:10088000FF236546002D00D1ADE05E1E012B00D197
:1008900089E0FF2BC2D01B2E00DCABE04B1D9C4639
:1008A000130021E74B46002B70D1FE226B1C1A422D
:1008B0005ED1002D00D0C3E06346002B00D1D0E014
:1008C000002900D194E00A006244530100D4D8E02A
:1008D00092010120520AEDE608002022D840D31AE6
:1008E00099400B005A1E934103439C4463465B01AD
:1008F00089D50135FF2D00D1DAE662460123194979
:10090000134052080A401A43130094465B0704D070
:100910000F231340042B00D0BFE663465B0100D5D4
:10092000C2E66346DF082B00E3E6531B002D00D12F
:10093000F4E680206446C0040443A4463400012049
:100940001B2B09DC20256046D840EB1A65469D40EC
:100950002B005D1EAB4118430B1A9C46150080E628
:10096000FFFFFFFBFFFFFF7DFE226B1C1342A3D0A6
:10097000FF2B00D19CE6614449084A0749D00F2269
:100980000A40042A45D00A1D9446ADE6002D00D148
:1009900076E78DE63400FF2000228BE663460124D3
:1009A000CF1A344064E661444B016DD54808444990
:1009B000014043072CD00F230340042B28D00B1DEC
:1009C0009C46022390E6002900D12BE78023DB031D
:1009D0009F4200D226E7984200D323E70124344007
:1009E00007001FE734008C467EE60123CF0880E62F
:1009F00000237EE620206546801B85406346280054
:100A0000F340451EA84103439C4615008C446DE706
:100A10000223CF086DE60F1B7B0128D5BF01BF095C
:100A2000380000F09FF83B00053883403400012572
:100A3000CAE6002900D1B5E601240700344058E693
:100A40006346002B00D1E9E6002900D1EAE68023C5
:100A5000DB039F4200D2E5E6984200D3E2E60700BE
:100A6000E0E6002900D19EE60023CF0841E63400ED
:100A70000123FF083DE6002F00D193E60023FF0885
:100A800037E60023D70834E60123CF0831E6802279
:100A90000B00D20401201340114200D0AEE6CF0873
:100AA00027E6002B00D15FE7561B002D01D1330054
:100AB000E7E680236046DB0418438446EBE6C04645
:100AC000FFFFFF7D70B5002812D0C317C5185D4029
:100AD000C40F280000F046F89E231B1A962B0FDC4B
:100AE000082838D0083885406D026D0AD8B202E077
:100AF000002400200025C0052843E407204370BDE2
:100B0000992B14DC421F95402A00154911405507C6
:100B10001CD00F252A40042A18D00431CA084901E4
:100B200015D59F235202181A550AC0B2E3E70522D1
:100B30002900121AD14002001B3295402A00551E8E
:100B4000AA410A43064911405507E2D1CA08520298
:100B5000550AD8B2CFE76D026D0A8E30CBE7C0469A
:100B6000FFFFFFFB1C2101231B04984201D3000C53
:100B700010391B0A984201D3000A08391B09984210
:100B800001D30009043902A2105C40187047C04626
:100B90000403020201010101000000000000000046
:100BA00000280AD0C368002B0AD00369002B0AD0A2
:100BB0004068434258414042704701204042FBE7B1
:100BC00001204042F8E701204042F5E7F8B5CE4663
:100BD000474680B580460F0091461E001800FFF77B
:100BE000DFFF002824D1002F25D04B46012B13D046
:100BF00026D9002500217368791842465019C0B2E1
:100C000034690122A0473077002817D10135EDB2B1
:100C100029004D45EFD313E0736834690122390090
:100C20004046A047307700280AD00220404207E023
:100C30000120404204E00120404201E00220404205
:100C4000C0BCB946B046F8BDF0B5C64600B5A0B0C8
:100C50000400884617001D001800FFF7A1FF0028B8
:100C600024D14346002B24D06B78012B01D0802364
:100C70001C436B682A7AD219EE6869462000B04797
:100C80002877002818D1002F0CD0002400232E7ABA
:100C900022006A44965D4246D6540134A4B2230031
:100CA000BC42F4D320B080BCB846F0BD0120404225
:100CB000F8E701204042F5E702204042F2E7000059
:100CC00010B582B004006B460022DA71FFF768FFAE
:100CD000002823D161686369134898476378002B23
:100CE00011D000232372230001226946073100201E
:100CF000FFF7AAFF002811D16B4607331B78902B12
:100D00000ED123700AE001332372230001226946C9
:100D100007310020FFF798FF0028E4D002B010BD93
:100D200003204042FAE7C0468813000070B582B045
:100D300005000E006B460022DA710800FFF730FF55
:100D4000041E02D0200002B070BD330001226946AB
:100D500007311920FFF778FF041EF3D16B46DB79CA
:100D6000032293432A4013436A46D371330001227E
:100D7000694607311920FFF729FF0400012D04D02F
:100D80007168736903489847DCE7716873690248C2
:100D90009847D7E710270000409C000070B584B04A
:100DA00005000C0016001000FFF7FAFE00285AD1CB
:100DB000002C5BD00922002101A803F0C3F8002D0C
:100DC0003DD0012D4CD13300092201A90420FFF7A9
:100DD0003BFF002831D101AB5A7812021B789B18D7
:100DE0009AB21BB2802109018B4203DB214B9C4646
:100DF000624413B2238001ABDA7812029B7813436A
:100E00001BB280221201934203DB1A4A94466344C8
:100E10001BB2638001AB5A7912021B7913431BB2D8
:100E200080221201934203DB124A944663441BB2B0
:100E3000A380002D0AD10023A36004B070BD33004D
:100E4000062201A90420FFF7FFFEC2E701AA137AD8
:100E50001B0491795B18D27912029B18A360ECE70E
:100E600004204042E9E701204042E6E701204042F9
:100E7000E3E7C04600F0FFFFF0B5DE4657464E46BA
:100E80004546E0B585B0050089469046032200211D
:100E900003A803F057F84046FFF782FE002800D071
:100EA00046E3002D00D146E34346032203A9213047
:100EB000FFF7CAFE002800D033E34B46002B00D1D9
:100EC00029E30026C54B9B46C54B9A469AE15B46F3
:100ED0001B886A4613805B469B78937043460322C7
:100EE00069461920FFF7B0FE002802D0227A0123BC
:100EF00091E16B461A787F231340EA79D2011343BC
:100F000060229343A97949010A4013436A4613704A
:100F100052783F231340EA789201134330229343DF
:100F2000697909010A4013430F229343A9780A40C3
:100F300013436A4653702A7992000C2313406A4681
:100F400092780C218A4313436A46937043460322E6
:100F500069461930FFF73AFEC8E76B4600221A804F
:100F60004346023269465720FFF76EFE002802D042
:100F7000E279092353E1A278D200182313406A468C
:100F8000127818218A43134307229343E1780A40D9
:100F900013436A461370A2791201302313406A4644
:100FA000527830218A4313430C229343617989009C
:100FB0000A4013430322934321790A4013436A46AC
:100FC00053704346022269465730FFF7FFFDCFE7D3
:100FD000A3786A461370E3785B0161790F220A40B7
:100FE00013432179090110220A4013436A465370C2
:100FF0004346022269465520FFF7E8FDA2790823FF
:1010000011E10B220021684602F09CFFA27AA3792D
:101010005B01E07A032101400B43E07900011021DC
:1010200001400B4390000C2101400B4369460B70BB
:10103000217A490002230B40607A012101400B43D1
:1010400069464B70A3788B70A388190A6846C170F3
:1010500069460371002A13D1A38943711B0A837166
:10106000E389C3711B0A0372238A43721B0A8372CA
:1010700043460B223F20FFF7A9FDA27C0523D6E0C3
:101080004346052269463F20FFF7A0FDF5E70B2206
:101090000021684602F056FFA27AA3795B01E07A4C
:1010A000032101400B43E0790001102101400B4373
:1010B00090000C2101400B4369460B70217A4900D6
:1010C00002230B40607A012101400B4369464B70BB
:1010D000A3788B70A388190A6846C17069460371AA
:1010E000002A13D1A38943711B0A8371E389C37159
:1010F0001B0A0372238A43721B0A837243460B2224
:101100004A20FFF763FDA27C3B0094E043460522A2
:1011100069464A20FFF75AFDF5E70A220021684692
:1011200002F010FF2179E2781201102313408800A9
:101130000C2202401343A278520113436A461370F3
:1011400063795370A3799370E379D370002914D134
:10115000238913711B0A5371638993711B0AD3711D
:10116000A38913721B0A537243460A22694635202B
:10117000FFF72CFDA27B062361E04346042269466B
:101180003520FFF723FDF5E7A278012A00D1ACE175
:10119000022A00D0B7E103AA937810210B43937081
:1011A0002AE0012A08D0022A1CD103AA5178802300
:1011B0005B420B4353701FE003A9087880235B4216
:1011C00003430B70032A17D103AB1978833A1143F9
:1011D000197059780A435A700EE0C046504800080A
:1011E00054480008002AEDD103AB19787F32114032
:1011F000197059780A405A700136B6B21435B145A3
:1012000000D188E12C002B78002B00D15FE6002272
:101210000023042040422178012900D19DE6217855
:10122000022900D1D4E62178032900D1E9E6277804
:10123000042F00D12BE72178052900D16DE7217813
:101240000629A1D0002800D06BE10B2BD4D89B003D
:101250005146CB589F46012A07D0022A15D103AA2E
:10126000537840210B435370C6E703A90B78402005
:1012700003430B70032ABFD103AB40211A780A4302
:101280001A705A780A435A70B6E7002AF2D103ABB3
:101290001A7840218A431A705A788A435A70ABE709
:1012A000012A07D0022A15D103AA537820210B4323
:1012B0005370A1E703A90B78202003430B70032A86
:1012C0009AD103AB20211A780A431A705A780A433C
:1012D0005A7091E7002AF2D103AB1A7820218A4391
:1012E0001A705A788A435A7086E7012A07D0022A70
:1012F00016D103AA537810210B4353707CE703A93E
:101300000B78102003430B70032A00D074E703AB63
:1013100010211A780A431A705A780A435A706BE7F8
:10132000002AF1D103AB1A7810218A431A705A7837
:101330008A435A7060E7012A07D0022A16D103AA0D
:10134000537808210B43537056E703A90B78082004
:1013500003430B70032A00D04EE703AB08211A7831
:101360000A431A705A780A435A7045E7002AF1D1A5
:1013700003AB1A7808218A431A705A788A435A7044
:101380003AE7012A07D0022A16D103AA537804218A
:101390000B43537030E703A90B78042003430B7011
:1013A000032A00D028E703AB04211A780A431A70F5
:1013B0005A780A435A701FE7002AF1D103AB1A7812
:1013C00004218A431A705A788A435A7014E7012A12
:1013D00007D0022A16D103AA537802210B43537077
:1013E0000AE703A90B78022003430B70032A00D0FD
:1013F00002E703AB02211A780A431A705A780A43AB
:101400005A70F9E6002AF1D103AB1A7802218A4317
:101410001A705A788A435A70EEE6012A07D0022AD7
:1014200016D103AA537801210B435370E4E603A9B4
:101430000B78012003430B70032A00D0DCE603ABDA
:1014400001211A780A431A705A780A435A70D3E66F
:10145000002AF1D103AB1A7801218A431A705A7815
:101460008A435A70C8E6012A08D0022A15D103AA75
:10147000917880235B420B439370BDE603A98B7880
:10148000082003438B70032A00D0B5E603AA9178A5
:1014900078235B420B439370AEE6002AF3D103AA94
:1014A000917877230B409370A6E6012A07D0022A91
:1014B00013D103AA937840210B4393709CE603A9B0
:1014C0008B78042003438B70032A00D094E603AA90
:1014D000937844210B4393708EE6002AF4D103AA3B
:1014E000937844218B43937086E603A98B7801207F
:1014F00003438B70032A00D07EE603AA9378112160
:101500000B43937078E6002AF4D103AA9378112153
:101510008B43937070E64346032203A92120FFF713
:1015200055FB05B0F0BCBB46B246A946A046F0BD8F
:1015300001204042F5E701204042F2E7F0B5DE46E7
:1015400057464E464546E0B587B004000D001600EC
:1015500090460322002105A802F0F4FC3000FFF7BA
:101560001FFB002800D0A9E1002C00D1A9E1330025
:10157000032205A92130FFF767FBA946002D00D102
:10158000A4E1002852D10025CB4B9A4603AF01902D
:1015900010E04346012202A905312D20FFF754FB3C
:1015A000002810D00135ADB24D4500D38EE10A348C
:1015B00000283BD126002378052B00D978E19B0039
:1015C0005246D3589F46A3789B0004221A4003A991
:1015D0004B78043083431A43A08803110B700F2308
:1015E0001340000103434B70434602222C20FFF7B7
:1015F000EDFAD7E7A278032313402279520113436F
:10160000E17889001C220A4013433B7063797B70A8
:10161000A379BB70E379FB70237A3B7143460522C3
:1016200039002F20FFF7D2FA002806D007B0F0BC0F
:10163000BB46B246A946A046F0BD637A012B07D04F
:10164000022B15D105AA537801210B435370A9E74A
:1016500005A90A78012632430A70032BA2D105ABF3
:1016600001211A780A431A705A780A435A7099E786
:10167000002BF2D105AB1A7801218A431A705A78EF
:101680008A435A708EE74346012202A92B20FFF7B6
:10169000DBFA002800D085E7A17802AB1B780F2287
:1016A00093430A40134302AA13700C230B4206D142
:1016B0004346012202A92B20FFF788FA72E743462E
:1016C000012203A92A30FFF7BFFA002800D069E7FA
:1016D000A28803A913110B7002AB18780F230340E3
:1016E0001201134302AA1370434601222A20FFF776
:1016F0006DFA002800D055E7DAE7A3789B46E67834
:101700004346012239002420FFF79EFA002800D02A
:1017100048E75B46012B0CD0022B12D103A90B78B2
:10172000602293431A0073016020034013430B703F
:1017300007E003AA137806218B43760031400B4360
:1017400013704346012203A92420FFF73FFA29E73B
:10175000A378012B07D0022B15D105AA53781021AD
:101760000B43537019E005A90A78102002430A7050
:10177000032B12D105AB10211A780A431A705A783C
:101780000A435A7009E0002BF2D105AB1A781021F8
:101790008A431A705A788A435A700135ADB2A94506
:1017A00000D891E00A3405E74046FFF7F9F9002830
:1017B00000D03BE74346032203A92630FFF744FA53
:1017C000002800D032E7A37802AA1370E278002A3A
:1017D00004D103AA12789A4302AB1A70B388327903
:1017E00002A94A705B055B0F8B7003A9497891428F
:1017F00003D103AA92789A4213D04346032202A946
:101800002620FFF7E3F9002800D00FE7F379012B3A
:101810000ED0022B1CD105AA537840210B435370E4
:1018200020E04346012202A92620FFF7CFF9EAE78C
:1018300005A90A78402002430A70032B12D105AB98
:1018400040211A780A431A705A780A435A7009E0FC
:10185000002BF2D105AB1A7840218A431A705A78CE
:101860008A435A70B379012B07D0022B15D105AAF0
:10187000537820210B4353708FE705A90A78202065
:1018800002430A70032B88D105AB20211A780A4342
:101890001A705A780A435A707FE7002BF2D105ABD1
:1018A0001A7820218A431A705A788A435A7074E74A
:1018B0000420404276E6C0468448000801204042A9
:1018C000B4E601204042B1E6019E3000002800D07D
:1018D000ACE64346032205A92130FFF777F9A5E6D8
:1018E00030B583B005000C000B00012269460731BA
:1018F0002D20FFF7A9F9002801D003B030BD6B46B9
:10190000DB79022293436D002A4013436A46D37168
:1019100023000122694607312D30FFF757F9ECE724
:1019200010B584B00400180001235B42029392B208
:101930000192009102332200282101F0ABF8431EEE
:10194000984140420123984304B010BD10B584B0C3
:101950000400180001235B42029392B201920091AD
:1019600002332200282100F09FFF431E984140428D
:101970000123984304B010BD10B5FA218900FEF789
:10198000D5FB00F05FFC10BDF0B58BB01422002138
:1019900005A802F0D7FA264B5A6B042422435A6357
:1019A0005A6B22400192019A596B202211435963CC
:1019B000596B0A400292029A5A6B012632435A63CB
:1019C0005A6B32400392039A596B022211435963B6
:1019D0005B6B1A400492049BD0277F00A025ED0585
:1019E00000223900280000F087FD059400240694A9
:1019F000079405A90F4800F0A9FC1E2305931B3B83
:101A00000693079405A9280000F0A0FC0597069608
:101A10000794089405A9280000F098FC402305933A
:101A20000694079605A9280000F090FC0BB0F0BDC5
:101A3000001002400014005010B51448144B03600D
:101A4000144B4360002383600122C2600361436141
:101A50008361C361036200F0B9FE00280CD10B481A
:101A6000002101F011F9002809D10848002101F0F6
:101A700037F9002806D110BD00F098F9EFE700F023
:101A800095F9F2E700F092F9F5E7C04698000020DA
:101A9000005400400C0B100010B58EB0040014224E
:101AA000002109A802F04EFA1C22002102A802F02F
:101AB00049FA184B22689A4201D00EB010BD022399
:101AC000029302A801F048FC00281FD1124C626B5F
:101AD00002231A436263626B13400093009BC0238E
:101AE0000993AE3B0A9300230B930C9306330D939B
:101AF00009A90A4800F02AFCE36B802292031343F1
:101B0000E363E36B13400193019BD6E700F04EF9CA
:101B1000DCE7C046005400400010024000040050C2
:101B200010B501F05DF9224C2100002001F010F900
:101B30002100002001F030F92100012001F008F916
:101B40002100012001F028F92100022001F000F914
:101B50002100022001F020F92100052001F0F8F811
:101B60002100052001F018F901F044F9114B5A6BDE
:101B700002218A435A635A6B02318A435A635A6B71
:101B80001C318A435A631A6C0B490A401A640B4B86
:101B90000B4A9A61012001F0CDF800F06DFB0520A1
:101BA00000F050FB00F060FB01F02EF910BDC046C4
:101BB000FFFF000000100240FFBFFFFF0070004069
:101BC0002F000100F0B58FB0050001000120FFF7E4
:101BD000ADF806AC01271D2200211920684402F04F
:101BE000B1F9022626700E23A3705633A380A77284
:101BF0002773A673503BE373E774113B2375A775F6
:101C0000E6752A0003212000FFF798FC142200212A
:101C100001A802F097F908236A46937116722A0008
:101C2000012101A8FFF728F929000120FFF758FE3C
:101C30000FB0F0BD30B585B004000B00134A102181
:101C4000684602F049F9A025ED050122202128006F
:101C500000F052FC8C20400000F0F4FA6846FEF7D9
:101C600053FA012382B25B426946200001F080FFF3
:101C7000022000F0E7FA00222021280000F03CFCBE
:101C8000462000F0DFFA05B030BDC0469C48000891
:101C900010B584B00368374A934204D0364A934261
:101CA0001AD004B010BD354A138801339BB213809B
:101CB000334B1B8801339BB2FA22D200934252D39A
:101CC0002F4B00221A802F4B01321A702B4B1B888E
:101CD0009BB22D4A1380E4E72C4A01A90020FFF7AC
:101CE0005DF80028DDD12A4B1B78002B30D001ABEA
:101CF0000220185EFEF7E6FE264B1968FEF77EFC12
:101D0000400040082449FEF7A3FB00281DD0234BC8
:101D10001B881D2B2AD801339BB2204A13801D2B10
:101D200016D91F4801F0E8FB1E4801F0E5FB134BF4
:101D30001B889BB2144A1380124B01221A70174B56
:101D400000211980184B1A7002E0144B00221A80EF
:101D5000104C01AB0220185EFEF7B4FE20600C4B65
:101D600001221A709DE7064A13809AE70B4B002266
:101D70001A80EDE70044014000200040FE000020F2
:101D8000EC000020FC000020FA00002000000020F1
:101D9000F0000020F40000200000A040EE00002031
:101DA0005001002004010020F800002010B580211F
:101DB000A02001224900C00500F09EFBFEE70000C4
:101DC00000B58DB01C22002105A802F0BBF814223A
:101DD0000021684602F0B6F8124A136807218B43C7
:101DE000136002230593FE33089380239B0109931C
:101DF00040230A9305A801F019F800280ED1072303
:101E000000930023019302930393049300216846F7
:101E100001F0AAF9002803D10DB000BDFFF7C6FFFD
:101E2000FFF7C4FF00200240F8B500F0EDF9FFF71E
:101E3000C7FFFFF7A9FD00F01BF900F0ADF800F0B7
:101E4000C5F8FFF7F9FD1B4C2000FEF739FF200015
:101E5000FFF7B8FE00F010FA0A2000F0F3F900F0E6
:101E600003FA0123144915485B42082201F080FE61
:101E7000134801F00FFB134801F00CFB124C270034
:101E8000124E00252378002B08D1114B1B78002B14
:101E9000F8D00F4B1D70FFF743FEF3E73D7000F0E5
:101EA000EBF9318889B20548FFF7C4FE00F0DCF990
:101EB000EBE7C04600000020A04800089C0100207D
:101EC0005001002004010020FC000020FA00002046
:101ED000F800002000B583B00C4B196C01221143AF
:101EE0001964196C0A400092009ADA6B8021490546
:101EF0000A43DA63DB6B0B400193019B082000F07F
:101F0000C3F9102000F0C0F903B000BD001002407A
:101F1000FEE7FEE77047704710B500F081F910BD8D
:101F200010B5024801F008FB10BDC046500100206A
:101F300010B5024801F000FB10BDC04604010020AE
:101F400010B503000C4A0D49521A0D4909680029C1
:101F500007D00B490868C318934206D8084A136093
:101F600010BD074907480860F3E701F0F3FF0C23B1
:101F7000036001204042F3E7001800200004000045
:101F80000001002080030020024B802212059A608D
:101F90007047C04600ED00E010B50A480A4B0360E8
:101FA0002C23FF334360002383606322C2600361FC
:101FB000836101F0DDFB002800D110BDFFF7F6FEC4
:101FC000FBE7C046500100200020004010B50A4841
:101FD0000A4B03602C23FF334360002383600922F4
:101FE000C26003614361836101F0C2FB002800D13C
:101FF00010BDFFF7DBFEFBE70401002000440140B9
:1020000000B583B00368174A934204D0164A93423E
:1020100014D003B000BD154B1A6C802109020A438D
:102020001A641B6C0B400093009B002200211320BC
:1020300000F032F9132000F061F9EAE70B4B1A6C5B
:10204000802189020A431A641B6C0B400193019B97
:1020500000220121152000F01FF9152000F04EF993
:10206000D7E7C04600200040004401400010024075
:1020700010B51948194B0360E1235B02436000234C
:102080008360C36003610C2242618361C3610362A8
:102090004362836201F054FE002811D10E480021F2
:1020A00001F0CCFE00280ED10B48002101F0ECFE1F
:1020B00000280BD1084801F0A1FE002809D110BD6D
:1020C000FFF774FEEAE7FFF771FEEDE7FFF76EFE3C
:1020D000F0E7FFF76BFEF2E79C01002000380140BB
:1020E00010B58EB004001422002109A801F02AFFC7
:1020F0001C22002102A801F025FF184B22689A42F9
:1021000001D00EB010BD0123029302A801F024F902
:10211000002820D1124B1A6C8021C9010A431A648D
:102120001A6C0A400092009A596B012211435963BC
:102130005B6B13400193019BC023DB0009930223D7
:102140000A9300230B930C930D92A02009A9C005BC
:1021500000F0FCF8D5E7FFF729FEDBE70038014087
:10216000001002400D488546FFF70EFF002103E0F6
:102170000B4B5B58435004310A480B4B42189A42B0
:10218000F6D30A4A02E0002313600432084B9A4255
:10219000F9D301F0E5FEFFF747FEFEE70018002047
:1021A00070490008000000207C0000207C00002016
:1021B0007C030020FEE7000070B504000F4B197887
:1021C0000120002900D170BD0D4DFA208000FDF7DF
:1021D000ADFF01002868FDF7A9FF00F09BF80300A0
:1021E0000120002BEFD1032CEDD80022210040422A
:1021F00000F052F8034B1C600020E4E724000020AC
:10220000200000202800002010B50320FFF7D4FF95
:10221000041E02D00124200010BDFFF75BFEFAE788
:10222000034A1168034B1B785B1813607047C04664
:102230003002002024000020014B18687047C0467F
:102240003002002070B50400FFF7F6FF0500631CA4
:1022500002D0044B1B78E418FFF7EEFF401BA042AE
:10226000FAD370BD24000020024A136802218B4378
:102270001360704710E000E0024A136802210B432C
:102280001360704710E000E0024A136803431360D4
:102290007047C0460000014070B5002814DB840878
:1022A000A400144B9C466444C026B600A5590322E2
:1022B0000240D200FF2318009040854389010B4063
:1022C00093402B43A35170BD0F230340083B9B0851
:1022D0009B00094A94466344DC6903221040C00015
:1022E000FC3215008540AC4389010A4082402243FC
:1022F000DA61E8E700E100E000ED00E0002805DB3E
:102300001F22024001239340014A13607047C046D8
:1023100000E100E0013880235B0498420FD2094AB3
:1023200050600948036A1B021B0AC02109060B43BF
:10233000036200239360073313600020704701207D
:10234000FCE7C04610E000E000ED00E0F0B5DE463E
:1023500057464E464546E0B583B00A68002A00D18C
:10236000BAE000230124A0460F34A3460D3CA14649
:102370005D4E40E0DD08AD0045192A6A944607220B
:102380001A40920092460F225746BA40674697433A
:10239000BC460A690F273A405746BA4067463A4357
:1023A0002A6234E000226746BA402A43226680222D
:1023B000B258019CE4434D68ED0300D580E0224013
:1023C000802572518422B2584D68AD037BD42240DF
:1023D0008425725132684D68ED0277D42240326014
:1023E00072684D68AD0274D42240726001330A688D
:1023F0001400DC4070D044469C40170027400197F1
:102400002242F3D04A685D46AA43022AB2D002684B
:1024100092465D004A46AA40D743BC46574697437A
:10242000BA464A684F463A40AA4057463A43026085
:102430004A685F46BA43013A012A10D88268674663
:102440001740CA68AA403A4382604268A243140017
:102450004A68120947463A409A40224342604A6815
:10246000032AC3D0C468624614408A68AA40224343
:10247000C2604A68802464052242B7D09C08A40048
:10248000194A94466444256E4A461A40D20094463E
:102490000F226746BA409543A022D205904281D0D0
:1024A000124A904208D0124A904207D0114A82182C
:1024B000571EBA41053276E7012274E7022272E71D
:1024C000019D2A437CE7019D2A4381E7019D2A4320
:1024D00085E7019C224388E703B0F0BCBB46B246C7
:1024E000A946A046F0BDC0460018024000040050B6
:1024F0000008005000ECFFAF002A01D08161704756
:102500008162FCE7026893699B0701D5002393620F
:1025100003689A69D20703D49A6901210A439A6130
:102520007047000030B5006844681204039D2B43D7
:102530001A438905890D0A43520052086B0D802108
:10254000C9000B4002490B439C432243426030BD0B
:10255000FF63FF03F0B5D6464F464646C0B50400BC
:102560000D00904601688B69102216001E40002065
:102570001A4244D01023CB6100239946002620271D
:1025800021688B691F4231D1002E33D16B1CF8D0EA
:10259000FFF752FE4346C01AA84201D8002DEFD1E2
:1025A000226850684223E35CDBB29169090403D5D9
:1025B000400401D4202B10D120239A4623689B6924
:1025C00052461A42DCD1FFF737FE4346C01A19289B
:1025D000F4D9202399460126D2E751688023DB01F4
:1025E0000B435360FFF728FE8046E5E7002E01D13C
:1025F0002023CB6104264B4633431E000120226872
:102600009369D90504D501210E43FF31D161012021
:102610005A0526D50822164322688021C900D161B7
:102620009B0505D502231E43236880229200DA61B0
:102630002000FFF767FF226853680C490B40536086
:10264000636C3343636441232022E254002322322B
:10265000A354023AA3540120E0BCBA46B146A846AE
:10266000F0BD9B05DED40028F6D0E1E700E800FECF
:10267000F8B504000D001600022723689B691F426D
:1026800020D1320029002000FFF764FF00281BD171
:102690006B1CF2D0FFF7D0FD801BA84201D8002DA3
:1026A000EBD123689B699B07E7D4636C202213431B
:1026B00063644123E25400232232A354023AA35418
:1026C000012000E00020F8BD0120FCE7F0B5D6466F
:1026D000474680B583B007000D00160098460A9B58
:1026E0009A4601923B689C692C40641B63425C41A2
:1026F000B44228D1524641463800FFF72BFF00284C
:1027000027D143460133EDD0FFF796FD5346C01A5B
:10271000404502D84346002BE4D13B689B692B40DF
:102720005B1B5A425341019A9342DBD17B6C2022BE
:1027300013437B644123FA5400232232BB54023AF0
:10274000BB54012000E0002003B0C0BCBA46B04634
:10275000F0BD0120F8E7F0B5C64600B505000E0053
:10276000170003689B699B0628D42023984609E03C
:102770002B689B6942461A4213D02B689B694246DC
:102780001A421ED13A0031002800FFF7E3FE041E72
:1027900016D1FFF751FDC01BB042E9D8002EECD195
:1027A000E6E76B6C202213436B644123EA54002359
:1027B0002232AB54023AAB54012402E0002400E080
:1027C0000124200080BCB846F0BD000010B5041EF6
:1027D00060D04123C35C002B48D041232422E25423
:1027E0002268136801218B431360226863682A49B9
:1027F0000B4013612268936828490B409360E3689B
:10280000012B39D02268A16884231B020B439360FB
:10281000E368022B37D02268536821490B4053608C
:10282000226851681F4B0B4353602268D3681B49D1
:102830000B40D3602168236962691343A2691202C5
:102840001343CB602268E369216A0B43136022685B
:10285000136801210B4313600023636441221F317D
:10286000A15423630132A354002010BD4033002241
:10287000C254FFF711F9B0E72268A16880231B0258
:102880000B439360C4E72268516880231B010B430C
:102890005360C5E70120E8E7FFFFFFF0FF7FFFFF80
:1028A000FFF7FFFF00800002F0B587B0040003913E
:1028B000059204930CAB20CB1E884123C35C202BD4
:1028C00000D0D8E0002D54D0002E52D04023C35C5D
:1028D000012B00D1D2E040230122C254FFF7ACFC0F
:1028E0000700802100901923012209022000FFF730
:1028F000EDFE03000120002B00D0BDE0413321227A
:10290000E25401331F32E25400236364656266853A
:1029100063638033049DEAB25C4900915B040399D0
:102920002000FFF7FFFD3A000E992000FFF7A0FE00
:10293000002832D1012D21D123686A46167D9E627E
:1029400000970E9B002280212000FFF7BFFE002889
:1029500023D1638D9BB2FF2B24D9FF2323857F3B9B
:10296000002200925B04FF3203992000FFF7DAFD9A
:1029700035E080239B00636401207DE02368059D92
:102980002A0A9A623A000E992000FFF771FE002889
:1029900003D12368EEB29E62D2E740230022E254C4
:1029A000012069E0628D92B222858023D2B200219B
:1029B00000919B0403992000FFF7B4FD0FE0628DA6
:1029C00092B222858023D2B2002100919B04039908
:1029D0002000FFF7A7FD638D9BB2002B34D03A0097
:1029E0000E992000FFF744FE002849D12368626A4F
:1029F00012789A62636A01336362638D013B9BB212
:102A00006385238D013B9BB22385628D92B2002AA0
:102A1000E1D0002BDFD100970E9B00228021200007
:102A2000FFF754FE00282DD1638D9BB2FF2BC6D932
:102A3000FF2323857F3B002200925B04FF32039932
:102A40002000FFF76FFDC6E73A000E992000FFF760
:102A500082FE002818D123682022DA6121684B68A1
:102A60000B4D2B404B604123E25400232232A354F0
:102A7000023AA35400E0022007B0F0BD0220FBE7B9
:102A80000120F9E70120F7E70120F5E700200080A9
:102A900000E800FEF0B587B00400039105920493AE
:102AA0000CAB20CB1E884123C35C202B00D0D9E087
:102AB000002D53D0002E51D04023C35C012B00D1F8
:102AC000D3E040230122C254FFF7B6FB0700802168
:102AD00000901923012209022000FFF7F7FD0300EF
:102AE0000120002B00D0BEE041332222E25401330A
:102AF0001E32E25400236364656266856363049D4D
:102B0000EAB25E4B0093002303992000FFF70AFD11
:102B10003A000E992000FFF7ABFD002832D1012DBD
:102B200021D123686A46167D9E6200970E9B002283
:102B300040212000FFF7CAFD002823D1638D9BB2FE
:102B4000FF2B24D9FF2323857F3B4D4A00925B0452
:102B5000FF2203992000FFF7E5FC35E080239B006E
:102B6000636401207FE02368059D2A0A9A623A0087
:102B70000E992000FFF77CFD002803D12368EEB2F8
:102B80009E62D2E740230022E25401206BE0628D76
:102B900092B222858023D2B2394900919B040399D5
:102BA0002000FFF7BFFC0FE0628D92B222858023E8
:102BB000D2B2002100919B0403992000FFF7B2FCE0
:102BC000638D9BB2002B36D000970E9B0022042110
:102BD0002000FFF77BFD002849D123685A6A636A09
:102BE0001A70636A01336362238D013B9BB22385B4
:102BF000628D013A92B26285628D92B2002ADFD074
:102C0000002BDDD100970E9B002280212000FFF7D2
:102C10005DFD00282DD1638D9BB2FF2BC4D9FF230E
:102C200023857F3B002200925B04FF320399200042
:102C3000FFF778FCC4E73A000E992000FFF78BFD00
:102C4000002818D123682022DA6121684B680D4DD5
:102C50002B404B604123E25400232232A354023A1A
:102C6000A35400E0022007B0F0BD0220FBE70120E2
:102C7000F9E70120F7E70120F5E7C04600200080D2
:102C80000024008000E800FEF0B54123C35C202B47
:102C900020D12033C35C012B1ED0402401220255D9
:102CA00041252423435506683368934333600668FF
:102CB00033680A4F3B403360066833680B43336028
:102CC00001680B6813430B60202343550023035511
:102CD0000020F0BD0220FCE70220FAE7FFEFFFFF33
:102CE000F0B54123C35C202B1ED12033C35C012BE4
:102CF0001CD0402401220255412524234355066857
:102D000033689343336006683368094F3B400902D8
:102D10001943316001680B6813430B60202343554E
:102D2000002303550020F0BD0220FCE70220FAE753
:102D3000FFF0FFFF0549CA682F2303409A43000AAA
:102D40000243CA608A6813438B607047007000407A
:102D5000022818D007D800280FD00E4A936A8B4358
:102D6000936200200EE0052805D10A4A936C8B433C
:102D70009364002006E0012004E0064A136A8B43B6
:102D8000136200207047034A136B8B4313630020C8
:102D9000F8E7C04600700040022818D007D8002885
:102DA0000FD00E4AD36A8B43D36200200EE0052871
:102DB00005D10A4AD36C8B43D364002006E001207E
:102DC00004E0064A536A8B43536200207047034A6B
:102DD000536B8B4353630020F8E7C04600700040FC
:102DE000034A91688023DB000B4393607047C04621
:102DF00000700040024A936802490B40936070479C
:102E000000700040FFFBFFFF064A136807218B4359
:102E100003390B431360044A13690B43136130BF3A
:102E20007047C0460070004000ED00E0F8B5041E99
:102E300000D148E10368DB072ED5A74B9A683823F9
:102E40001340082B24D043688022520293426ED054
:102E5000A022D202934271D09F4B1A689F490A4028
:102E60001A601A689E490A401A606368002B71D084
:102E7000FFF7E2F90500984F8026B6023B6833421F
:102E80000AD1FFF7D9F9401B6428F7D903201BE1C9
:102E90004368002B00D118E123689B0725D58E4B92
:102EA0009B6838221A4265D1E3680120002B00D1CB
:102EB0000AE1894B5968626912028A4801400A4353
:102EC0005A601A6888490A4021690A431A601B68D7
:102ED00086499B045B0F864ADA400A60854B186876
:102EE000FFF76AF9002800D0F1E023681B0700D43F
:102EF00081E0794B9A6838231340182B77D0A36967
:102F0000002B00D1A2E0744A136E01210B4313661B
:102F1000FFF792F90500704F02263B6E1E426AD100
:102F2000FFF78AF9401B0228F7D90320CCE06A4A50
:102F3000116880235B020B43136096E7664B1968A8
:102F40008022D2020A431A601968802252020A4380
:102F50001A608AE7FFF770F905005F4F8026B60216
:102F60003B68334298D0FFF767F9401B6428F7D9D4
:102F70000320A9E0E368002B24D0574A13685A497C
:102F80000B4021690B431360116880235B000B43E6
:102F90001360FFF751F905004F4F8026F6003B689C
:102FA000334206D1FFF748F9401B0228F7D9032026
:102FB0008AE049494A6863691B024A480240134350
:102FC0004B6092E7444A13684B490B401360FFF78C
:102FD00033F90500404F8026F6003B68334284D029
:102FE000FFF72AF9401B0228F7D903206CE0A369F8
:102FF000002B00D16DE0236800205B0764D5364BC1
:103000009A6838231340202B34D0A368012B36D084
:10301000052B3AD0304BDA6D01218A43DA65DA6D3F
:1030200003318A43DA65A368002B3AD0FFF704F92D
:103030000400294E0225314FF36D1D422FD1FFF7B9
:10304000FBF8001BB842F7D903203DE0224A136E7B
:1030500001218B431366FFF7EFF805001E4F022690
:103060003B6E1E42C7D0FFF7E7F8401B0228F7D996
:10307000032029E0A06843425841C0B224E0164A28
:10308000D36D01210B43D365CDE7134BDA6D0421DA
:103090000A43DA65DA6D03390A43DA65C3E70020CB
:1030A00012E0FFF7C9F804000B4E0225134FF36D31
:1030B0001D4206D0FFF7C0F8001BB842F7D9032025
:1030C00002E0002000E00120F8BD0120FCE7012023
:1030D000FAE70120F8E7C04600100240FFFFFEFFBC
:1030E000FFFFFBFFFF80FFFFFFC7FFFF2000002067
:1030F000006CDC0228000020FFFEFFFF88130000A8
:10310000154B9B6838221A4206D1134B1B689B044F
:103110005B0F1248D84070470F4B9A683823134012
:10312000082B14D00C4B9A6838231340202B10D056
:10313000094B9B68382018401838431E984140427C
:10314000074B1840FA23DB019C466044E3E705483F
:10315000E1E780200002DEE700100240006CDC02A4
:103160000083FFFF00127A00F8B5CE46474680B5CF
:1031700004000D00002800D1AFE05A4B1A68072365
:1031800013408B4221D323689A0710D55B0707D5DC
:1031900055498A68554B1A40B0231B0113438B6075
:1031A000514A936852490B40E1680B43936023688E
:1031B000DB0752D56268012A21D0002A3FD14A4B51
:1031C0001B685B051FD4012069E0464A136807218C
:1031D0008B432B431360FFF72FF80600414B9846B3
:1031E0000727444B994643461B683B40AB42CAD035
:1031F000FFF722F8801B4845F5D903204FE03A4BF2
:103200001B689B036BD538498B68072083431343A6
:103210008B60FFF711F80600334B98463827354B83
:10322000994643469A683A406368DB009A4214D054
:10323000FFF702F8801B4845F3D903202FE0032A4B
:1032400005D0294BDB6D9B07DDD4012027E0264B01
:103250001B6E9B07D7D4012021E0224B1A6807235D
:103260001340AB421FD823685B0706D51E4A9368FC
:1032700021490B4021690B439360FFF741FF1A4B33
:103280009B681E491E4A1B051B0F9B009B581F2253
:103290001340D84008601B4B1868FEF78DFFC0BC78
:1032A000B946B046F8BD0F4A136807218B432B433C
:1032B0001360FEF7C1FF06000A4B984607270D4B27
:1032C000994643461B683B40AB42CCD0FEF7B4FF67
:1032D000801B4845F5D90320E1E70120DFE7012005
:1032E000DDE7C0460020024000100240FF84FFFFDF
:1032F000FFF0FFFF88130000FF8FFFFF200000207A
:10330000CC4800082800002010B5FFF7F9FE064B56
:103310009B68064A1B051B0F9B009B581F221340EE
:10332000D840034B186010BD00100240CC48000884
:103330002000002010B5FFF7E7FF054B9B68054A0A
:103340005B045B0F9B009B581F221340D84010BDAD
:1033500000100240AC480008F0B5CE46474680B5A4
:1033600083B00400036800205B0647D5424BDB6B4B
:103370000025DB000AD4404BDA6B802149050A4363
:10338000DA63DB6B0B400193019B01353A4BDA6D3D
:10339000C0239B00110019401A4225D0A3698B421B
:1033A00022D0354BDA6D35491140DE6D8020400268
:1033B0003043D865D86D324E3040D865D965D207D4
:1033C00012D5FEF739FF06002B4B984602272D4BEE
:1033D00099464346DB6D1F4206D1FEF72DFF801B49
:1033E0004845F6D9032007E0234AD36D23490B4013
:1033F000A1690B43D3650020012D36D02368DB077C
:1034000006D51D4A536D03218B43A1680B435365B9
:1034100023689B0706D5184A536D1B490B40E1688A
:103420000B43536523689B0606D5134A536D9B00D7
:103430009B0861690B43536523685B0706D50E4AF9
:10344000536D12490B4021690B43536523681B06DA
:1034500006D5094A1368E0218B4361680B4313606A
:1034600003B0C0BCB946B046F0BD034AD36B0849AF
:103470000B40D363C2E7C04600100240FFFCFFFFD1
:10348000FFFFFEFF88130000FFCFFFFFFF3FFFFF9E
:10349000FFFFFFEF03003D22825C0120012A12D1D1
:1034A0003C32022199541968CA680243CA601B68F9
:1034B0000E4A934208D00E4A934205D01A68012161
:1034C0000A431A60002070479A680A490A40062A8F
:1034D00008D007398A4207D01A6801210A431A60C6
:1034E0000020F0E70020EEE70020ECE7002C014090
:1034F00000040040070001000268D36801218B43EB
:10350000D3600368196A084A114207D1196A074A49
:10351000114203D11A6801218A431A603D23012216
:10352000C25400207047C04611110000440400003E
:10353000704770477047704770B504000368DE68D5
:103540001D69AA070ED5B2070CD5032252421A6193
:103550000123037703689B699B0753D0FFF7E9FFBB
:10356000002323776B0712D5730710D52368052234
:1035700052421A610223237723689A69C0239B0071
:103580001A4245D02000FFF7D4FF002323772B07F2
:1035900010D533070ED52368092252421A6104233D
:1035A00023772368DB699B0739D02000FFF7C1FF31
:1035B00000232377EB0612D5F30610D523681122DA
:1035C00052421A61082323772368DA69C0239B00DB
:1035D0001A422BD02000FFF7ACFF00232377EB0724
:1035E00001D5F30729D482239B011D423CD0330629
:1035F0002BD46B0601D573063BD4AD0601D5B606B8
:103600003FD470BDFFF794FF2000FFF793FFA7E7BB
:103610002000FFF78DFF2000FFF78CFFB5E72000AB
:10362000FFF786FF2000FFF785FFC1E72000FFF7C7
:103630007FFF2000FFF77EFFCFE723680222524280
:103640001A612000FEF724FBCDE72368114A1A61B6
:10365000200000F0BEF8EB05CBD523680E4A1A61B6
:10366000200000F0B7F8C4E7EB05C2D53306C0D59B
:10367000F3E72368412252421A612000FFF75BFF03
:10368000BBE72368212252421A61200000F0A0F813
:10369000B7E7C0467FDFFFFFFFFEFFFF03682E4A4C
:1036A000904214D02D4A904211D02D4A904238D0E9
:1036B0002C4A904242D02C4A904225D080229343FB
:1036C0004A6913438A68C2620A68826214E07022FF
:1036D00093434A681343254A1340CA681343802220
:1036E00093434A6913438A68C2620A6882621A4A2B
:1036F000904201D10A690263026804210A43026010
:103700000122426103607047184A1340CA6813439C
:10371000802293434A6913438A68C2620A688262BC
:10372000E8E7124A1340CA681343802293434A6968
:1037300013438A68C2620A688262DDE70B4A13405B
:10374000CA681343802293434A6913438A68C2625A
:103750000A688262CEE7C046002C014000040040A7
:10376000002000400044014000480140FFFCFFFFF2
:1037700070B5041E2AD03D23C35C002B20D03D250C
:1037800002236355210001C9FFF788FF0123482266
:10379000A3540A3AA3540132A3540132A354013270
:1037A000A3540132A3540132A3540132A354013271
:1037B000A3540132A3540132A3546355002070BDB9
:1037C0003C330022C254FEF71BFCD8E70120F6E789
:1037D000704770477047000030B5EFF31084012246
:1037E00082F3108801680B68124D2B400B6084F344
:1037F0001088EFF3108182F31088026893680E4CF2
:103800002340936081F31088C36E012B06D08C2374
:103810002022C2500023C366436730BDEFF31081FE
:1038200083F31088026813681024A343136081F3A4
:103830001088ECE7DFFEFFFFFEFFFFEF70B504002E
:1038400001680A6883680069034360690343E069AB
:1038500003435C48024013430B60226853685A4993
:103860000B40E1680B435360A36921688A68206AB2
:1038700003435648024013438B602268D36A0F21EA
:103880008B43616A0B43D3622368514A934217D03A
:10389000504A944663445A1E93411B0180221202EF
:1038A000E169914200D182E00120022B43D901233A
:1038B0006A22A352023AA35200236367A36770BD32
:1038C000454B5A6D03231340022B5DD055D8002B76
:1038D00008D080231B02E2699A4264D0FFF710FCF3
:1038E00003002BE00023D9E73B4B19680906490F79
:1038F00001313A48FCF71AFC03006568384A616AEE
:103900004900895A1800FCF711FC40006B08C018E8
:103910002900FCF70BFC030001001039314A01209B
:103920009142C4D8304A1A4021681B075B0F1343E9
:10393000CB600020BBE7FFF7FDFC03000020002B5D
:10394000B5D06568264A616A4900895A1800FCF7B3
:10395000EDFB6B08C0182900FCF7E8FB0300010031
:103960001039204A01209142A1D822681B041B0C67
:10397000D36000209BE7012099E7E36980221202CF
:103980009342BAD01300DCE780231B02E2699A421B
:10399000AAD0114B19680906490F01310F48FCF7ED
:1039A000C5FB0300CDE7FFF7ABFB030004E0002BF2
:1039B000E1D1FFF7BFFC03000020002B00D176E728
:1039C0009BE7C046F369FFCFFFCFFFFFFFF4FF1176
:1039D0000038014000BCFFBF00100240006CDC0258
:1039E0000C490008EFFF0000F0FF0000836A1B078E
:1039F00006D5026853682C490B40816B0B4353601A
:103A0000836ADB0706D50268536828490B40C16A00
:103A10000B435360836A9B0706D5026853682449A9
:103A20000B40016B0B435360836A5B0706D502684A
:103A3000536820490B40416B0B435360836ADB069C
:103A400006D5026893681C490B40C16B0B43936019
:103A5000836A9B0606D50268936818490B40016C7F
:103A60000B439360836A5B060BD502685368144965
:103A70000B40416C0B43536080235B03426C9A42C2
:103A80000AD0836A1B0606D5026853680D490B40AD
:103A9000C16C0B4353607047026853680A490B407E
:103AA000816C0B435360ECE7FF7FFFFFFFFFFDFFDF
:103AB000FFFFFEFFFFFFFBFFFFEFFFFFFFDFFFFF4B
:103AC000FFFFEFFFFFFFF7FFFFFF9FFFF8B5CE46B9
:103AD000474680B580460D0016009946089F43462C
:103AE0001B68DC692C40641B62425441B44236D1ED
:103AF0007A1CF6D0FEF7A0FB4B46C01AB84233D86A
:103B0000002F33D043461A6813685B07E7D52B00B4
:103B1000403B40218B43E2D0D3691B0711D4D369CA
:103B20001B05DCD580231B0113624046FFF754FEC2
:103B3000902320224146CA500C3B0022CA54032045
:103B40000EE0082414624046FFF746FE90234246EA
:103B5000D4500C3B00224146CA54012000E0002012
:103B6000C0BCB946B046F8BD0320F9E70320F7E72B
:103B7000F0B5CE46474680B583B004000D00160070
:103B80001F008823C358202B68D1002900D16BE087
:103B9000002A00D16AE080235B0182689A4204D146
:103BA0000369002B01D1CB0762D490230022E2509D
:103BB000083B2132E250FEF73FFB80465423E65299
:103BC0000233E65280235B01A268002189469A42B3
:103BD00006D05623E35A9BB2002B2DD056261BE06D
:103BE0002369002BF5D1A9460025F2E7882320227E
:103BF000E250032033E022684B461B88DB05DB0DD7
:103C0000936202239C46E144A25B013A92B2A25322
:103C1000A35B9BB2002B0FD000974346002280216C
:103C20002000FFF753FF0028E0D1002DE3D02368E8
:103C30002A789A620135E7E700974346002240213F
:103C40002000FFF743FF002803D188232022E25001
:103C500005E088232022E250032000E0022003B088
:103C6000C0BCB946B046F0BD0120F8E70120F6E738
:103C70000120F4E730B583B0040090230022C25045
:103C8000FEF7DAFA050023681B681B0711D42368C6
:103C90001B685B0729D420238822A3500432A35039
:103CA0000023E3662367002084230022E25403B04C
:103CB00030BD8021204B00930300002289032000A7
:103CC000FFF704FF0028E2D0EFF31081012383F314
:103CD00010882268136880208343136081F3108862
:103CE00088232022E2507D38DEE78021124B0093AA
:103CF0002B000022C9032000FFF7E8FE0028CAD0ED
:103D0000EFF31080012282F3108821680B680B4DBD
:103D10002B400B6080F31088EFF3108082F3108843
:103D200021688B6893438B6080F310888C231F324B
:103D3000E2500320B8E7C046FFFFFF01DFFEFFFFB0
:103D400010B5041E30D08823C358002B22D08823FE
:103D50002422E2502268136801218B431360A36A76
:103D6000002B1DD12000FFF769FD012811D022682A
:103D700053680E490B405360226893682A218B4395
:103D800093602268136829390B4313602000FFF702
:103D900071FF10BD84330022C254FEF7A1F9D6E7AB
:103DA0002000FFF723FEDDE70120F2E7FFB7FFFF6A
:103DB000F8B50400436E002B06D16A330122C252CB
:103DC00001206823E052F8BD03689D689B685B0F83
:103DD000084FF85CC000084EF15CFCF731FA6A232A
:103DE000E0522B015B0FF85CC000F15CFCF728FA95
:103DF00080B2E6E72C4900082449000870B5842306
:103E0000C35C012B15D08424012606558825242364
:103E10004351026813681168B1431160064A1340A8
:103E20000022426601680B602023435102550020A6
:103E300070BD0220FCE7C046FFFFFFDFF8B50400BD
:103E40000A008423C35C012B1BD08425012060550C
:103E500088262423A35123681F68196881431960A9
:103E600020688368DB00D908114381602000FFF7D8
:103E70009FFF23681F602023A35100236355002068
:103E8000F8BD0220FCE70000F8B504000B00842216
:103E9000825C012A1BD084250120605588262422BB
:103EA000A2512268176811688143116022689168E5
:103EB00008480140194391602000FFF779FF23680B
:103EC0001F602023A351002363550020F8BD02206A
:103ED000FCE7C046FFFFFFF10CB430B5184B0C00F7
:103EE0001D689DB0002908DA8B2301202B60404219
:103EF0001DB030BC08BC02B0184782236A469B0044
:103F00009382002302901B930690994200D04B1E8F
:103F10000493079301236A465B42D382280021ABB6
:103F2000209A02A9019300F09DF9431C01DA8B232A
:103F30002B60002CDCD00022029B1A70D8E7C04610
:103F40002C00002003008218934200D170471970A2
:103F50000133F9E7014B18687047C0462C00002078
:103F600070B500260C4C0D4D641BA410A64209D15F
:103F7000002600F061FC0A4C0A4D641BA410A64206
:103F800005D170BDB300EB5898470136EEE7B3009A
:103F9000EB5898470136F2E768490008684900087D
:103FA0006C490008684900087047704770B5050003
:103FB0000C1E10D0043C2368002B00DAE418280003
:103FC00000F0E0F81D4A1368002B05D1636014600F
:103FD000280000F0DFF870BDA34208D9206821183E
:103FE0008B42F3D119685B6809182160EEE71A006B
:103FF0005B68002B01D0A342F9D911685018A04288
:104000000BD120680918501811608342E0D118685C
:104010005B68411811605360DAE7A04202D90C23B3
:104020002B60D5E7206821188B4203D119685B68A3
:104030000918216063605460CAE7C0467803002015
:1040400070B50F4E0D0031680400002902D100F058
:1040500095FB30602900200000F090FB431C03D149
:1040600001256D42280070BD0323C51C9D43A84255
:10407000F8D0291A200000F081FB0130F2D1EFE7DF
:1040800074030020F7B50322CB1C934308330500CB
:104090001F000C2B34D20C27B94233D8280000F073
:1040A00071F8374E33681C00002C2FD139002800DE
:1040B000FFF7C6FF0400431C5FD134680094009BE7
:1040C000002B4AD1002C52D023682800E318009915
:1040D000019300F053FB019B834248D123682800E1
:1040E000FF1A3900FFF7ACFF013040D02368DB191D
:1040F000236033685A68002A33D1009B336019E08B
:10410000002BC9DA0C232B600020FEBD2168C91BDF
:1041100020D40B290AD9E2192760A34204D13260C6
:1041200063681160536005E05A60F9E76268A34272
:104130000ED13260280000F02DF8200007220B304D
:10414000231D9043C21A9842DFD01B1AA350DCE70C
:104150005A60EFE723006468A6E7009C6368009359
:10416000ADE71A005B68A342FBD10023DAE70C231A
:1041700028002B6000F00EF8C6E70760DAE7C046BB
:104180007803002010B50248FFF70EFF10BDC046AF
:104190007003002010B50248FFF707FF10BDC046AE
:1041A00070030020F0B58E6885B01F000C000B680E
:1041B00002900392BE4230D80C21625E9021C90069
:1041C0000A4228D0032021695B1A019363694343A3
:1041D0000198DD0FED187B1C1B186D10AB4200D948
:1041E0001D00520528D529000298FFF74BFF061E37
:1041F0002CD0019A216900F0DEFAA289184B1A40EE
:1042000080231343A381019B2661F61826603E009C
:104210006561ED1AA560BE4200D93E0032000399E7
:10422000206800F099FA0020A3689B1BA360236814
:104230009B19236005B0F0BD2A00029800F0C4FA73
:10424000061EE0D121690298FFF7B0FE0C23012081
:10425000029A40421360A28934331343A381E9E7F1
:104260007FFBFFFFF0B5A1B003901D008B890F000D
:1042700016001B0611D50B69002B0ED14021FFF74C
:1042800001FF38603861002805D10C23039A1360C0
:1042900001204042CFE040237B61002308AC6361F2
:1042A000203363761033A376079535002B78002BE7
:1042B00001D0252B48D1AB1B0593B5420BD0320062
:1042C00039000398FFF76EFF013000D1AEE063695B
:1042D000059A9B1863612B78002B00D1A6E0012280
:1042E00000235242626004A9543252186E1C2360AB
:1042F000E360A3601370A365544B05221800317866
:10430000059300F04DFA751C00281FD12268D306D2
:1043100004D5532304A95B1820211970130704D571
:10432000532304A95B182B21197033782A2B16D03C
:10433000350000210A20E3682A786E1C303A092AE9
:1043400050D9002911D117E00135AFE7059B22684C
:10435000C01A0123834013432E002360CCE7079B40
:10436000191D1B680791002B01DB0B9304E05B42D6
:10437000E3600223134323602B782E2B0CD16B7840
:104380002A2B34D1079B02351A1D1B680792002B7C
:1043900001DA01235B4209932D4E03223000297874
:1043A00000F0FEF9002806D04023801B83402268DD
:1043B0000135134323602978062226486E1C217696
:1043C00000F0EEF9002838D0234B002B22D1072231
:1043D000079B07339343083307936369049A9B1839
:1043E000636162E74343350001219B18A4E7002382
:1043F0000A201900013563602A786E1C303A092AB8
:1044000003D9002BC8D00991C6E7414335000123E9
:104410008918F1E707AA009221003A000F4B039890
:1044200000E000BF0490049B0133D6D1BB890D98F6
:104430005B0600D52CE721B0F0BD07AA0092210051
:104440003A00064B039800F07BF8EBE7344900088C
:104450003A4900083E49000800000000A541000854
:10446000F7B5160001938A680B690C00009093421F
:1044700000DA13002200336043321278002A01D0A0
:104480000133336023689B0602D5336802333360FF
:104490002268062315001D401A4227D0230043330B
:1044A0001B785A1E93412268920630D4220001994B
:1044B0000098089D4332A847013025D00622236882
:1044C00000251340042B05D13368E568ED1AEB4352
:1044D000DB171D40A3682269934201DD9B1AED188A
:1044E0000026B54220D1002010E00135E368326893
:1044F0009B1AAB42D2DD2200012301990098089F4C
:104500001932B8470130F0D101204042FEBD3020C1
:10451000E1184331087021005A1C45310978A2186E
:10452000433202331170C1E7220001230199009840
:10453000089F1A32B8470130E6D00136D1E70000B3
:10454000F0B58BB006920A004332079305900392B0
:104550000A7E0C00109B782A09D8622A0BD8002A00
:1045600000D1BAE07A490491582A00D18EE02500A2
:1045700042352A7022E0100063381528F7D8FBF77F
:10458000CBFD16001F00F6FFF6FFF6FFF6FF1F003B
:10459000F6FFF6FFF6FFF6FF9F0036007E00F6FFFF
:1045A000F6FFB000F6FF3600F6FFF6FF82002500AA
:1045B0001A684235111D196013682B7001239EE0A3
:1045C00018680968021D0D060BD506681A60002ED2
:1045D00003DA2D23039A764213705D4B0A27049366
:1045E00018E006681A604906F1D536B2EFE70868A8
:1045F000196840C9050602D4400600D5B6B2196054
:10460000534B0A2704936F2A00D1023F2300002254
:1046100043331A706368A360002B06DB0421226811
:10462000039D8A43226033430CD0039D3000390040
:10463000FBF702FE049B013D5B5C2B703300060020
:104640009F42F3D9082F09D12368DB0706D562689A
:1046500023699A4202DC3023013D2B70039B5B1BD4
:104660002361079B210000930598069B09AAFFF789
:10467000F7FE013048D1012040420BB0F0BD2022AE
:1046800009680A43226078223249049121004531A9
:104690000A701968226840C9100602D4500600D575
:1046A000B6B21960D30702D5202313432360002E2E
:1046B00001D01027AAE72022236893432360F8E75C
:1046C0001A680D68101D4969186013682E0601D517
:1046D000196002E06D06FBD519800023039D23615C
:1046E000BFE71A68111D196015680021280062686B
:1046F00000F056F8002801D0401B60606368236119
:104700000023039A1370ACE72A00236906990598E1
:10471000079DA8470130AED023689B0715D4099B9D
:10472000E0689842A9DA1800A7E722000123069959
:104730000598079E1932B04701309CD00135E368D7
:10474000099A9B1AAB42F0DCE9E70025F7E7C0467F
:10475000454900085649000810B5884202D98B180F
:10476000984208D300239A4207D0CC5CC45401334A
:10477000F9E78B5C8354013AFBD210BD002370B57E
:10478000064D040008002B60FDF7DAFB431C03D143
:104790002B68002B00D0236070BDC0466C03002046
:1047A000C9B28218904201D10020704703788B4231
:1047B000FBD00130F6E7002310B59A4200D110BDBE
:1047C000CC5CC4540133F8E7F7B506000C001500C3
:1047D000002905D11100FFF755FC04002000FEBDA3
:1047E000002A03D1FFF7E2FB2C00F7E700F01CF8EA
:1047F0000700854202D84308AB42EFD329003000BE
:10480000FFF740FC0190002801D1019CE6E72A0057
:10481000BD4200D93A0021000198FFF7CCFF2100EA
:104820003000FFF7C3FBF0E70B1F1B68181F002BBE
:1048300001DA0B58C0187047F8B5C046F8BC08BC80
:104840009E467047F8B5C046F8BC08BC9E46704707
:104850000000E000F8110008A2110008561200083C
:10486000A01200083613000882130008CE130008B7
:104870001A14000866140008AA1400088A11000817
:10488000EA12000892150008F415000886160008C0
:10489000FA16000850170008A817000825750A0026
:1048A000776F6B652075700A000000000000000043
:1048B00000000000000000000000000001000000F7
:1048C00002000000030000000400000000000000DF
:1048D00000000000000000000000000000000000D8
:1048E00000000000000000000000000001000000C7
:1048F00002000000030000000400000006000000A9
:10490000070000000800000009000000010002008C
:104910000400060008000A000C00100020004000FF
:1049200080000001080402040801010101010103E3
:1049300007010000232D302B2000686C4C006566B9
:1049400067454647003031323334353637383941E0
:1049500042434445460030313233343536373839F6
:084960006162636465660000FA
:04496800E90000085A
:04496C00C10000087E
:10497000000100009800002000000000211900083C
:104980004D1900087919000800000000000000001F
:10499000001BB700010000000400000030000020F0
:1049A00000000000340200209C02002004030020CC
:1049B00000000000000000000000000000000000F7
:1049C00000000000000000000000000000000000E7
:1049D00000000000000000000000000000000000D7
:0C49E000000000000000000000000000CB
:040000050800216569
:00000001FF
